{
    "_format": "hh-sol-artifact-1",
    "contractName": "EventChain",
    "sourceName": "contracts/EventChain.sol",
    "abi": [
        {
            "inputs": [
                {
                    "internalType": "address[]",
                    "name": "_supportedTokens",
                    "type": "address[]"
                }
            ],
            "stateMutability": "nonpayable",
            "type": "constructor"
        },
        {
            "inputs": [],
            "name": "ReentrancyGuardReentrantCall",
            "type": "error"
        },
        {
            "inputs": [
                {
                    "internalType": "address",
                    "name": "token",
                    "type": "address"
                }
            ],
            "name": "SafeERC20FailedOperation",
            "type": "error"
        },
        {
            "anonymous": false,
            "inputs": [
                {
                    "indexed": true,
                    "internalType": "uint256",
                    "name": "eventId",
                    "type": "uint256"
                }
            ],
            "name": "EventCanceled",
            "type": "event"
        },
        {
            "anonymous": false,
            "inputs": [
                {
                    "indexed": true,
                    "internalType": "uint256",
                    "name": "eventId",
                    "type": "uint256"
                },
                {
                    "indexed": true,
                    "internalType": "address",
                    "name": "owner",
                    "type": "address"
                },
                {
                    "indexed": false,
                    "internalType": "string",
                    "name": "eventName",
                    "type": "string"
                }
            ],
            "name": "EventCreated",
            "type": "event"
        },
        {
            "anonymous": false,
            "inputs": [
                {
                    "indexed": true,
                    "internalType": "uint256",
                    "name": "eventId",
                    "type": "uint256"
                },
                {
                    "indexed": true,
                    "internalType": "address",
                    "name": "owner",
                    "type": "address"
                },
                {
                    "indexed": false,
                    "internalType": "string",
                    "name": "eventName",
                    "type": "string"
                }
            ],
            "name": "EventUpdated",
            "type": "event"
        },
        {
            "anonymous": false,
            "inputs": [
                {
                    "indexed": true,
                    "internalType": "uint256",
                    "name": "eventId",
                    "type": "uint256"
                },
                {
                    "indexed": false,
                    "internalType": "uint256",
                    "name": "amount",
                    "type": "uint256"
                }
            ],
            "name": "FundsReleased",
            "type": "event"
        },
        {
            "anonymous": false,
            "inputs": [
                {
                    "indexed": true,
                    "internalType": "uint256",
                    "name": "eventId",
                    "type": "uint256"
                },
                {
                    "indexed": true,
                    "internalType": "address",
                    "name": "user",
                    "type": "address"
                },
                {
                    "indexed": false,
                    "internalType": "uint256",
                    "name": "amount",
                    "type": "uint256"
                }
            ],
            "name": "RefundIssued",
            "type": "event"
        },
        {
            "anonymous": false,
            "inputs": [
                {
                    "indexed": true,
                    "internalType": "uint256",
                    "name": "eventId",
                    "type": "uint256"
                },
                {
                    "indexed": true,
                    "internalType": "address",
                    "name": "buyer",
                    "type": "address"
                },
                {
                    "indexed": false,
                    "internalType": "uint256",
                    "name": "amount",
                    "type": "uint256"
                },
                {
                    "indexed": false,
                    "internalType": "address",
                    "name": "paymentToken",
                    "type": "address"
                }
            ],
            "name": "TicketPurchased",
            "type": "event"
        },
        {
            "inputs": [],
            "name": "CELO",
            "outputs": [
                {
                    "internalType": "address",
                    "name": "",
                    "type": "address"
                }
            ],
            "stateMutability": "view",
            "type": "function"
        },
        {
            "inputs": [],
            "name": "MAX_ATTENDEES",
            "outputs": [
                {
                    "internalType": "uint256",
                    "name": "",
                    "type": "uint256"
                }
            ],
            "stateMutability": "view",
            "type": "function"
        },
        {
            "inputs": [],
            "name": "MAX_DETAILS_LENGTH",
            "outputs": [
                {
                    "internalType": "uint256",
                    "name": "",
                    "type": "uint256"
                }
            ],
            "stateMutability": "view",
            "type": "function"
        },
        {
            "inputs": [],
            "name": "MAX_LOCATION_LENGTH",
            "outputs": [
                {
                    "internalType": "uint256",
                    "name": "",
                    "type": "uint256"
                }
            ],
            "stateMutability": "view",
            "type": "function"
        },
        {
            "inputs": [],
            "name": "MAX_NAME_LENGTH",
            "outputs": [
                {
                    "internalType": "uint256",
                    "name": "",
                    "type": "uint256"
                }
            ],
            "stateMutability": "view",
            "type": "function"
        },
        {
            "inputs": [],
            "name": "MAX_TICKET_PRICE",
            "outputs": [
                {
                    "internalType": "uint256",
                    "name": "",
                    "type": "uint256"
                }
            ],
            "stateMutability": "view",
            "type": "function"
        },
        {
            "inputs": [],
            "name": "MAX_URL_LENGTH",
            "outputs": [
                {
                    "internalType": "uint256",
                    "name": "",
                    "type": "uint256"
                }
            ],
            "stateMutability": "view",
            "type": "function"
        },
        {
            "inputs": [],
            "name": "MIN_EVENT_DURATION",
            "outputs": [
                {
                    "internalType": "uint256",
                    "name": "",
                    "type": "uint256"
                }
            ],
            "stateMutability": "view",
            "type": "function"
        },
        {
            "inputs": [],
            "name": "REFUND_BUFFER",
            "outputs": [
                {
                    "internalType": "uint256",
                    "name": "",
                    "type": "uint256"
                }
            ],
            "stateMutability": "view",
            "type": "function"
        },
        {
            "inputs": [
                {
                    "internalType": "uint256",
                    "name": "_index",
                    "type": "uint256"
                }
            ],
            "name": "buyTicket",
            "outputs": [],
            "stateMutability": "payable",
            "type": "function"
        },
        {
            "inputs": [
                {
                    "internalType": "uint256",
                    "name": "_index",
                    "type": "uint256"
                }
            ],
            "name": "cancelEvent",
            "outputs": [],
            "stateMutability": "nonpayable",
            "type": "function"
        },
        {
            "inputs": [
                {
                    "internalType": "uint256",
                    "name": "",
                    "type": "uint256"
                }
            ],
            "name": "celoFundsHeld",
            "outputs": [
                {
                    "internalType": "uint256",
                    "name": "",
                    "type": "uint256"
                }
            ],
            "stateMutability": "view",
            "type": "function"
        },
        {
            "inputs": [
                {
                    "internalType": "string",
                    "name": "_eventName",
                    "type": "string"
                },
                {
                    "internalType": "string",
                    "name": "_eventCardImgUrl",
                    "type": "string"
                },
                {
                    "internalType": "string",
                    "name": "_eventDetails",
                    "type": "string"
                },
                {
                    "internalType": "uint64",
                    "name": "_startDate",
                    "type": "uint64"
                },
                {
                    "internalType": "uint64",
                    "name": "_endDate",
                    "type": "uint64"
                },
                {
                    "internalType": "uint64",
                    "name": "_startTime",
                    "type": "uint64"
                },
                {
                    "internalType": "uint64",
                    "name": "_endTime",
                    "type": "uint64"
                },
                {
                    "internalType": "string",
                    "name": "_eventLocation",
                    "type": "string"
                },
                {
                    "internalType": "uint256",
                    "name": "_ticketPrice",
                    "type": "uint256"
                },
                {
                    "internalType": "uint256",
                    "name": "_minimumAge",
                    "type": "uint256"
                },
                {
                    "internalType": "address",
                    "name": "_paymentToken",
                    "type": "address"
                }
            ],
            "name": "createEvent",
            "outputs": [],
            "stateMutability": "nonpayable",
            "type": "function"
        },
        {
            "inputs": [
                {
                    "internalType": "uint256",
                    "name": "",
                    "type": "uint256"
                }
            ],
            "name": "events",
            "outputs": [
                {
                    "internalType": "address",
                    "name": "owner",
                    "type": "address"
                },
                {
                    "internalType": "string",
                    "name": "eventName",
                    "type": "string"
                },
                {
                    "internalType": "string",
                    "name": "eventCardImgUrl",
                    "type": "string"
                },
                {
                    "internalType": "string",
                    "name": "eventDetails",
                    "type": "string"
                },
                {
                    "internalType": "uint64",
                    "name": "startDate",
                    "type": "uint64"
                },
                {
                    "internalType": "uint64",
                    "name": "endDate",
                    "type": "uint64"
                },
                {
                    "internalType": "uint64",
                    "name": "startTime",
                    "type": "uint64"
                },
                {
                    "internalType": "uint64",
                    "name": "endTime",
                    "type": "uint64"
                },
                {
                    "internalType": "string",
                    "name": "eventLocation",
                    "type": "string"
                },
                {
                    "internalType": "bool",
                    "name": "isActive",
                    "type": "bool"
                },
                {
                    "internalType": "uint256",
                    "name": "ticketPrice",
                    "type": "uint256"
                },
                {
                    "internalType": "uint256",
                    "name": "fundsHeld",
                    "type": "uint256"
                },
                {
                    "internalType": "uint256",
                    "name": "minimumAge",
                    "type": "uint256"
                },
                {
                    "internalType": "bool",
                    "name": "isCanceled",
                    "type": "bool"
                },
                {
                    "internalType": "bool",
                    "name": "fundsReleased",
                    "type": "bool"
                },
                {
                    "internalType": "address",
                    "name": "paymentToken",
                    "type": "address"
                }
            ],
            "stateMutability": "view",
            "type": "function"
        },
        {
            "inputs": [],
            "name": "getActiveEventsByCreator",
            "outputs": [
                {
                    "internalType": "uint256[]",
                    "name": "",
                    "type": "uint256[]"
                },
                {
                    "components": [
                        {
                            "internalType": "address",
                            "name": "owner",
                            "type": "address"
                        },
                        {
                            "internalType": "string",
                            "name": "eventName",
                            "type": "string"
                        },
                        {
                            "internalType": "string",
                            "name": "eventCardImgUrl",
                            "type": "string"
                        },
                        {
                            "internalType": "string",
                            "name": "eventDetails",
                            "type": "string"
                        },
                        {
                            "internalType": "uint64",
                            "name": "startDate",
                            "type": "uint64"
                        },
                        {
                            "internalType": "uint64",
                            "name": "endDate",
                            "type": "uint64"
                        },
                        {
                            "internalType": "uint64",
                            "name": "startTime",
                            "type": "uint64"
                        },
                        {
                            "internalType": "uint64",
                            "name": "endTime",
                            "type": "uint64"
                        },
                        {
                            "internalType": "string",
                            "name": "eventLocation",
                            "type": "string"
                        },
                        {
                            "internalType": "bool",
                            "name": "isActive",
                            "type": "bool"
                        },
                        {
                            "internalType": "uint256",
                            "name": "ticketPrice",
                            "type": "uint256"
                        },
                        {
                            "internalType": "uint256",
                            "name": "fundsHeld",
                            "type": "uint256"
                        },
                        {
                            "internalType": "uint256",
                            "name": "minimumAge",
                            "type": "uint256"
                        },
                        {
                            "internalType": "bool",
                            "name": "isCanceled",
                            "type": "bool"
                        },
                        {
                            "internalType": "bool",
                            "name": "fundsReleased",
                            "type": "bool"
                        },
                        {
                            "internalType": "address",
                            "name": "paymentToken",
                            "type": "address"
                        }
                    ],
                    "internalType": "struct EventChain.Event[]",
                    "name": "",
                    "type": "tuple[]"
                }
            ],
            "stateMutability": "view",
            "type": "function"
        },
        {
            "inputs": [],
            "name": "getAllEvents",
            "outputs": [
                {
                    "internalType": "uint256[]",
                    "name": "",
                    "type": "uint256[]"
                },
                {
                    "components": [
                        {
                            "internalType": "address",
                            "name": "owner",
                            "type": "address"
                        },
                        {
                            "internalType": "string",
                            "name": "eventName",
                            "type": "string"
                        },
                        {
                            "internalType": "string",
                            "name": "eventCardImgUrl",
                            "type": "string"
                        },
                        {
                            "internalType": "string",
                            "name": "eventDetails",
                            "type": "string"
                        },
                        {
                            "internalType": "uint64",
                            "name": "startDate",
                            "type": "uint64"
                        },
                        {
                            "internalType": "uint64",
                            "name": "endDate",
                            "type": "uint64"
                        },
                        {
                            "internalType": "uint64",
                            "name": "startTime",
                            "type": "uint64"
                        },
                        {
                            "internalType": "uint64",
                            "name": "endTime",
                            "type": "uint64"
                        },
                        {
                            "internalType": "string",
                            "name": "eventLocation",
                            "type": "string"
                        },
                        {
                            "internalType": "bool",
                            "name": "isActive",
                            "type": "bool"
                        },
                        {
                            "internalType": "uint256",
                            "name": "ticketPrice",
                            "type": "uint256"
                        },
                        {
                            "internalType": "uint256",
                            "name": "fundsHeld",
                            "type": "uint256"
                        },
                        {
                            "internalType": "uint256",
                            "name": "minimumAge",
                            "type": "uint256"
                        },
                        {
                            "internalType": "bool",
                            "name": "isCanceled",
                            "type": "bool"
                        },
                        {
                            "internalType": "bool",
                            "name": "fundsReleased",
                            "type": "bool"
                        },
                        {
                            "internalType": "address",
                            "name": "paymentToken",
                            "type": "address"
                        }
                    ],
                    "internalType": "struct EventChain.Event[]",
                    "name": "",
                    "type": "tuple[]"
                }
            ],
            "stateMutability": "view",
            "type": "function"
        },
        {
            "inputs": [
                {
                    "internalType": "uint256",
                    "name": "_index",
                    "type": "uint256"
                }
            ],
            "name": "getAttendees",
            "outputs": [
                {
                    "internalType": "address[]",
                    "name": "",
                    "type": "address[]"
                }
            ],
            "stateMutability": "view",
            "type": "function"
        },
        {
            "inputs": [
                {
                    "internalType": "uint256",
                    "name": "_index",
                    "type": "uint256"
                }
            ],
            "name": "getEventById",
            "outputs": [
                {
                    "components": [
                        {
                            "internalType": "address",
                            "name": "owner",
                            "type": "address"
                        },
                        {
                            "internalType": "string",
                            "name": "eventName",
                            "type": "string"
                        },
                        {
                            "internalType": "string",
                            "name": "eventCardImgUrl",
                            "type": "string"
                        },
                        {
                            "internalType": "string",
                            "name": "eventDetails",
                            "type": "string"
                        },
                        {
                            "internalType": "uint64",
                            "name": "startDate",
                            "type": "uint64"
                        },
                        {
                            "internalType": "uint64",
                            "name": "endDate",
                            "type": "uint64"
                        },
                        {
                            "internalType": "uint64",
                            "name": "startTime",
                            "type": "uint64"
                        },
                        {
                            "internalType": "uint64",
                            "name": "endTime",
                            "type": "uint64"
                        },
                        {
                            "internalType": "string",
                            "name": "eventLocation",
                            "type": "string"
                        },
                        {
                            "internalType": "bool",
                            "name": "isActive",
                            "type": "bool"
                        },
                        {
                            "internalType": "uint256",
                            "name": "ticketPrice",
                            "type": "uint256"
                        },
                        {
                            "internalType": "uint256",
                            "name": "fundsHeld",
                            "type": "uint256"
                        },
                        {
                            "internalType": "uint256",
                            "name": "minimumAge",
                            "type": "uint256"
                        },
                        {
                            "internalType": "bool",
                            "name": "isCanceled",
                            "type": "bool"
                        },
                        {
                            "internalType": "bool",
                            "name": "fundsReleased",
                            "type": "bool"
                        },
                        {
                            "internalType": "address",
                            "name": "paymentToken",
                            "type": "address"
                        }
                    ],
                    "internalType": "struct EventChain.Event",
                    "name": "",
                    "type": "tuple"
                },
                {
                    "internalType": "address[]",
                    "name": "",
                    "type": "address[]"
                },
                {
                    "components": [
                        {
                            "internalType": "address",
                            "name": "owner",
                            "type": "address"
                        },
                        {
                            "internalType": "string",
                            "name": "eventName",
                            "type": "string"
                        },
                        {
                            "internalType": "string",
                            "name": "eventCardImgUrl",
                            "type": "string"
                        },
                        {
                            "internalType": "string",
                            "name": "eventDetails",
                            "type": "string"
                        },
                        {
                            "internalType": "uint64",
                            "name": "startDate",
                            "type": "uint64"
                        },
                        {
                            "internalType": "uint64",
                            "name": "endDate",
                            "type": "uint64"
                        },
                        {
                            "internalType": "uint64",
                            "name": "startTime",
                            "type": "uint64"
                        },
                        {
                            "internalType": "uint64",
                            "name": "endTime",
                            "type": "uint64"
                        },
                        {
                            "internalType": "string",
                            "name": "eventLocation",
                            "type": "string"
                        },
                        {
                            "internalType": "bool",
                            "name": "isActive",
                            "type": "bool"
                        },
                        {
                            "internalType": "uint256",
                            "name": "ticketPrice",
                            "type": "uint256"
                        },
                        {
                            "internalType": "uint256",
                            "name": "fundsHeld",
                            "type": "uint256"
                        },
                        {
                            "internalType": "uint256",
                            "name": "minimumAge",
                            "type": "uint256"
                        },
                        {
                            "internalType": "bool",
                            "name": "isCanceled",
                            "type": "bool"
                        },
                        {
                            "internalType": "bool",
                            "name": "fundsReleased",
                            "type": "bool"
                        },
                        {
                            "internalType": "address",
                            "name": "paymentToken",
                            "type": "address"
                        }
                    ],
                    "internalType": "struct EventChain.Event[]",
                    "name": "",
                    "type": "tuple[]"
                }
            ],
            "stateMutability": "view",
            "type": "function"
        },
        {
            "inputs": [],
            "name": "getEventLength",
            "outputs": [
                {
                    "internalType": "uint256",
                    "name": "",
                    "type": "uint256"
                }
            ],
            "stateMutability": "view",
            "type": "function"
        },
        {
            "inputs": [
                {
                    "internalType": "address",
                    "name": "_creator",
                    "type": "address"
                }
            ],
            "name": "getEventsByCreator",
            "outputs": [
                {
                    "components": [
                        {
                            "internalType": "address",
                            "name": "owner",
                            "type": "address"
                        },
                        {
                            "internalType": "string",
                            "name": "eventName",
                            "type": "string"
                        },
                        {
                            "internalType": "string",
                            "name": "eventCardImgUrl",
                            "type": "string"
                        },
                        {
                            "internalType": "string",
                            "name": "eventDetails",
                            "type": "string"
                        },
                        {
                            "internalType": "uint64",
                            "name": "startDate",
                            "type": "uint64"
                        },
                        {
                            "internalType": "uint64",
                            "name": "endDate",
                            "type": "uint64"
                        },
                        {
                            "internalType": "uint64",
                            "name": "startTime",
                            "type": "uint64"
                        },
                        {
                            "internalType": "uint64",
                            "name": "endTime",
                            "type": "uint64"
                        },
                        {
                            "internalType": "string",
                            "name": "eventLocation",
                            "type": "string"
                        },
                        {
                            "internalType": "bool",
                            "name": "isActive",
                            "type": "bool"
                        },
                        {
                            "internalType": "uint256",
                            "name": "ticketPrice",
                            "type": "uint256"
                        },
                        {
                            "internalType": "uint256",
                            "name": "fundsHeld",
                            "type": "uint256"
                        },
                        {
                            "internalType": "uint256",
                            "name": "minimumAge",
                            "type": "uint256"
                        },
                        {
                            "internalType": "bool",
                            "name": "isCanceled",
                            "type": "bool"
                        },
                        {
                            "internalType": "bool",
                            "name": "fundsReleased",
                            "type": "bool"
                        },
                        {
                            "internalType": "address",
                            "name": "paymentToken",
                            "type": "address"
                        }
                    ],
                    "internalType": "struct EventChain.Event[]",
                    "name": "",
                    "type": "tuple[]"
                }
            ],
            "stateMutability": "view",
            "type": "function"
        },
        {
            "inputs": [],
            "name": "getUserEvents",
            "outputs": [
                {
                    "internalType": "uint256[]",
                    "name": "",
                    "type": "uint256[]"
                },
                {
                    "components": [
                        {
                            "internalType": "address",
                            "name": "owner",
                            "type": "address"
                        },
                        {
                            "internalType": "string",
                            "name": "eventName",
                            "type": "string"
                        },
                        {
                            "internalType": "string",
                            "name": "eventCardImgUrl",
                            "type": "string"
                        },
                        {
                            "internalType": "string",
                            "name": "eventDetails",
                            "type": "string"
                        },
                        {
                            "internalType": "uint64",
                            "name": "startDate",
                            "type": "uint64"
                        },
                        {
                            "internalType": "uint64",
                            "name": "endDate",
                            "type": "uint64"
                        },
                        {
                            "internalType": "uint64",
                            "name": "startTime",
                            "type": "uint64"
                        },
                        {
                            "internalType": "uint64",
                            "name": "endTime",
                            "type": "uint64"
                        },
                        {
                            "internalType": "string",
                            "name": "eventLocation",
                            "type": "string"
                        },
                        {
                            "internalType": "bool",
                            "name": "isActive",
                            "type": "bool"
                        },
                        {
                            "internalType": "uint256",
                            "name": "ticketPrice",
                            "type": "uint256"
                        },
                        {
                            "internalType": "uint256",
                            "name": "fundsHeld",
                            "type": "uint256"
                        },
                        {
                            "internalType": "uint256",
                            "name": "minimumAge",
                            "type": "uint256"
                        },
                        {
                            "internalType": "bool",
                            "name": "isCanceled",
                            "type": "bool"
                        },
                        {
                            "internalType": "bool",
                            "name": "fundsReleased",
                            "type": "bool"
                        },
                        {
                            "internalType": "address",
                            "name": "paymentToken",
                            "type": "address"
                        }
                    ],
                    "internalType": "struct EventChain.Event[]",
                    "name": "",
                    "type": "tuple[]"
                }
            ],
            "stateMutability": "view",
            "type": "function"
        },
        {
            "inputs": [
                {
                    "internalType": "uint256",
                    "name": "",
                    "type": "uint256"
                },
                {
                    "internalType": "address",
                    "name": "",
                    "type": "address"
                }
            ],
            "name": "hasPurchasedTicket",
            "outputs": [
                {
                    "internalType": "bool",
                    "name": "",
                    "type": "bool"
                }
            ],
            "stateMutability": "view",
            "type": "function"
        },
        {
            "inputs": [
                {
                    "internalType": "address",
                    "name": "from",
                    "type": "address"
                },
                {
                    "internalType": "uint256",
                    "name": "value",
                    "type": "uint256"
                },
                {
                    "internalType": "bytes",
                    "name": "data",
                    "type": "bytes"
                }
            ],
            "name": "onTokenTransfer",
            "outputs": [
                {
                    "internalType": "bool",
                    "name": "",
                    "type": "bool"
                }
            ],
            "stateMutability": "nonpayable",
            "type": "function"
        },
        {
            "inputs": [],
            "name": "paused",
            "outputs": [
                {
                    "internalType": "bool",
                    "name": "",
                    "type": "bool"
                }
            ],
            "stateMutability": "view",
            "type": "function"
        },
        {
            "inputs": [
                {
                    "internalType": "uint256",
                    "name": "_index",
                    "type": "uint256"
                }
            ],
            "name": "releaseFunds",
            "outputs": [],
            "stateMutability": "nonpayable",
            "type": "function"
        },
        {
            "inputs": [
                {
                    "internalType": "uint256",
                    "name": "_index",
                    "type": "uint256"
                }
            ],
            "name": "releaseFunds1",
            "outputs": [],
            "stateMutability": "nonpayable",
            "type": "function"
        },
        {
            "inputs": [
                {
                    "internalType": "uint256",
                    "name": "_index",
                    "type": "uint256"
                }
            ],
            "name": "requestRefund",
            "outputs": [],
            "stateMutability": "nonpayable",
            "type": "function"
        },
        {
            "inputs": [
                {
                    "internalType": "uint256",
                    "name": "_index",
                    "type": "uint256"
                }
            ],
            "name": "requestRefund1",
            "outputs": [],
            "stateMutability": "nonpayable",
            "type": "function"
        },
        {
            "inputs": [
                {
                    "internalType": "address",
                    "name": "",
                    "type": "address"
                }
            ],
            "name": "supportedTokens",
            "outputs": [
                {
                    "internalType": "bool",
                    "name": "",
                    "type": "bool"
                }
            ],
            "stateMutability": "view",
            "type": "function"
        },
        {
            "inputs": [],
            "name": "ubiPool",
            "outputs": [
                {
                    "internalType": "address",
                    "name": "",
                    "type": "address"
                }
            ],
            "stateMutability": "view",
            "type": "function"
        },
        {
            "stateMutability": "payable",
            "type": "receive"
        }
    ],
    "bytecode": "0x60806040523461016857613a3a8038038061001981610183565b928339810190602081830312610168578051906001600160401b038211610168570181601f82011215610168578051916001600160401b03831161016d578260051b9160208061006a818601610183565b80968152019382010191821161016857602001915b818310610148576001600081815560028054610100600160a81b0319167443d72ff17701b2da814620735c39c620ce0ea4a10017905580805260208290527fa6eef7e35abe7026729641147f7915573c7e97b47efa546f5f6e3230263bcb49805460ff191690921790915584905b815181101561013957600581901b820160200151600191906001600160a01b031660008161011e575b5050016100ed565b604091815283602052208260ff198254161790558380610116565b60405161389190816101a98239f35b82516001600160a01b03811681036101685781526020928301920161007f565b600080fd5b634e487b7160e01b600052604160045260246000fd5b6040519190601f01601f191682016001600160401b0381118382101761016d5760405256fe6080604052600436101561001b575b361561001957600080fd5b005b60003560e01c80630b79143014612a4d5780630ec7c3ff146127fc5780630f977561146127075780631ac78969146126ea578063200205811461269c5780633f69babd146125b2578063439fd35f1461255a5780634d06755f1461252e5780634d68282f1461234357806350d9c62d146123265780635c975abb146123035780635c98dfa1146122e5578063617148e5146122c857806367dd74ca14611ef657806368c4ac2614611eb75780637b426cbf14611e9a5780638607498514611e7e578063a06f7da714611e51578063a4b2409e14611b07578063a4c0ed36146117b0578063abf45ec814611794578063b5e412871461176f578063b98079bc1461167d578063c27a500d146115c9578063cb71146e146115ad578063ccfd6d3c14611481578063d166360c14611251578063e0c1437714611200578063f57c7ad81461018b5763f60e673e0361000e573461018657600036600319011261018657602060405160008152f35b600080fd5b3461018657610160366003190112610186576004356001600160401b038111610186576101bc903690600401612f3c565b906024356001600160401b038111610186576101dc903690600401612f3c565b906044356001600160401b038111610186576101fc903690600401612f3c565b906064356001600160401b038116809103610186576084356001600160401b0381168091036101865760a4356001600160401b0381168091036101865760c435916001600160401b0383168093036101865760e4356001600160401b0381116101865761026d903690600401612f3c565b9490956101043597610144359960018060a01b038b16809b036101865761029960ff6002541615613024565b8d15158e816111f4575b50156111c0578b1515806111b5575b156111825781151580611176575b1561113f5787151580611134575b156110fc57891515806110e8575b156110b35742841061106e57610e10840180851161097e578510611034578a600052600160205260ff6040600020541615610ffb578c9b8e6040519d8e9161032383612c3f565b338352369061033192613712565b9060200152369061034192613712565b60408c0152369061035192613712565b60608a0152608089015260a088015260c087015260e0860152369061037592613712565b610100840152600161012084015261014083015260006101608301819052610124356101808401526101a083018190526101c08301526101e0820152600354600160401b811015610a55578060016103d292016003556003612be9565b610cb457815181546001600160a01b0319166001600160a01b039190911617815560208201518051906001600160401b038211610a555781906104186001850154612c05565b601f8111610fa8575b50602090601f8311600114610f3757600092610f2c575b50508160011b916000199060031b1c19161760018201555b60408201518051906001600160401b038211610a555781906104756002850154612c05565b601f8111610ed9575b50602090601f8311600114610e6857600092610e5d575b50508160011b916000199060031b1c19161760028201555b60608201518051906001600160401b038211610a555781906104d26003850154612c05565b601f8111610e0a575b50602090601f8311600114610d9957600092610d8e575b50508160011b916000199060031b1c19161760038201555b60808281015160a084015160c08086015160e087015160409390931b67ffffffffffffffff60401b166001600160401b0394851617941b67ffffffffffffffff60801b1693909317921b6001600160c01b0319169190911760048301556101008301518051918211610a55576105836005840154612c05565b601f8111610d47575b50602090601f8311600114610cd557600a93929160009183610cca575b50508160011b916000199060031b1c19161760058201555b6105e16101208401511515600683019060ff801983541691151516179055565b610140830151600782015561016083015160088201556101808301516009820155016106206101a08301511515829060ff801983541691151516179055565b6101c0820151815461ff00191690151560081b61ff00161781556101e0820151815462010000600160b01b03191660109190911b62010000600160b01b03161790553360009081526005602052604090208054600160401b811015610a555761068e91600182018155612be9565b610cb457815181546001600160a01b0319166001600160a01b03919091161781556020820151805160018301916001600160401b038211610a555781906106d58454612c05565b601f8111610c61575b50602090601f8311600114610bfc57600092610bf1575b50508160011b916000199060031b1c19161790555b6002810160408301518051906001600160401b038211610a555781906107308454612c05565b601f8111610b9e575b50602090601f8311600114610b3957600092610b2e575b50508160011b916000199060031b1c19161790555b6003810160608301518051906001600160401b038211610a5557819061078b8454612c05565b601f8111610adb575b50602090601f8311600114610a7657600092610a6b575b50508160011b916000199060031b1c19161790555b60808281015160a084015160c08086015160e087015160409390931b67ffffffffffffffff60401b166001600160401b0394851617941b67ffffffffffffffff60801b1693909317921b6001600160c01b031916919091176004830155610100830151805160058401929091908211610a555761083d8354612c05565b601f8111610a0d575b50602090601f831160011461099f579180600a94926101e09694600092610994575b50508160011b916000199060031b1c19161790555b61089d6101208501511515600683019060ff801983541691151516179055565b61014084015160078201556101608401516008820155610180840151600982015501916108dd6101a08201511515849060ff801983541691151516179055565b6101c0810151835461ff00191690151560081b61ff00161783550151815462010000600160b01b03191660109190911b62010000600160b01b031617905560035460001981019190821161097e577ffc695dea2478fb938a11068aeedddd7046a5fe655f136e30a325d353fe187a459083604051916020835281602084015260408301376000604085830101526040813395601f80199101168101030190a3005b634e487b7160e01b600052601160045260246000fd5b015190508980610868565b90601f1983169184600052816000209260005b8181106109f557509260019285926101e09896600a9896106109dc575b505050811b01905561087d565b015160001960f88460031b161c191690558980806109cf565b929360206001819287860151815501950193016109b2565b836000526020600020601f840160051c81019160208510610a4b575b601f0160051c01905b818110610a3f5750610846565b60008155600101610a32565b9091508190610a29565b634e487b7160e01b600052604160045260246000fd5b0151905087806107ab565b60008581528281209350601f198516905b818110610ac35750908460019594939210610aaa575b505050811b0190556107c0565b015160001960f88460031b161c19169055878080610a9d565b92936020600181928786015181550195019301610a87565b909150836000526020600020601f840160051c81019160208510610b24575b90601f859493920160051c01905b818110610b155750610794565b60008155849350600101610b08565b9091508190610afa565b015190508780610750565b60008581528281209350601f198516905b818110610b865750908460019594939210610b6d575b505050811b019055610765565b015160001960f88460031b161c19169055878080610b60565b92936020600181928786015181550195019301610b4a565b909150836000526020600020601f840160051c81019160208510610be7575b90601f859493920160051c01905b818110610bd85750610739565b60008155849350600101610bcb565b9091508190610bbd565b0151905087806106f5565b60008581528281209350601f198516905b818110610c495750908460019594939210610c30575b505050811b01905561070a565b015160001960f88460031b161c19169055878080610c23565b92936020600181928786015181550195019301610c0d565b909150836000526020600020601f840160051c81019160208510610caa575b90601f859493920160051c01905b818110610c9b57506106de565b60008155849350600101610c8e565b9091508190610c80565b634e487b7160e01b600052600060045260246000fd5b0151905087806105a9565b9060058401600052806000209160005b601f1985168110610d2f5750918391600193600a9695601f19811610610d16575b505050811b0160058201556105c1565b015160001960f88460031b161c19169055878080610d06565b91926020600181928685015181550194019201610ce5565b600584016000526020600020601f840160051c810160208510610d87575b601f830160051c82018110610d7b57505061058c565b60008155600101610d65565b5080610d65565b0151905086806104f2565b92506003840160005280600020906000935b601f1984168510610def576001945083601f19811610610dd6575b505050811b01600382015561050a565b015160001960f88460031b161c19169055868080610dc6565b81810151835560209485019460019093019290910190610dab565b909150600384016000526020600020601f840160051c810160208510610e56575b90849392915b601f830160051c82018110610e475750506104db565b60008155859450600101610e31565b5080610e2b565b015190508680610495565b92506002840160005280600020906000935b601f1984168510610ebe576001945083601f19811610610ea5575b505050811b0160028201556104ad565b015160001960f88460031b161c19169055868080610e95565b81810151835560209485019460019093019290910190610e7a565b909150600284016000526020600020601f840160051c810160208510610f25575b90849392915b601f830160051c82018110610f1657505061047e565b60008155859450600101610f00565b5080610efa565b015190508680610438565b92506001840160005280600020906000935b601f1984168510610f8d576001945083601f19811610610f74575b505050811b016001820155610450565b015160001960f88460031b161c19169055868080610f64565b81810151835560209485019460019093019290910190610f49565b909150600184016000526020600020601f840160051c810160208510610ff4575b90849392915b601f830160051c82018110610fe5575050610421565b60008155859450600101610fcf565b5080610fc9565b60405162461bcd60e51b81526020600482015260116024820152702ab739bab83837b93a32b2103a37b5b2b760791b6044820152606490fd5b60405162461bcd60e51b8152602060048201526012602482015271111d5c985d1a5bdb881d1bdbc81cda1bdc9d60721b6044820152606490fd5b60405162461bcd60e51b815260206004820152601960248201527f53746172742064617465206d75737420626520667574757265000000000000006044820152606490fd5b60405162461bcd60e51b815260206004820152600d60248201526c496e76616c696420707269636560981b6044820152606490fd5b5069d3c21bcecceda10000008a11156102dc565b60405162461bcd60e51b815260206004820152601060248201526f24b73b30b634b2103637b1b0ba34b7b760811b6044820152606490fd5b5060968811156102ce565b60405162461bcd60e51b815260206004820152600f60248201526e496e76616c69642064657461696c7360881b6044820152606490fd5b506103e88211156102c0565b60405162461bcd60e51b815260206004820152600b60248201526a125b9d985b1a590815549360aa1b6044820152606490fd5b5060c88c11156102b2565b60405162461bcd60e51b815260206004820152600c60248201526b496e76616c6964206e616d6560a01b6044820152606490fd5b6064915011158e6102a3565b34610186576020366003190112610186576004356112216003548210613407565b600052600460205261124d61123960406000206136be565b604051918291602083526020830190612f69565b0390f35b346101865760203660031901126101865760043561128361127182612bb4565b50546001600160a01b031633146133c9565b61128b613749565b6112986003548210613407565b6112bc6001600160401b0360046112ae84612bb4565b50015460401c164211613446565b60ff600a6112c983612bb4565b5001541661142a576112ee60ff600a6112e184612bb4565b50015460081c1615613492565b60086112f982612bb4565b5001546000600861130984612bb4565b500155600a61131783612bb4565b5001805461ff00191661010017905561132f82612bb4565b50600a015460405163a9059cbb60e01b81523360048201526024810183905290602090829060101c6001600160a01b0316816000816044810103925af190811561141e576000916113ef575b50156113b35760207f80230996023d69b50793fa73f1919127c9d8e741d3989743c479169f22e7a28891604051908152a26001600055005b60405162461bcd60e51b8152602060048201526014602482015273119d5b99081d1c985b9cd9995c8819985a5b195960621b6044820152606490fd5b611411915060203d602011611417575b6114098183612c5b565b810190613628565b8361137b565b503d6113ff565b6040513d6000823e3d90fd5b60405162461bcd60e51b815260206004820152602960248201527f43616e6e6f742072656c656173652066756e647320666f7220612063616e63656044820152681b195908195d995b9d60ba1b6064820152608490fd5b34610186576000366003190112610186576003546000805b82811061155957506114b36114ad8261315a565b91613204565b916000805b8281106114d15750505061124d60405192839283612ed3565b6114da81612bb4565b50546001600160a01b0316331480611542575b6114fa575b6001016114b8565b9061153a818361150c60019488613254565b5261151f61151985612bb4565b50613268565b6115298289613254565b526115348188613254565b50613134565b9190506114f2565b5060ff600661155083612bb4565b500154166114ed565b61156281612bb4565b50546001600160a01b0316331480611596575b611582575b600101611499565b9061158e600191613134565b91905061157a565b5060ff60066115a483612bb4565b50015416611575565b3461018657600036600319011261018657602060405160c88152f35b34610186576000366003190112610186576003546000805b82811061164b57506115f56114ad8261315a565b916000805b8281106116135750505061124d60405192839283612ed3565b60ff600661162083612bb4565b50015416611631575b6001016115fa565b90611643818361150c60019488613254565b919050611629565b60ff600661165883612bb4565b50015416611669575b6001016115e1565b90611675600191613134565b919050611661565b346101865760203660031901126101865760043561169961318c565b50600354811015611733578061124d6116b461171793612bb4565b508260005260046020526116cc604060002093612bb4565b5060018060a01b0390541660005260056020526117256117026116fc6116f6604060002094613268565b956136be565b92613370565b91604051958695606087526060870190612d61565b908582036020870152612f69565b908382036040850152612e7a565b60405162461bcd60e51b8152602060048201526014602482015273115d995b9d08191bd95cc81b9bdd08195e1a5cdd60621b6044820152606490fd5b3461018657600036600319011261018657602060405169d3c21bcecceda10000008152f35b3461018657600036600319011261018657602060405160968152f35b34610186576060366003190112610186576117c9612f26565b602435906044356001600160401b038111610186576117ec903690600401612f3c565b7362b8b11039fcfe5ab0c56e502b1c372a3d2a9c7a3303611ad25760201161018657359061181d6003548310612fa6565b61183b61182983612bb4565b50546001600160a01b03161515612fe2565b61184a60ff6002541615613024565b61185382612bb4565b5090600a82017362b8b11039fcfe5ab0c56e502b1c372a3d2a9c7a60018060a01b03825460101c1603611a99576118986001600160401b036004850154164210613522565b6118a860ff60068501541661355e565b836000526006602052604060002060018060a01b0383166000526020526118d760ff604060002054161561359b565b8360005260046020526118f2611388604060002054106135db565b60078301548503611a6157836000526006602052604060002060018060a01b0383166000526020526040600020600160ff19825416179055836000526004602052611941826040600020613658565b606485028581046064148615171561097e57612710900461196281876130e5565b9080151580611a4a575b6119be575b50611990600860008051602061383c833981519152950191825461361b565b905554604080519586526001600160a01b0360109290921c82166020870152911693a3602060405160018152f35b825460025460405163a9059cbb60e01b81526001600160a01b0360089290921c8216600482015260248101939093526020918391604491839160009160101c165af1801561141e5760008051602061383c8339815191529561199092600892611a2b575b50955050611971565b611a439060203d602011611417576114098183612c5b565b5089611a22565b5060025460081c6001600160a01b0316151561196c565b60405162461bcd60e51b815260206004820152601060248201526f125b98dbdc9c9958dd08185b5bdd5b9d60821b6044820152606490fd5b60405162461bcd60e51b815260206004820152601160248201527027b7363c903337b9102392103a37b5b2b760791b6044820152606490fd5b60405162461bcd60e51b815260206004820152600d60248201526c27b7363c902392103a37b5b2b760991b6044820152606490fd5b3461018657602036600319011261018657600435611b23613749565b611b306003548210612fa6565b611b3c61182982612bb4565b611b4b60ff6002541615613024565b6000818152600660209081526040808320338452909152902054611b719060ff16613062565b6007611b7c82612bb4565b50015490611b8981612bb4565b50600a015460101c6001600160a01b03167362b8b11039fcfe5ab0c56e502b1c372a3d2a9c7a8114611e33575b8015838115611e1457508260005260076020528360406000205410611dcf5783905b60ff600a611be586612bb4565b5001541615611d97575b60008481526006602090815260408083203384529091529020805460ff1916905515611d6d5750508060005260076020526040600020611c308382546130e5565b9055600080808085335af1611c436134f2565b5015611d33575b80600052600460205260406000209060005b825480821015611d2a57611c708285613640565b905460039190911b1c6001600160a01b03163314611c915750600101611c5c565b91929091600019810190811161097e57611cf792611cce611cb5611cf29385613640565b905460039190911b1c6001600160a01b03169184613640565b81546001600160a01b0393841660039290921b91821b9390911b1916919091179055565b61367b565b6040519182527f7a482fdeb6bc9a1376f597068a214a7a39472bb2eff1b8cad21ba04f49ddca1b60203393a36001600055005b50509050611cf7565b60405162461bcd60e51b815260206004820152601260248201527110d15313c81c99599d5b990819985a5b195960721b6044820152606490fd5b611d92916008611d7c85612bb4565b5001611d898382546130e5565b9055339061376b565b611c4a565b90506001600160401b036004611dac85612bb4565b500154169061464f19820191821161097e57611dca859242106130f2565b611bef565b60405162461bcd60e51b815260206004820152601760248201527f496e73756666696369656e742043454c4f2066756e64730000000000000000006044820152606490fd5b90611e2e826008611e2487612bb4565b50015410156130a4565b611bd8565b9160638102908082046063149015171561097e576064900491611bb6565b346101865760003660031901126101865760025460405160089190911c6001600160a01b03168152602090f35b3461018657600036600319011261018657602060405160648152f35b346101865760003660031901126101865760206040516146508152f35b34610186576020366003190112610186576001600160a01b03611ed8612f26565b166000526001602052602060ff604060002054166040519015158152f35b602036600319011261018657600435611f0d613749565b611f1a6003548210612fa6565b611f2661182982612bb4565b611f3560ff6002541615613024565b611f3e81612bb4565b5090611f586001600160401b036004840154164210613522565b611f6860ff60068401541661355e565b6000818152600660209081526040808320338452909152902054611f8f9060ff161561359b565b806000526004602052611faa611388604060002054106135db565b6007820154600a8301805491939160101c6001600160a01b0316806120b3575090508234036120765761206c60008051602061383c833981519152918360005260076020526040600020611fff86825461361b565b90555b836000526006602052604060002060018060a01b0333166000526020526040600020600160ff19825416179055836000526004602052612046336040600020613658565b546040805195865260109190911c6001600160a01b031660208601523394918291820190565b0390a36001600055005b60405162461bcd60e51b8152602060048201526015602482015274125b98dbdc9c9958dd0810d15313c8185b5bdd5b9d605a1b6044820152606490fd5b7362b8b11039fcfe5ab0c56e502b1c372a3d2a9c7a8103612197575090600091602061213260405186838201528281526120ee604082612c5b565b8354604051630200057560e51b8152306004820152602481018a90526060604482015296879360109290921c6001600160a01b031692849283916064830190612d20565b03925af191821561141e5760008051602061383c8339815191529361206c9361217a575b50612173600861216960648904896130e5565b920191825461361b565b9055612002565b6121929060203d602011611417576114098183612c5b565b612156565b90604051636eb1769f60e11b8152336004820152306024820152602081604481865afa801561141e578691600091612293575b50106122555760206000926064604051809581936323b872dd60e01b83523360048401523060248401528a60448401525af1801561141e5760008051602061383c8339815191529361222a60089261206c95600091612236575b506137fd565b0161217386825461361b565b61224f915060203d602011611417576114098183612c5b565b89612224565b60405162461bcd60e51b8152602060048201526016602482015275496e73756666696369656e7420616c6c6f77616e636560501b6044820152606490fd5b9150506020813d6020116122c0575b816122af60209383612c5b565b8101031261018657859051876121ca565b3d91506122a2565b346101865760003660031901126101865760206040516113888152f35b34610186576000366003190112610186576020600354604051908152f35b3461018657600036600319011261018657602060ff600254166040519015158152f35b346101865760003660031901126101865760206040516103e88152f35b346101865760203660031901126101865760043561236361127182612bb4565b61236b613749565b6123786003548210613407565b61238e6001600160401b0360046112ae84612bb4565b60ff600a61239b83612bb4565b500154166124d9576123b360ff600a6112e184612bb4565b6123bc81612bb4565b50600a015460101c6001600160a01b031680612486575060008181526007602052604081208054908290559080808084335af16123f76134f2565b501561244a5760207f80230996023d69b50793fa73f1919127c9d8e741d3989743c479169f22e7a288915b600a61242d85612bb4565b5001805461ff001916610100179055604051908152a26001600055005b60405162461bcd60e51b815260206004820152601460248201527310d15313c81d1c985b9cd9995c8819985a5b195960621b6044820152606490fd5b60207f80230996023d69b50793fa73f1919127c9d8e741d3989743c479169f22e7a288916124d460086124b886612bb4565b5001548092600060086124ca89612bb4565b500155339061376b565b612422565b60405162461bcd60e51b815260206004820152602760248201527f43616e6e6f742072656c656173652066756e647320666f722063616e63656c656044820152661908195d995b9d60ca1b6064820152608490fd5b346101865760203660031901126101865760043560005260076020526020604060002054604051908152f35b34610186576040366003190112610186576024356001600160a01b038116810361018657600435600052600660205260406000209060018060a01b0316600052602052602060ff604060002054166040519015158152f35b34610186576020366003190112610186576004356125d261127182612bb4565b6125df6003548210612fa6565b6125eb61182982612bb4565b6125fa60ff6002541615613024565b60ff600661260783612bb4565b500154161561266457600661261b82612bb4565b5001805460ff19169055600a61263082612bb4565b5001805460ff191660011790557fceaf11772900fe569752a0207c8639fb8228eb8663456dc9eaa3a08f927a8705600080a2005b60405162461bcd60e51b815260206004820152601060248201526f105b1c9958591e4818d85b98d95b195960821b6044820152606490fd5b34610186576020366003190112610186576001600160a01b036126bd612f26565b16600052600560205261124d6126d66040600020613370565b604051918291602083526020830190612e7a565b34610186576000366003190112610186576020604051610e108152f35b34610186576000366003190112610186576003543390600090815b8181106127be575061273c6127368361315a565b92613204565b92600090815b838110612758576040518061124d888883612ed3565b80600052600660205260ff604080600020600090858252602052205416612782575b600101612742565b916127b6818461279460019489613254565b526127a161151986612bb4565b6127ab828a613254565b526115348189613254565b92905061277a565b80600052600660205260ff6040806000206000908782526020522054166127e8575b600101612722565b916127f4600191613134565b9290506127e0565b3461018657602036600319011261018657600435612818613749565b6128256003548210612fa6565b61283161182982612bb4565b61284060ff6002541615613024565b60008181526006602090815260408083203384529091529020546128669060ff16613062565b600761287182612bb4565b500154907362b8b11039fcfe5ab0c56e502b1c372a3d2a9c7a61289382612bb4565b50600a015460101c6001600160a01b031614612a2f575b6128b9826008611e2484612bb4565b60ff600a6128c683612bb4565b50015416156129fb575b60008181526006602090815260408083203384529091529020805460ff1916905560086128fc82612bb4565b50016129098382546130e5565b905580600052600460205260406000209060005b8254808210156129f2576129318285613640565b905460039190911b1c6001600160a01b03163314612952575060010161291d565b91929091600019810190811161097e5761297692611cce611cb5611cf29385613640565b61297f81612bb4565b50600a015460405163a9059cbb60e01b81523360048201526024810184905290602090829060101c6001600160a01b0316816000816044810103925af1801561141e57611cf7916000916129d357506137fd565b6129ec915060203d602011611417576114098183612c5b565b84612224565b50509050612976565b6001600160401b036004612a0e83612bb4565b5001541661464f19810190811161097e57612a2a9042106130f2565b6128d0565b9060638102908082046063149015171561097e5760649004906128aa565b346101865760203660031901126101865760043560035481101561018657612a7490612bb4565b5080546001600160a01b0316612a8c60018301612c7c565b91612a9960028201612c7c565b612aa560038301612c7c565b60048301549290612ab860058301612c7c565b93600683015460ff1694600784015491600885015493600986015495600a0154966040519a8b9a8b5260208b0161020090526102008b01612af891612d20565b8a810360408c0152612b0991612d20565b89810360608b0152612b1a91612d20565b906001600160401b03811660808a01528060401c6001600160401b031660a08a01528060801c6001600160401b031660c08a015260c01c60e0890152878103610100890152612b6891612d20565b94151561012087015261014086015261016085015261018084015260ff81811615156101a0850152600882901c1615156101c084015260101c6001600160a01b03166101e08301520390f35b600354811015612bd3576003600052600b602060002091020190600090565b634e487b7160e01b600052603260045260246000fd5b8054821015612bd357600052600b602060002091020190600090565b90600182811c92168015612c35575b6020831014612c1f57565b634e487b7160e01b600052602260045260246000fd5b91607f1691612c14565b61020081019081106001600160401b03821117610a5557604052565b90601f801991011681019081106001600160401b03821117610a5557604052565b9060405191826000825492612c9084612c05565b8084529360018116908115612cfe5750600114612cb7575b50612cb592500383612c5b565b565b90506000929192526020600020906000915b818310612ce2575050906020612cb59282010138612ca8565b6020919350806001915483858901015201910190918492612cc9565b905060209250612cb594915060ff191682840152151560051b82010138612ca8565b919082519283825260005b848110612d4c575050826000602080949584010152601f8019910116010190565b80602080928401015182828601015201612d2b565b9060018060a01b0382511681526101e0612e19612db9612da7612d9560208701516102006020880152610200870190612d20565b60408701518682036040880152612d20565b60608601518582036060870152612d20565b6001600160401b0360808601511660808501526001600160401b0360a08601511660a08501526001600160401b0360c08601511660c08501526001600160401b0360e08601511660e0850152610100850151848203610100860152612d20565b9261012081015115156101208401526101408101516101408401526101608101516101608401526101808101516101808401526101a081015115156101a08401526101c081015115156101c08401528160018060a01b039101511691015290565b9080602083519182815201916020808360051b8301019401926000915b838310612ea657505050505090565b9091929394602080612ec4600193601f198682030187528951612d61565b97019301930191939290612e97565b9291604084019360408152825180955260206060820193016000955b808710612f0e575050612f0b9394506020818403910152612e7a565b90565b90936020806001928751815201950196019590612eef565b600435906001600160a01b038216820361018657565b9181601f84011215610186578235916001600160401b038311610186576020838186019501011161018657565b906020808351928381520192019060005b818110612f875750505090565b82516001600160a01b0316845260209384019390920191600101612f7a565b15612fad57565b60405162461bcd60e51b815260206004820152600d60248201526c125b9d985b1a5908195d995b9d609a1b6044820152606490fd5b15612fe957565b60405162461bcd60e51b8152602060048201526013602482015272115d995b9d08191bd95cdb89dd08195e1a5cdd606a1b6044820152606490fd5b1561302b57565b60405162461bcd60e51b815260206004820152600f60248201526e10dbdb9d1c9858dd081c185d5cd959608a1b6044820152606490fd5b1561306957565b60405162461bcd60e51b8152602060048201526013602482015272139bc81d1a58dad95d081c1d5c98da185cd959606a1b6044820152606490fd5b156130ab57565b60405162461bcd60e51b8152602060048201526012602482015271496e73756666696369656e742066756e647360701b6044820152606490fd5b9190820391821161097e57565b156130f957565b60405162461bcd60e51b81526020600482015260136024820152721499599d5b99081c195c9a5bd908195b991959606a1b6044820152606490fd5b600019811461097e5760010190565b6001600160401b038111610a555760051b60200190565b9061316482613143565b6131716040519182612c5b565b8281528092613182601f1991613143565b0190602036910137565b6040519061319982612c3f565b60006101e08382815260606020820152606060408201526060808201528260808201528260a08201528260c08201528260e0820152606061010082015282610120820152826101408201528261016082015282610180820152826101a0820152826101c08201520152565b9061320e82613143565b61321b6040519182612c5b565b828152809261322c601f1991613143565b019060005b82811061323d57505050565b60209061324861318c565b82828501015201613231565b8051821015612bd35760209160051b010190565b9060405161327581612c3f565b82546001600160a01b031681529182906101e090600a9061329860018201612c7c565b60208501526132a960028201612c7c565b60408501526132ba60038201612c7c565b606085015260048101546001600160401b03811660808601526001600160401b038160401c1660a08601526001600160401b038160801c1660c086015260c01c60e085015261330b60058201612c7c565b61010085015260ff6006820154161515610120850152600781015461014085015260088101546101608501526009810154610180850152015460ff811615156101a084015260ff8160081c1615156101c084015260018060a01b039060101c16910152565b90815461337c81613143565b9261338a6040519485612c5b565b818452602084019060005260206000206000915b8383106133ab5750505050565b600b60206001926133bb85613268565b81520192019201919061339e565b156133d057565b60405162461bcd60e51b815260206004820152600f60248201526e2737ba1032bb32b73a1037bbb732b960891b6044820152606490fd5b1561340e57565b60405162461bcd60e51b815260206004820152601060248201526f125b9d985b1a5908195d995b9d08125160821b6044820152606490fd5b1561344d57565b60405162461bcd60e51b815260206004820152601760248201527f4576656e7420686173206e6f7420656e646564207965740000000000000000006044820152606490fd5b1561349957565b60405162461bcd60e51b8152602060048201526016602482015275119d5b991cc8185b1c9958591e481c995b19585cd95960521b6044820152606490fd5b6001600160401b038111610a5557601f01601f191660200190565b3d1561351d573d90613503826134d7565b916135116040519384612c5b565b82523d6000602084013e565b606090565b1561352957565b60405162461bcd60e51b815260206004820152600d60248201526c115d995b9d08195e1c1a5c9959609a1b6044820152606490fd5b1561356557565b60405162461bcd60e51b815260206004820152600e60248201526d4576656e7420696e61637469766560901b6044820152606490fd5b156135a257565b60405162461bcd60e51b8152602060048201526011602482015270105b1c9958591e481c1d5c98da185cd959607a1b6044820152606490fd5b156135e257565b60405162461bcd60e51b81526020600482015260116024820152704576656e7420617420636170616369747960781b6044820152606490fd5b9190820180921161097e57565b90816020910312610186575180151581036101865790565b8054821015612bd35760005260206000200190600090565b90815491600160401b831015610a555782611cce916001612cb595018155613640565b805480156136a85760001901906136928282613640565b81549060018060a01b039060031b1b1916905555565b634e487b7160e01b600052603160045260246000fd5b906040519182815491828252602082019060005260206000209260005b8181106136f0575050612cb592500383612c5b565b84546001600160a01b03168352600194850194879450602090930192016136db565b92919261371e826134d7565b9161372c6040519384612c5b565b829481845281830111610186578281602093846000960137010152565b60026000541461375a576002600055565b633ee5aeb560e01b60005260046000fd5b60405163a9059cbb60e01b60208083019182526001600160a01b0394909416602483015260448083019590955293815290926000916137ab606482612c5b565b519082855af11561141e576000513d6137f457506001600160a01b0381163b155b6137d35750565b635274afe760e01b60009081526001600160a01b0391909116600452602490fd5b600114156137cc565b1561380457565b60405162461bcd60e51b815260206004820152600f60248201526e151c985b9cd9995c8819985a5b1959608a1b6044820152606490fdfe504ef6dabca28c1452704d54bd8e25708d87e0c27d852eceea53a0c0d8986758a2646970667358221220e067cbe03b099436600dd5410d31277fa258983e7f4b3f98d38fec4e55ebc86664736f6c634300081c0033",
    "linkReferences": {},
    "deployedLinkReferences": {}
}