{
  "_format": "hh-sol-artifact-1",
  "contractName": "EventChain",
  "sourceName": "contracts/EventChain.sol",
  "abi": [
    {
      "inputs": [
        {
          "internalType": "address[]",
          "name": "_supportedTokens",
          "type": "address[]"
        }
      ],
      "stateMutability": "nonpayable",
      "type": "constructor"
    },
    {
      "inputs": [],
      "name": "ReentrancyGuardReentrantCall",
      "type": "error"
    },
    {
      "anonymous": false,
      "inputs": [
        {
          "indexed": true,
          "internalType": "uint256",
          "name": "eventId",
          "type": "uint256"
        }
      ],
      "name": "EventCanceled",
      "type": "event"
    },
    {
      "anonymous": false,
      "inputs": [
        {
          "indexed": true,
          "internalType": "uint256",
          "name": "eventId",
          "type": "uint256"
        },
        {
          "indexed": true,
          "internalType": "address",
          "name": "owner",
          "type": "address"
        },
        {
          "indexed": false,
          "internalType": "string",
          "name": "eventName",
          "type": "string"
        }
      ],
      "name": "EventCreated",
      "type": "event"
    },
    {
      "anonymous": false,
      "inputs": [
        {
          "indexed": true,
          "internalType": "uint256",
          "name": "eventId",
          "type": "uint256"
        },
        {
          "indexed": true,
          "internalType": "address",
          "name": "owner",
          "type": "address"
        },
        {
          "indexed": false,
          "internalType": "string",
          "name": "eventName",
          "type": "string"
        }
      ],
      "name": "EventUpdated",
      "type": "event"
    },
    {
      "anonymous": false,
      "inputs": [
        {
          "indexed": true,
          "internalType": "uint256",
          "name": "eventId",
          "type": "uint256"
        },
        {
          "indexed": false,
          "internalType": "uint256",
          "name": "amount",
          "type": "uint256"
        }
      ],
      "name": "FundsReleased",
      "type": "event"
    },
    {
      "anonymous": false,
      "inputs": [
        {
          "indexed": true,
          "internalType": "uint256",
          "name": "eventId",
          "type": "uint256"
        },
        {
          "indexed": true,
          "internalType": "address",
          "name": "user",
          "type": "address"
        },
        {
          "indexed": false,
          "internalType": "uint256",
          "name": "amount",
          "type": "uint256"
        }
      ],
      "name": "RefundIssued",
      "type": "event"
    },
    {
      "anonymous": false,
      "inputs": [
        {
          "indexed": true,
          "internalType": "uint256",
          "name": "eventId",
          "type": "uint256"
        },
        {
          "indexed": true,
          "internalType": "address",
          "name": "buyer",
          "type": "address"
        },
        {
          "indexed": false,
          "internalType": "uint256",
          "name": "amount",
          "type": "uint256"
        },
        {
          "indexed": false,
          "internalType": "address",
          "name": "paymentToken",
          "type": "address"
        }
      ],
      "name": "TicketPurchased",
      "type": "event"
    },
    {
      "inputs": [],
      "name": "MAX_ATTENDEES",
      "outputs": [
        {
          "internalType": "uint256",
          "name": "",
          "type": "uint256"
        }
      ],
      "stateMutability": "view",
      "type": "function"
    },
    {
      "inputs": [],
      "name": "MAX_DETAILS_LENGTH",
      "outputs": [
        {
          "internalType": "uint256",
          "name": "",
          "type": "uint256"
        }
      ],
      "stateMutability": "view",
      "type": "function"
    },
    {
      "inputs": [],
      "name": "MAX_LOCATION_LENGTH",
      "outputs": [
        {
          "internalType": "uint256",
          "name": "",
          "type": "uint256"
        }
      ],
      "stateMutability": "view",
      "type": "function"
    },
    {
      "inputs": [],
      "name": "MAX_NAME_LENGTH",
      "outputs": [
        {
          "internalType": "uint256",
          "name": "",
          "type": "uint256"
        }
      ],
      "stateMutability": "view",
      "type": "function"
    },
    {
      "inputs": [],
      "name": "MAX_TICKET_PRICE",
      "outputs": [
        {
          "internalType": "uint256",
          "name": "",
          "type": "uint256"
        }
      ],
      "stateMutability": "view",
      "type": "function"
    },
    {
      "inputs": [],
      "name": "MAX_URL_LENGTH",
      "outputs": [
        {
          "internalType": "uint256",
          "name": "",
          "type": "uint256"
        }
      ],
      "stateMutability": "view",
      "type": "function"
    },
    {
      "inputs": [],
      "name": "MIN_EVENT_DURATION",
      "outputs": [
        {
          "internalType": "uint256",
          "name": "",
          "type": "uint256"
        }
      ],
      "stateMutability": "view",
      "type": "function"
    },
    {
      "inputs": [],
      "name": "REFUND_BUFFER",
      "outputs": [
        {
          "internalType": "uint256",
          "name": "",
          "type": "uint256"
        }
      ],
      "stateMutability": "view",
      "type": "function"
    },
    {
      "inputs": [
        {
          "internalType": "uint256",
          "name": "_index",
          "type": "uint256"
        }
      ],
      "name": "buyTicket",
      "outputs": [],
      "stateMutability": "nonpayable",
      "type": "function"
    },
    {
      "inputs": [
        {
          "internalType": "uint256",
          "name": "_index",
          "type": "uint256"
        }
      ],
      "name": "cancelEvent",
      "outputs": [],
      "stateMutability": "nonpayable",
      "type": "function"
    },
    {
      "inputs": [
        {
          "internalType": "string",
          "name": "_eventName",
          "type": "string"
        },
        {
          "internalType": "string",
          "name": "_eventCardImgUrl",
          "type": "string"
        },
        {
          "internalType": "string",
          "name": "_eventDetails",
          "type": "string"
        },
        {
          "internalType": "uint64",
          "name": "_startDate",
          "type": "uint64"
        },
        {
          "internalType": "uint64",
          "name": "_endDate",
          "type": "uint64"
        },
        {
          "internalType": "uint64",
          "name": "_startTime",
          "type": "uint64"
        },
        {
          "internalType": "uint64",
          "name": "_endTime",
          "type": "uint64"
        },
        {
          "internalType": "string",
          "name": "_eventLocation",
          "type": "string"
        },
        {
          "internalType": "uint256",
          "name": "_ticketPrice",
          "type": "uint256"
        },
        {
          "internalType": "address",
          "name": "_paymentToken",
          "type": "address"
        }
      ],
      "name": "createEvent",
      "outputs": [],
      "stateMutability": "nonpayable",
      "type": "function"
    },
    {
      "inputs": [
        {
          "internalType": "uint256",
          "name": "",
          "type": "uint256"
        }
      ],
      "name": "events",
      "outputs": [
        {
          "internalType": "address",
          "name": "owner",
          "type": "address"
        },
        {
          "internalType": "string",
          "name": "eventName",
          "type": "string"
        },
        {
          "internalType": "string",
          "name": "eventCardImgUrl",
          "type": "string"
        },
        {
          "internalType": "string",
          "name": "eventDetails",
          "type": "string"
        },
        {
          "internalType": "uint64",
          "name": "startDate",
          "type": "uint64"
        },
        {
          "internalType": "uint64",
          "name": "endDate",
          "type": "uint64"
        },
        {
          "internalType": "uint64",
          "name": "startTime",
          "type": "uint64"
        },
        {
          "internalType": "uint64",
          "name": "endTime",
          "type": "uint64"
        },
        {
          "internalType": "string",
          "name": "eventLocation",
          "type": "string"
        },
        {
          "internalType": "bool",
          "name": "isActive",
          "type": "bool"
        },
        {
          "internalType": "uint256",
          "name": "ticketPrice",
          "type": "uint256"
        },
        {
          "internalType": "uint256",
          "name": "fundsHeld",
          "type": "uint256"
        },
        {
          "internalType": "bool",
          "name": "isCanceled",
          "type": "bool"
        },
        {
          "internalType": "bool",
          "name": "fundsReleased",
          "type": "bool"
        },
        {
          "internalType": "address",
          "name": "paymentToken",
          "type": "address"
        }
      ],
      "stateMutability": "view",
      "type": "function"
    },
    {
      "inputs": [],
      "name": "getActiveEventsByCreator",
      "outputs": [
        {
          "internalType": "uint256[]",
          "name": "",
          "type": "uint256[]"
        },
        {
          "components": [
            {
              "internalType": "address",
              "name": "owner",
              "type": "address"
            },
            {
              "internalType": "string",
              "name": "eventName",
              "type": "string"
            },
            {
              "internalType": "string",
              "name": "eventCardImgUrl",
              "type": "string"
            },
            {
              "internalType": "string",
              "name": "eventDetails",
              "type": "string"
            },
            {
              "internalType": "uint64",
              "name": "startDate",
              "type": "uint64"
            },
            {
              "internalType": "uint64",
              "name": "endDate",
              "type": "uint64"
            },
            {
              "internalType": "uint64",
              "name": "startTime",
              "type": "uint64"
            },
            {
              "internalType": "uint64",
              "name": "endTime",
              "type": "uint64"
            },
            {
              "internalType": "string",
              "name": "eventLocation",
              "type": "string"
            },
            {
              "internalType": "bool",
              "name": "isActive",
              "type": "bool"
            },
            {
              "internalType": "uint256",
              "name": "ticketPrice",
              "type": "uint256"
            },
            {
              "internalType": "uint256",
              "name": "fundsHeld",
              "type": "uint256"
            },
            {
              "internalType": "bool",
              "name": "isCanceled",
              "type": "bool"
            },
            {
              "internalType": "bool",
              "name": "fundsReleased",
              "type": "bool"
            },
            {
              "internalType": "address",
              "name": "paymentToken",
              "type": "address"
            }
          ],
          "internalType": "struct EventChain.Event[]",
          "name": "",
          "type": "tuple[]"
        }
      ],
      "stateMutability": "view",
      "type": "function"
    },
    {
      "inputs": [],
      "name": "getAllEvents",
      "outputs": [
        {
          "internalType": "uint256[]",
          "name": "",
          "type": "uint256[]"
        },
        {
          "components": [
            {
              "internalType": "address",
              "name": "owner",
              "type": "address"
            },
            {
              "internalType": "string",
              "name": "eventName",
              "type": "string"
            },
            {
              "internalType": "string",
              "name": "eventCardImgUrl",
              "type": "string"
            },
            {
              "internalType": "string",
              "name": "eventDetails",
              "type": "string"
            },
            {
              "internalType": "uint64",
              "name": "startDate",
              "type": "uint64"
            },
            {
              "internalType": "uint64",
              "name": "endDate",
              "type": "uint64"
            },
            {
              "internalType": "uint64",
              "name": "startTime",
              "type": "uint64"
            },
            {
              "internalType": "uint64",
              "name": "endTime",
              "type": "uint64"
            },
            {
              "internalType": "string",
              "name": "eventLocation",
              "type": "string"
            },
            {
              "internalType": "bool",
              "name": "isActive",
              "type": "bool"
            },
            {
              "internalType": "uint256",
              "name": "ticketPrice",
              "type": "uint256"
            },
            {
              "internalType": "uint256",
              "name": "fundsHeld",
              "type": "uint256"
            },
            {
              "internalType": "bool",
              "name": "isCanceled",
              "type": "bool"
            },
            {
              "internalType": "bool",
              "name": "fundsReleased",
              "type": "bool"
            },
            {
              "internalType": "address",
              "name": "paymentToken",
              "type": "address"
            }
          ],
          "internalType": "struct EventChain.Event[]",
          "name": "",
          "type": "tuple[]"
        }
      ],
      "stateMutability": "view",
      "type": "function"
    },
    {
      "inputs": [
        {
          "internalType": "uint256",
          "name": "_index",
          "type": "uint256"
        }
      ],
      "name": "getAttendees",
      "outputs": [
        {
          "internalType": "address[]",
          "name": "",
          "type": "address[]"
        }
      ],
      "stateMutability": "view",
      "type": "function"
    },
    {
      "inputs": [
        {
          "internalType": "uint256",
          "name": "_index",
          "type": "uint256"
        }
      ],
      "name": "getEventById",
      "outputs": [
        {
          "components": [
            {
              "internalType": "address",
              "name": "owner",
              "type": "address"
            },
            {
              "internalType": "string",
              "name": "eventName",
              "type": "string"
            },
            {
              "internalType": "string",
              "name": "eventCardImgUrl",
              "type": "string"
            },
            {
              "internalType": "string",
              "name": "eventDetails",
              "type": "string"
            },
            {
              "internalType": "uint64",
              "name": "startDate",
              "type": "uint64"
            },
            {
              "internalType": "uint64",
              "name": "endDate",
              "type": "uint64"
            },
            {
              "internalType": "uint64",
              "name": "startTime",
              "type": "uint64"
            },
            {
              "internalType": "uint64",
              "name": "endTime",
              "type": "uint64"
            },
            {
              "internalType": "string",
              "name": "eventLocation",
              "type": "string"
            },
            {
              "internalType": "bool",
              "name": "isActive",
              "type": "bool"
            },
            {
              "internalType": "uint256",
              "name": "ticketPrice",
              "type": "uint256"
            },
            {
              "internalType": "uint256",
              "name": "fundsHeld",
              "type": "uint256"
            },
            {
              "internalType": "bool",
              "name": "isCanceled",
              "type": "bool"
            },
            {
              "internalType": "bool",
              "name": "fundsReleased",
              "type": "bool"
            },
            {
              "internalType": "address",
              "name": "paymentToken",
              "type": "address"
            }
          ],
          "internalType": "struct EventChain.Event",
          "name": "",
          "type": "tuple"
        },
        {
          "internalType": "address[]",
          "name": "",
          "type": "address[]"
        },
        {
          "components": [
            {
              "internalType": "address",
              "name": "owner",
              "type": "address"
            },
            {
              "internalType": "string",
              "name": "eventName",
              "type": "string"
            },
            {
              "internalType": "string",
              "name": "eventCardImgUrl",
              "type": "string"
            },
            {
              "internalType": "string",
              "name": "eventDetails",
              "type": "string"
            },
            {
              "internalType": "uint64",
              "name": "startDate",
              "type": "uint64"
            },
            {
              "internalType": "uint64",
              "name": "endDate",
              "type": "uint64"
            },
            {
              "internalType": "uint64",
              "name": "startTime",
              "type": "uint64"
            },
            {
              "internalType": "uint64",
              "name": "endTime",
              "type": "uint64"
            },
            {
              "internalType": "string",
              "name": "eventLocation",
              "type": "string"
            },
            {
              "internalType": "bool",
              "name": "isActive",
              "type": "bool"
            },
            {
              "internalType": "uint256",
              "name": "ticketPrice",
              "type": "uint256"
            },
            {
              "internalType": "uint256",
              "name": "fundsHeld",
              "type": "uint256"
            },
            {
              "internalType": "bool",
              "name": "isCanceled",
              "type": "bool"
            },
            {
              "internalType": "bool",
              "name": "fundsReleased",
              "type": "bool"
            },
            {
              "internalType": "address",
              "name": "paymentToken",
              "type": "address"
            }
          ],
          "internalType": "struct EventChain.Event[]",
          "name": "",
          "type": "tuple[]"
        }
      ],
      "stateMutability": "view",
      "type": "function"
    },
    {
      "inputs": [],
      "name": "getEventLength",
      "outputs": [
        {
          "internalType": "uint256",
          "name": "",
          "type": "uint256"
        }
      ],
      "stateMutability": "view",
      "type": "function"
    },
    {
      "inputs": [
        {
          "internalType": "address",
          "name": "_creator",
          "type": "address"
        }
      ],
      "name": "getEventsByCreator",
      "outputs": [
        {
          "components": [
            {
              "internalType": "address",
              "name": "owner",
              "type": "address"
            },
            {
              "internalType": "string",
              "name": "eventName",
              "type": "string"
            },
            {
              "internalType": "string",
              "name": "eventCardImgUrl",
              "type": "string"
            },
            {
              "internalType": "string",
              "name": "eventDetails",
              "type": "string"
            },
            {
              "internalType": "uint64",
              "name": "startDate",
              "type": "uint64"
            },
            {
              "internalType": "uint64",
              "name": "endDate",
              "type": "uint64"
            },
            {
              "internalType": "uint64",
              "name": "startTime",
              "type": "uint64"
            },
            {
              "internalType": "uint64",
              "name": "endTime",
              "type": "uint64"
            },
            {
              "internalType": "string",
              "name": "eventLocation",
              "type": "string"
            },
            {
              "internalType": "bool",
              "name": "isActive",
              "type": "bool"
            },
            {
              "internalType": "uint256",
              "name": "ticketPrice",
              "type": "uint256"
            },
            {
              "internalType": "uint256",
              "name": "fundsHeld",
              "type": "uint256"
            },
            {
              "internalType": "bool",
              "name": "isCanceled",
              "type": "bool"
            },
            {
              "internalType": "bool",
              "name": "fundsReleased",
              "type": "bool"
            },
            {
              "internalType": "address",
              "name": "paymentToken",
              "type": "address"
            }
          ],
          "internalType": "struct EventChain.Event[]",
          "name": "",
          "type": "tuple[]"
        }
      ],
      "stateMutability": "view",
      "type": "function"
    },
    {
      "inputs": [],
      "name": "getUserEvents",
      "outputs": [
        {
          "internalType": "uint256[]",
          "name": "",
          "type": "uint256[]"
        },
        {
          "components": [
            {
              "internalType": "address",
              "name": "owner",
              "type": "address"
            },
            {
              "internalType": "string",
              "name": "eventName",
              "type": "string"
            },
            {
              "internalType": "string",
              "name": "eventCardImgUrl",
              "type": "string"
            },
            {
              "internalType": "string",
              "name": "eventDetails",
              "type": "string"
            },
            {
              "internalType": "uint64",
              "name": "startDate",
              "type": "uint64"
            },
            {
              "internalType": "uint64",
              "name": "endDate",
              "type": "uint64"
            },
            {
              "internalType": "uint64",
              "name": "startTime",
              "type": "uint64"
            },
            {
              "internalType": "uint64",
              "name": "endTime",
              "type": "uint64"
            },
            {
              "internalType": "string",
              "name": "eventLocation",
              "type": "string"
            },
            {
              "internalType": "bool",
              "name": "isActive",
              "type": "bool"
            },
            {
              "internalType": "uint256",
              "name": "ticketPrice",
              "type": "uint256"
            },
            {
              "internalType": "uint256",
              "name": "fundsHeld",
              "type": "uint256"
            },
            {
              "internalType": "bool",
              "name": "isCanceled",
              "type": "bool"
            },
            {
              "internalType": "bool",
              "name": "fundsReleased",
              "type": "bool"
            },
            {
              "internalType": "address",
              "name": "paymentToken",
              "type": "address"
            }
          ],
          "internalType": "struct EventChain.Event[]",
          "name": "",
          "type": "tuple[]"
        }
      ],
      "stateMutability": "view",
      "type": "function"
    },
    {
      "inputs": [
        {
          "internalType": "uint256",
          "name": "",
          "type": "uint256"
        },
        {
          "internalType": "address",
          "name": "",
          "type": "address"
        }
      ],
      "name": "hasPurchasedTicket",
      "outputs": [
        {
          "internalType": "bool",
          "name": "",
          "type": "bool"
        }
      ],
      "stateMutability": "view",
      "type": "function"
    },
    {
      "inputs": [],
      "name": "paused",
      "outputs": [
        {
          "internalType": "bool",
          "name": "",
          "type": "bool"
        }
      ],
      "stateMutability": "view",
      "type": "function"
    },
    {
      "inputs": [
        {
          "internalType": "uint256",
          "name": "_index",
          "type": "uint256"
        }
      ],
      "name": "releaseFunds",
      "outputs": [],
      "stateMutability": "nonpayable",
      "type": "function"
    },
    {
      "inputs": [
        {
          "internalType": "uint256",
          "name": "_index",
          "type": "uint256"
        }
      ],
      "name": "requestRefund",
      "outputs": [],
      "stateMutability": "nonpayable",
      "type": "function"
    },
    {
      "inputs": [
        {
          "internalType": "address",
          "name": "",
          "type": "address"
        }
      ],
      "name": "supportedTokens",
      "outputs": [
        {
          "internalType": "bool",
          "name": "",
          "type": "bool"
        }
      ],
      "stateMutability": "view",
      "type": "function"
    }
  ],
  "bytecode": "0x6080604052346100f657612def8038038061001981610111565b9283398101906020818303126100f6578051906001600160401b0382116100f6570181601f820112156100f6578051916001600160401b0383116100fb578260051b9160208061006a818601610111565b8096815201938201019182116100f657602001915b8183106100d65783600160005560005b81518110156100c75760019060406000838060a01b0360208460051b8701015116815283602052208260ff198254161790550161008f565b604051612cb890816101378239f35b82516001600160a01b03811681036100f65781526020928301920161007f565b600080fd5b634e487b7160e01b600052604160045260246000fd5b6040519190601f01601f191682016001600160401b038111838210176100fb5760405256fe6080604052600436101561001257600080fd5b60003560e01c80630b7914301461225f5780630f9775611461216a5780631ac789691461214d57806320020581146120ff5780633f69babd14612015578063439fd35f14611fbd5780634d68282f14611d2e57806350d9c62d14611d115780635c975abb14611cee5780635c98dfa114611cd0578063617148e514611cb3578063624d73fe14610c4f57806367dd74ca146108c757806368c4ac26146108885780637b426cbf1461086b578063860749851461084f578063a4b2409e146104a9578063abf45ec81461048d578063b5e4128714610468578063b98079bc14610376578063c27a500d146102c2578063cb71146e146102a6578063ccfd6d3c1461017a5763e0c143771461012457600080fd5b34610175576020366003190112610175576004356101456003548210612b19565b600052600460205261017161015d6040600020612bce565b60405191829160208352602083019061275f565b0390f35b600080fd5b34610175576000366003190112610175576003546000805b82811061025257506101ac6101a6826127c2565b91612865565b916000805b8281106101ca57505050610171604051928392836126c9565b6101d3816123b6565b50546001600160a01b031633148061023b575b6101f3575b6001016101b1565b906102338183610205600194886128b5565b52610218610212856123b6565b506128c9565b61022282896128b5565b5261022d81886128b5565b5061279c565b9190506101eb565b5060ff6006610249836123b6565b500154166101e6565b61025b816123b6565b50546001600160a01b031633148061028f575b61027b575b600101610192565b9061028760019161279c565b919050610273565b5060ff600661029d836123b6565b5001541661026e565b3461017557600036600319011261017557602060405160c88152f35b34610175576000366003190112610175576003546000805b82811061034457506102ee6101a6826127c2565b916000805b82811061030c57505050610171604051928392836126c9565b60ff6006610319836123b6565b5001541661032a575b6001016102f3565b9061033c8183610205600194886128b5565b919050610322565b60ff6006610351836123b6565b50015416610362575b6001016102da565b9061036e60019161279c565b91905061035a565b34610175576020366003190112610175576004356103926127f4565b5060035481101561042c57806101716103ad610410936123b6565b508260005260046020526103c56040600020936123b6565b5060018060a01b03905416600052600560205261041e6103fb6103f56103ef6040600020946128c9565b95612bce565b926129c6565b91604051958695606087526060870190612563565b90858203602087015261275f565b908382036040850152612670565b60405162461bcd60e51b8152602060048201526014602482015273115d995b9d08191bd95cc81b9bdd08195e1a5cdd60621b6044820152606490fd5b3461017557600036600319011261017557602060405169d3c21bcecceda10000008152f35b3461017557600036600319011261017557602060405160968152f35b34610175576020366003190112610175576004356104c5612c22565b6104d26003548210612a5d565b6104f06104de826123b6565b50546001600160a01b03161515612a99565b6104ff60ff6002541615612adb565b600081815260066020908152604080832033845290915290205460ff161561081457600861052c826123b6565b500154600761053a836123b6565b500154116107da5760ff600961054f836123b6565b5001541615610775575b6007610564826123b6565b50015460008281526006602090815260408083203384529091529020805460ff19169055906008610594826123b6565b5001805490838203918211610756575580600052600460205260406000209060005b82548082101561076c576105ca8285612bb6565b905460039190911b1c6001600160a01b031633146105eb57506001016105b6565b9192916000198101919082116107565761062461060b6106489385612bb6565b905460039190911b1c6001600160a01b03169184612bb6565b81546001600160a01b0393841660039290921b91821b9390911b1916919091179055565b8054801561074057600019019061065f8282612bb6565b81549060018060a01b039060031b1b19169055555b61067d816123b6565b506009015460405163a9059cbb60e01b81523360048201526024810184905290602090829060101c6001600160a01b0316816000816044810103925af18015610734576106d291600091610705575b50612c44565b6040519182527f7a482fdeb6bc9a1376f597068a214a7a39472bb2eff1b8cad21ba04f49ddca1b60203393a36001600055005b610727915060203d60201161072d575b61071f818361245d565b810190612b58565b846106cc565b503d610715565b6040513d6000823e3d90fd5b634e487b7160e01b600052603160045260246000fd5b634e487b7160e01b600052601160045260246000fd5b50509050610674565b6001600160401b036004610788836123b6565b5001541661464f1981019081116107565742106105595760405162461bcd60e51b81526020600482015260136024820152721499599d5b99081c195c9a5bd908195b991959606a1b6044820152606490fd5b60405162461bcd60e51b8152602060048201526012602482015271496e73756666696369656e742066756e647360701b6044820152606490fd5b60405162461bcd60e51b8152602060048201526013602482015272139bc81d1a58dad95d081c1d5c98da185cd959606a1b6044820152606490fd5b3461017557600036600319011261017557602060405160648152f35b346101755760003660031901126101755760206040516146508152f35b34610175576020366003190112610175576001600160a01b036108a961271c565b166000526001602052602060ff604060002054166040519015158152f35b34610175576020366003190112610175576004356108e3612c22565b6108f06003548210612a5d565b6108fc6104de826123b6565b61090b60ff6002541615612adb565b610914816123b6565b50906001600160401b03600483015416421015610c1a5760ff60068301541615610be457600081815260066020908152604080832033845290915290205460ff16610bab578060005260046020526113886040600020541015610b7257600782015491600981019060018060a01b03825460101c16604051636eb1769f60e11b8152336004820152306024820152602081604481855afa8015610734578691600091610b3d575b5010610aff5760206000916064604051809481936323b872dd60e01b83523360048401523060248401528a60448401525af1801561073457610a0491600091610ae05750612c44565b60008381526006602090815260408083203384528252808320805460ff19166001179055858352600490915290208054909190600160401b811015610aca57610a58816008946001610a7694018155612bb6565b81546001600160a01b0360039290921b91821b19163390911b179055565b01805490848201809211610756575560018060a01b03905460101c1660405192835260208301527f504ef6dabca28c1452704d54bd8e25708d87e0c27d852eceea53a0c0d898675860403393a36001600055005b634e487b7160e01b600052604160045260246000fd5b610af9915060203d60201161072d5761071f818361245d565b866106cc565b60405162461bcd60e51b8152602060048201526016602482015275496e73756666696369656e7420616c6c6f77616e636560501b6044820152606490fd5b9150506020813d602011610b6a575b81610b596020938361245d565b8101031261017557859051876109bb565b3d9150610b4c565b60405162461bcd60e51b81526020600482015260116024820152704576656e7420617420636170616369747960781b6044820152606490fd5b60405162461bcd60e51b8152602060048201526011602482015270105b1c9958591e481c1d5c98da185cd959607a1b6044820152606490fd5b60405162461bcd60e51b815260206004820152600e60248201526d4576656e7420696e61637469766560901b6044820152606490fd5b60405162461bcd60e51b815260206004820152600d60248201526c115d995b9d08195e1c1a5c9959609a1b6044820152606490fd5b3461017557610140366003190112610175576004356001600160401b03811161017557610c80903690600401612732565b906024356001600160401b03811161017557610ca0903690600401612732565b906044356001600160401b03811161017557610cc0903690600401612732565b906064356001600160401b038116809103610175576084356001600160401b0381168091036101755760a4356001600160401b0381168091036101755760c435916001600160401b0383168093036101755760e4356001600160401b03811161017557610d31903690600401612732565b9490956101043597610124359960018060a01b038b16809b0361017557610d5d60ff6002541615612adb565b8d15158e81611ca7575b5015611c73578b151580611c68575b15611c355781151580611c29575b15611bf25787151580611be7575b15611baf5789151580611b9b575b15611b66578a15611b3157428410611aec57610e108401808511610756578510611ab2578a600052600160205260ff6040600020541615611a79578c9b8e6040519d8e91610ded83612441565b3383523690610dfb92612b70565b90602001523690610e0b92612b70565b60408c01523690610e1b92612b70565b60608a0152608089015260a088015260c087015260e08601523690610e3f92612b70565b61010084015260016101208401526101408301526000610160830181905261018083018190526101a08301526101c0820152600354600160401b811015610aca57806001610e92920160035560036123eb565b61173257815181546001600160a01b0319166001600160a01b039190911617815560208201518051906001600160401b038211610aca578190610ed86001850154612407565b601f8111611a26575b50602090601f83116001146119b5576000926119aa575b50508160011b916000199060031b1c19161760018201555b60408201518051906001600160401b038211610aca578190610f356002850154612407565b601f8111611957575b50602090601f83116001146118e6576000926118db575b50508160011b916000199060031b1c19161760028201555b60608201518051906001600160401b038211610aca578190610f926003850154612407565b601f8111611888575b50602090601f83116001146118175760009261180c575b50508160011b916000199060031b1c19161760038201555b60808281015160a084015160c08086015160e087015160409390931b67ffffffffffffffff60401b166001600160401b0394851617941b67ffffffffffffffff60801b1693909317921b6001600160c01b0319169190911760048301556101008301518051918211610aca576110436005840154612407565b601f81116117c5575b50602090601f831160011461175357600993929160009183611748575b50508160011b916000199060031b1c19161760058201555b6110a16101208401511515600683019060ff801983541691151516179055565b61014083015160078201556101608301516008820155016110d56101808301511515829060ff801983541691151516179055565b6101a0820151815461ff00191690151560081b61ff00161781556101c0820151815462010000600160b01b03191660109190911b62010000600160b01b03161790553360009081526005602052604090208054600160401b811015610aca57611143916001820181556123eb565b61173257815181546001600160a01b0319166001600160a01b03919091161781556020820151805160018301916001600160401b038211610aca57819061118a8454612407565b601f81116116df575b50602090601f831160011461167a5760009261166f575b50508160011b916000199060031b1c19161790555b6002810160408301518051906001600160401b038211610aca5781906111e58454612407565b601f811161161c575b50602090601f83116001146115b7576000926115ac575b50508160011b916000199060031b1c19161790555b6003810160608301518051906001600160401b038211610aca5781906112408454612407565b601f8111611559575b50602090601f83116001146114f4576000926114e9575b50508160011b916000199060031b1c19161790555b60808281015160a084015160c08086015160e087015160409390931b67ffffffffffffffff60401b166001600160401b0394851617941b67ffffffffffffffff60801b1693909317921b6001600160c01b031916919091176004830155610100830151805160058401929091908211610aca576112f28354612407565b601f81116114a1575b50602090601f8311600114611433579180600994926101c09694600092611428575b50508160011b916000199060031b1c19161790555b6113526101208501511515600683019060ff801983541691151516179055565b6101408401516007820155610160840151600882015501916113876101808201511515849060ff801983541691151516179055565b6101a0810151835461ff00191690151560081b61ff00161783550151815462010000600160b01b03191660109190911b62010000600160b01b0316179055600354600019810191908211610756577ffc695dea2478fb938a11068aeedddd7046a5fe655f136e30a325d353fe187a459083604051916020835281602084015260408301376000604085830101526040813395601f80199101168101030190a3005b01519050898061131d565b90601f1983169184600052816000209260005b81811061148957509260019285926101c098966009989610611470575b505050811b019055611332565b015160001960f88460031b161c19169055898080611463565b92936020600181928786015181550195019301611446565b836000526020600020601f840160051c810191602085106114df575b601f0160051c01905b8181106114d357506112fb565b600081556001016114c6565b90915081906114bd565b015190508780611260565b60008581528281209350601f198516905b8181106115415750908460019594939210611528575b505050811b019055611275565b015160001960f88460031b161c1916905587808061151b565b92936020600181928786015181550195019301611505565b909150836000526020600020601f840160051c810191602085106115a2575b90601f859493920160051c01905b8181106115935750611249565b60008155849350600101611586565b9091508190611578565b015190508780611205565b60008581528281209350601f198516905b81811061160457509084600195949392106115eb575b505050811b01905561121a565b015160001960f88460031b161c191690558780806115de565b929360206001819287860151815501950193016115c8565b909150836000526020600020601f840160051c81019160208510611665575b90601f859493920160051c01905b81811061165657506111ee565b60008155849350600101611649565b909150819061163b565b0151905087806111aa565b60008581528281209350601f198516905b8181106116c757509084600195949392106116ae575b505050811b0190556111bf565b015160001960f88460031b161c191690558780806116a1565b9293602060018192878601518155019501930161168b565b909150836000526020600020601f840160051c81019160208510611728575b90601f859493920160051c01905b8181106117195750611193565b6000815584935060010161170c565b90915081906116fe565b634e487b7160e01b600052600060045260246000fd5b015190508780611069565b9060058401600052806000209160005b601f19851681106117ad575091839160019360099695601f19811610611794575b505050811b016005820155611081565b015160001960f88460031b161c19169055878080611784565b91926020600181928685015181550194019201611763565b600584016000526020600020601f840160051c810160208510611805575b601f830160051c820181106117f957505061104c565b600081556001016117e3565b50806117e3565b015190508680610fb2565b92506003840160005280600020906000935b601f198416851061186d576001945083601f19811610611854575b505050811b016003820155610fca565b015160001960f88460031b161c19169055868080611844565b81810151835560209485019460019093019290910190611829565b909150600384016000526020600020601f840160051c8101602085106118d4575b90849392915b601f830160051c820181106118c5575050610f9b565b600081558594506001016118af565b50806118a9565b015190508680610f55565b92506002840160005280600020906000935b601f198416851061193c576001945083601f19811610611923575b505050811b016002820155610f6d565b015160001960f88460031b161c19169055868080611913565b818101518355602094850194600190930192909101906118f8565b909150600284016000526020600020601f840160051c8101602085106119a3575b90849392915b601f830160051c82018110611994575050610f3e565b6000815585945060010161197e565b5080611978565b015190508680610ef8565b92506001840160005280600020906000935b601f1984168510611a0b576001945083601f198116106119f2575b505050811b016001820155610f10565b015160001960f88460031b161c191690558680806119e2565b818101518355602094850194600190930192909101906119c7565b909150600184016000526020600020601f840160051c810160208510611a72575b90849392915b601f830160051c82018110611a63575050610ee1565b60008155859450600101611a4d565b5080611a47565b60405162461bcd60e51b81526020600482015260116024820152702ab739bab83837b93a32b2103a37b5b2b760791b6044820152606490fd5b60405162461bcd60e51b8152602060048201526012602482015271111d5c985d1a5bdb881d1bdbc81cda1bdc9d60721b6044820152606490fd5b60405162461bcd60e51b815260206004820152601960248201527f53746172742064617465206d75737420626520667574757265000000000000006044820152606490fd5b60405162461bcd60e51b815260206004820152600d60248201526c24b73b30b634b2103a37b5b2b760991b6044820152606490fd5b60405162461bcd60e51b815260206004820152600d60248201526c496e76616c696420707269636560981b6044820152606490fd5b5069d3c21bcecceda10000008a1115610da0565b60405162461bcd60e51b815260206004820152601060248201526f24b73b30b634b2103637b1b0ba34b7b760811b6044820152606490fd5b506096881115610d92565b60405162461bcd60e51b815260206004820152600f60248201526e496e76616c69642064657461696c7360881b6044820152606490fd5b506103e8821115610d84565b60405162461bcd60e51b815260206004820152600b60248201526a125b9d985b1a590815549360aa1b6044820152606490fd5b5060c88c1115610d76565b60405162461bcd60e51b815260206004820152600c60248201526b496e76616c6964206e616d6560a01b6044820152606490fd5b6064915011158e610d67565b346101755760003660031901126101755760206040516113888152f35b34610175576000366003190112610175576020600354604051908152f35b3461017557600036600319011261017557602060ff600254166040519015158152f35b346101755760003660031901126101755760206040516103e88152f35b3461017557602036600319011261017557600435611d60611d4e826123b6565b50546001600160a01b03163314612a1f565b611d68612c22565b611d756003548210612b19565b6001600160401b036004611d88836123b6565b50015460401c16421115611f785760ff6009611da3836123b6565b50015416611f215760ff6009611db8836123b6565b50015460081c16611ee3576008611dce826123b6565b50015460006008611dde846123b6565b5001556009611dec836123b6565b5001805461ff001916610100179055611e04826123b6565b506009015460405163a9059cbb60e01b81523360048201526024810183905290602090829060101c6001600160a01b0316816000816044810103925af190811561073457600091611ec4575b5015611e885760207f80230996023d69b50793fa73f1919127c9d8e741d3989743c479169f22e7a28891604051908152a26001600055005b60405162461bcd60e51b8152602060048201526014602482015273119d5b99081d1c985b9cd9995c8819985a5b195960621b6044820152606490fd5b611edd915060203d60201161072d5761071f818361245d565b83611e50565b60405162461bcd60e51b8152602060048201526016602482015275119d5b991cc8185b1c9958591e481c995b19585cd95960521b6044820152606490fd5b60405162461bcd60e51b815260206004820152602960248201527f43616e6e6f742072656c656173652066756e647320666f7220612063616e63656044820152681b195908195d995b9d60ba1b6064820152608490fd5b60405162461bcd60e51b815260206004820152601760248201527f4576656e7420686173206e6f7420656e646564207965740000000000000000006044820152606490fd5b34610175576040366003190112610175576024356001600160a01b038116810361017557600435600052600660205260406000209060018060a01b0316600052602052602060ff604060002054166040519015158152f35b3461017557602036600319011261017557600435612035611d4e826123b6565b6120426003548210612a5d565b61204e6104de826123b6565b61205d60ff6002541615612adb565b60ff600661206a836123b6565b50015416156120c757600661207e826123b6565b5001805460ff191690556009612093826123b6565b5001805460ff191660011790557fceaf11772900fe569752a0207c8639fb8228eb8663456dc9eaa3a08f927a8705600080a2005b60405162461bcd60e51b815260206004820152601060248201526f105b1c9958591e4818d85b98d95b195960821b6044820152606490fd5b34610175576020366003190112610175576001600160a01b0361212061271c565b16600052600560205261017161213960406000206129c6565b604051918291602083526020830190612670565b34610175576000366003190112610175576020604051610e108152f35b34610175576000366003190112610175576003543390600090815b818110612221575061219f612199836127c2565b92612865565b92600090815b8381106121bb57604051806101718888836126c9565b80600052600660205260ff6040806000206000908582526020522054166121e5575b6001016121a5565b9161221981846121f7600194896128b5565b52612204610212866123b6565b61220e828a6128b5565b5261022d81896128b5565b9290506121dd565b80600052600660205260ff60408060002060009087825260205220541661224b575b600101612185565b9161225760019161279c565b929050612243565b3461017557602036600319011261017557600435600354811015610175576122896101e0916123b6565b5080546001600160a01b0316906122a26001820161247e565b6122ae6002830161247e565b916122bb6003820161247e565b9261237060048301546122d06005850161247e565b61232660ff6006870154169761231860078801549661230a600960088b01549a01549a6040519e8f9e8f9081528160208201520190612522565b8c810360408e015290612522565b908a820360608c0152612522565b916001600160401b03811660808a01526001600160401b038160401c1660a08a01526001600160401b038160801c1660c08a015260c01c60e0890152878203610100890152612522565b93151561012086015261014085015261016084015260ff8181161515610180850152600882901c1615156101a084015260101c6001600160a01b03166101c08301520390f35b6003548110156123d5576003600052600a602060002091020190600090565b634e487b7160e01b600052603260045260246000fd5b80548210156123d557600052600a602060002091020190600090565b90600182811c92168015612437575b602083101461242157565b634e487b7160e01b600052602260045260246000fd5b91607f1691612416565b6101e081019081106001600160401b03821117610aca57604052565b90601f801991011681019081106001600160401b03821117610aca57604052565b906040519182600082549261249284612407565b808452936001811690811561250057506001146124b9575b506124b79250038361245d565b565b90506000929192526020600020906000915b8183106124e45750509060206124b792820101386124aa565b60209193508060019154838589010152019101909184926124cb565b9050602092506124b794915060ff191682840152151560051b820101386124aa565b919082519283825260005b84811061254e575050826000602080949584010152601f8019910116010190565b8060208092840101518282860101520161252d565b9060018060a01b0382511681526101c061261b6125bb6125a961259760208701516101e060208801526101e0870190612522565b60408701518682036040880152612522565b60608601518582036060870152612522565b6001600160401b0360808601511660808501526001600160401b0360a08601511660a08501526001600160401b0360c08601511660c08501526001600160401b0360e08601511660e0850152610100850151848203610100860152612522565b92610120810151151561012084015261014081015161014084015261016081015161016084015261018081015115156101808401526101a081015115156101a08401528160018060a01b039101511691015290565b9080602083519182815201916020808360051b8301019401926000915b83831061269c57505050505090565b90919293946020806126ba600193601f198682030187528951612563565b9701930193019193929061268d565b9291604084019360408152825180955260206060820193016000955b8087106127045750506127019394506020818403910152612670565b90565b909360208060019287518152019501960195906126e5565b600435906001600160a01b038216820361017557565b9181601f84011215610175578235916001600160401b038311610175576020838186019501011161017557565b906020808351928381520192019060005b81811061277d5750505090565b82516001600160a01b0316845260209384019390920191600101612770565b60001981146107565760010190565b6001600160401b038111610aca5760051b60200190565b906127cc826127ab565b6127d9604051918261245d565b82815280926127ea601f19916127ab565b0190602036910137565b6040519061280182612441565b60006101c08382815260606020820152606060408201526060808201528260808201528260a08201528260c08201528260e0820152606061010082015282610120820152826101408201528261016082015282610180820152826101a08201520152565b9061286f826127ab565b61287c604051918261245d565b828152809261288d601f19916127ab565b019060005b82811061289e57505050565b6020906128a96127f4565b82828501015201612892565b80518210156123d55760209160051b010190565b906040516128d681612441565b82546001600160a01b031681529182906101c0906009906128f96001820161247e565b602085015261290a6002820161247e565b604085015261291b6003820161247e565b606085015260048101546001600160401b03811660808601526001600160401b038160401c1660a08601526001600160401b038160801c1660c086015260c01c60e085015261296c6005820161247e565b61010085015260ff600682015416151561012085015260078101546101408501526008810154610160850152015460ff8116151561018084015260ff8160081c1615156101a084015260018060a01b039060101c16910152565b9081546129d2816127ab565b926129e0604051948561245d565b818452602084019060005260206000206000915b838310612a015750505050565b600a6020600192612a11856128c9565b8152019201920191906129f4565b15612a2657565b60405162461bcd60e51b815260206004820152600f60248201526e2737ba1032bb32b73a1037bbb732b960891b6044820152606490fd5b15612a6457565b60405162461bcd60e51b815260206004820152600d60248201526c125b9d985b1a5908195d995b9d609a1b6044820152606490fd5b15612aa057565b60405162461bcd60e51b8152602060048201526013602482015272115d995b9d08191bd95cdb89dd08195e1a5cdd606a1b6044820152606490fd5b15612ae257565b60405162461bcd60e51b815260206004820152600f60248201526e10dbdb9d1c9858dd081c185d5cd959608a1b6044820152606490fd5b15612b2057565b60405162461bcd60e51b815260206004820152601060248201526f125b9d985b1a5908195d995b9d08125160821b6044820152606490fd5b90816020910312610175575180151581036101755790565b9291926001600160401b038211610aca5760405191612b99601f8201601f19166020018461245d565b829481845281830111610175578281602093846000960137010152565b80548210156123d55760005260206000200190600090565b906040519182815491828252602082019060005260206000209260005b818110612c005750506124b79250038361245d565b84546001600160a01b0316835260019485019487945060209093019201612beb565b600260005414612c33576002600055565b633ee5aeb560e01b60005260046000fd5b15612c4b57565b60405162461bcd60e51b815260206004820152600f60248201526e151c985b9cd9995c8819985a5b1959608a1b6044820152606490fdfea2646970667358221220c99d651ad3649e8627271c2b3707d3dc7f076171330a099bf43c3668169f1b8664736f6c634300081c0033",
  "linkReferences": {},
  "deployedLinkReferences": {}
}