{
  "contracts/EventChain.sol": {
    "EventChain": {
      "abi": [
        {
          "inputs": [
            {
              "internalType": "address[]",
              "name": "_supportedTokens",
              "type": "address[]"
            }
          ],
          "stateMutability": "nonpayable",
          "type": "constructor"
        },
        {
          "inputs": [],
          "name": "ReentrancyGuardReentrantCall",
          "type": "error"
        },
        {
          "inputs": [
            {
              "internalType": "address",
              "name": "token",
              "type": "address"
            }
          ],
          "name": "SafeERC20FailedOperation",
          "type": "error"
        },
        {
          "anonymous": false,
          "inputs": [
            {
              "indexed": true,
              "internalType": "uint256",
              "name": "eventId",
              "type": "uint256"
            }
          ],
          "name": "EventCanceled",
          "type": "event"
        },
        {
          "anonymous": false,
          "inputs": [
            {
              "indexed": true,
              "internalType": "uint256",
              "name": "eventId",
              "type": "uint256"
            },
            {
              "indexed": true,
              "internalType": "address",
              "name": "owner",
              "type": "address"
            },
            {
              "indexed": false,
              "internalType": "string",
              "name": "eventName",
              "type": "string"
            }
          ],
          "name": "EventCreated",
          "type": "event"
        },
        {
          "anonymous": false,
          "inputs": [
            {
              "indexed": true,
              "internalType": "uint256",
              "name": "eventId",
              "type": "uint256"
            },
            {
              "indexed": true,
              "internalType": "address",
              "name": "owner",
              "type": "address"
            },
            {
              "indexed": false,
              "internalType": "string",
              "name": "eventName",
              "type": "string"
            }
          ],
          "name": "EventUpdated",
          "type": "event"
        },
        {
          "anonymous": false,
          "inputs": [
            {
              "indexed": true,
              "internalType": "uint256",
              "name": "eventId",
              "type": "uint256"
            },
            {
              "indexed": false,
              "internalType": "uint256",
              "name": "amount",
              "type": "uint256"
            }
          ],
          "name": "FundsReleased",
          "type": "event"
        },
        {
          "anonymous": false,
          "inputs": [
            {
              "indexed": true,
              "internalType": "uint256",
              "name": "eventId",
              "type": "uint256"
            },
            {
              "indexed": true,
              "internalType": "address",
              "name": "user",
              "type": "address"
            },
            {
              "indexed": false,
              "internalType": "uint256",
              "name": "amount",
              "type": "uint256"
            }
          ],
          "name": "RefundIssued",
          "type": "event"
        },
        {
          "anonymous": false,
          "inputs": [
            {
              "indexed": true,
              "internalType": "uint256",
              "name": "eventId",
              "type": "uint256"
            },
            {
              "indexed": true,
              "internalType": "address",
              "name": "buyer",
              "type": "address"
            },
            {
              "indexed": false,
              "internalType": "uint256",
              "name": "amount",
              "type": "uint256"
            },
            {
              "indexed": false,
              "internalType": "address",
              "name": "paymentToken",
              "type": "address"
            }
          ],
          "name": "TicketPurchased",
          "type": "event"
        },
        {
          "inputs": [],
          "name": "Base",
          "outputs": [
            {
              "internalType": "address",
              "name": "",
              "type": "address"
            }
          ],
          "stateMutability": "view",
          "type": "function"
        },
        {
          "inputs": [],
          "name": "MAX_ATTENDEES",
          "outputs": [
            {
              "internalType": "uint256",
              "name": "",
              "type": "uint256"
            }
          ],
          "stateMutability": "view",
          "type": "function"
        },
        {
          "inputs": [],
          "name": "MAX_DETAILS_LENGTH",
          "outputs": [
            {
              "internalType": "uint256",
              "name": "",
              "type": "uint256"
            }
          ],
          "stateMutability": "view",
          "type": "function"
        },
        {
          "inputs": [],
          "name": "MAX_LOCATION_LENGTH",
          "outputs": [
            {
              "internalType": "uint256",
              "name": "",
              "type": "uint256"
            }
          ],
          "stateMutability": "view",
          "type": "function"
        },
        {
          "inputs": [],
          "name": "MAX_NAME_LENGTH",
          "outputs": [
            {
              "internalType": "uint256",
              "name": "",
              "type": "uint256"
            }
          ],
          "stateMutability": "view",
          "type": "function"
        },
        {
          "inputs": [],
          "name": "MAX_TICKET_PRICE",
          "outputs": [
            {
              "internalType": "uint256",
              "name": "",
              "type": "uint256"
            }
          ],
          "stateMutability": "view",
          "type": "function"
        },
        {
          "inputs": [],
          "name": "MAX_URL_LENGTH",
          "outputs": [
            {
              "internalType": "uint256",
              "name": "",
              "type": "uint256"
            }
          ],
          "stateMutability": "view",
          "type": "function"
        },
        {
          "inputs": [],
          "name": "MIN_EVENT_DURATION",
          "outputs": [
            {
              "internalType": "uint256",
              "name": "",
              "type": "uint256"
            }
          ],
          "stateMutability": "view",
          "type": "function"
        },
        {
          "inputs": [],
          "name": "REFUND_BUFFER",
          "outputs": [
            {
              "internalType": "uint256",
              "name": "",
              "type": "uint256"
            }
          ],
          "stateMutability": "view",
          "type": "function"
        },
        {
          "inputs": [
            {
              "internalType": "uint256",
              "name": "",
              "type": "uint256"
            }
          ],
          "name": "baseFundsHeld",
          "outputs": [
            {
              "internalType": "uint256",
              "name": "",
              "type": "uint256"
            }
          ],
          "stateMutability": "view",
          "type": "function"
        },
        {
          "inputs": [
            {
              "internalType": "uint256",
              "name": "_index",
              "type": "uint256"
            }
          ],
          "name": "buyTicket",
          "outputs": [],
          "stateMutability": "payable",
          "type": "function"
        },
        {
          "inputs": [
            {
              "internalType": "uint256",
              "name": "_index",
              "type": "uint256"
            }
          ],
          "name": "cancelEvent",
          "outputs": [],
          "stateMutability": "nonpayable",
          "type": "function"
        },
        {
          "inputs": [
            {
              "internalType": "string",
              "name": "_eventName",
              "type": "string"
            },
            {
              "internalType": "string",
              "name": "_eventCardImgUrl",
              "type": "string"
            },
            {
              "internalType": "string",
              "name": "_eventDetails",
              "type": "string"
            },
            {
              "internalType": "uint64",
              "name": "_startDate",
              "type": "uint64"
            },
            {
              "internalType": "uint64",
              "name": "_endDate",
              "type": "uint64"
            },
            {
              "internalType": "uint64",
              "name": "_startTime",
              "type": "uint64"
            },
            {
              "internalType": "uint64",
              "name": "_endTime",
              "type": "uint64"
            },
            {
              "internalType": "string",
              "name": "_eventLocation",
              "type": "string"
            },
            {
              "internalType": "uint256",
              "name": "_ticketPrice",
              "type": "uint256"
            },
            {
              "internalType": "uint256",
              "name": "_minimumAge",
              "type": "uint256"
            },
            {
              "internalType": "address",
              "name": "_paymentToken",
              "type": "address"
            }
          ],
          "name": "createEvent",
          "outputs": [],
          "stateMutability": "nonpayable",
          "type": "function"
        },
        {
          "inputs": [
            {
              "internalType": "uint256",
              "name": "",
              "type": "uint256"
            }
          ],
          "name": "events",
          "outputs": [
            {
              "internalType": "address",
              "name": "owner",
              "type": "address"
            },
            {
              "internalType": "string",
              "name": "eventName",
              "type": "string"
            },
            {
              "internalType": "string",
              "name": "eventCardImgUrl",
              "type": "string"
            },
            {
              "internalType": "string",
              "name": "eventDetails",
              "type": "string"
            },
            {
              "internalType": "uint64",
              "name": "startDate",
              "type": "uint64"
            },
            {
              "internalType": "uint64",
              "name": "endDate",
              "type": "uint64"
            },
            {
              "internalType": "uint64",
              "name": "startTime",
              "type": "uint64"
            },
            {
              "internalType": "uint64",
              "name": "endTime",
              "type": "uint64"
            },
            {
              "internalType": "string",
              "name": "eventLocation",
              "type": "string"
            },
            {
              "internalType": "bool",
              "name": "isActive",
              "type": "bool"
            },
            {
              "internalType": "uint256",
              "name": "ticketPrice",
              "type": "uint256"
            },
            {
              "internalType": "uint256",
              "name": "fundsHeld",
              "type": "uint256"
            },
            {
              "internalType": "uint256",
              "name": "minimumAge",
              "type": "uint256"
            },
            {
              "internalType": "bool",
              "name": "isCanceled",
              "type": "bool"
            },
            {
              "internalType": "bool",
              "name": "fundsReleased",
              "type": "bool"
            },
            {
              "internalType": "address",
              "name": "paymentToken",
              "type": "address"
            }
          ],
          "stateMutability": "view",
          "type": "function"
        },
        {
          "inputs": [],
          "name": "getActiveEventsByCreator",
          "outputs": [
            {
              "internalType": "uint256[]",
              "name": "",
              "type": "uint256[]"
            },
            {
              "components": [
                {
                  "internalType": "address",
                  "name": "owner",
                  "type": "address"
                },
                {
                  "internalType": "string",
                  "name": "eventName",
                  "type": "string"
                },
                {
                  "internalType": "string",
                  "name": "eventCardImgUrl",
                  "type": "string"
                },
                {
                  "internalType": "string",
                  "name": "eventDetails",
                  "type": "string"
                },
                {
                  "internalType": "uint64",
                  "name": "startDate",
                  "type": "uint64"
                },
                {
                  "internalType": "uint64",
                  "name": "endDate",
                  "type": "uint64"
                },
                {
                  "internalType": "uint64",
                  "name": "startTime",
                  "type": "uint64"
                },
                {
                  "internalType": "uint64",
                  "name": "endTime",
                  "type": "uint64"
                },
                {
                  "internalType": "string",
                  "name": "eventLocation",
                  "type": "string"
                },
                {
                  "internalType": "bool",
                  "name": "isActive",
                  "type": "bool"
                },
                {
                  "internalType": "uint256",
                  "name": "ticketPrice",
                  "type": "uint256"
                },
                {
                  "internalType": "uint256",
                  "name": "fundsHeld",
                  "type": "uint256"
                },
                {
                  "internalType": "uint256",
                  "name": "minimumAge",
                  "type": "uint256"
                },
                {
                  "internalType": "bool",
                  "name": "isCanceled",
                  "type": "bool"
                },
                {
                  "internalType": "bool",
                  "name": "fundsReleased",
                  "type": "bool"
                },
                {
                  "internalType": "address",
                  "name": "paymentToken",
                  "type": "address"
                }
              ],
              "internalType": "struct EventChain.Event[]",
              "name": "",
              "type": "tuple[]"
            }
          ],
          "stateMutability": "view",
          "type": "function"
        },
        {
          "inputs": [],
          "name": "getAllEvents",
          "outputs": [
            {
              "internalType": "uint256[]",
              "name": "",
              "type": "uint256[]"
            },
            {
              "components": [
                {
                  "internalType": "address",
                  "name": "owner",
                  "type": "address"
                },
                {
                  "internalType": "string",
                  "name": "eventName",
                  "type": "string"
                },
                {
                  "internalType": "string",
                  "name": "eventCardImgUrl",
                  "type": "string"
                },
                {
                  "internalType": "string",
                  "name": "eventDetails",
                  "type": "string"
                },
                {
                  "internalType": "uint64",
                  "name": "startDate",
                  "type": "uint64"
                },
                {
                  "internalType": "uint64",
                  "name": "endDate",
                  "type": "uint64"
                },
                {
                  "internalType": "uint64",
                  "name": "startTime",
                  "type": "uint64"
                },
                {
                  "internalType": "uint64",
                  "name": "endTime",
                  "type": "uint64"
                },
                {
                  "internalType": "string",
                  "name": "eventLocation",
                  "type": "string"
                },
                {
                  "internalType": "bool",
                  "name": "isActive",
                  "type": "bool"
                },
                {
                  "internalType": "uint256",
                  "name": "ticketPrice",
                  "type": "uint256"
                },
                {
                  "internalType": "uint256",
                  "name": "fundsHeld",
                  "type": "uint256"
                },
                {
                  "internalType": "uint256",
                  "name": "minimumAge",
                  "type": "uint256"
                },
                {
                  "internalType": "bool",
                  "name": "isCanceled",
                  "type": "bool"
                },
                {
                  "internalType": "bool",
                  "name": "fundsReleased",
                  "type": "bool"
                },
                {
                  "internalType": "address",
                  "name": "paymentToken",
                  "type": "address"
                }
              ],
              "internalType": "struct EventChain.Event[]",
              "name": "",
              "type": "tuple[]"
            }
          ],
          "stateMutability": "view",
          "type": "function"
        },
        {
          "inputs": [
            {
              "internalType": "uint256",
              "name": "_index",
              "type": "uint256"
            }
          ],
          "name": "getAttendees",
          "outputs": [
            {
              "internalType": "address[]",
              "name": "",
              "type": "address[]"
            }
          ],
          "stateMutability": "view",
          "type": "function"
        },
        {
          "inputs": [
            {
              "internalType": "uint256",
              "name": "_index",
              "type": "uint256"
            }
          ],
          "name": "getEventById",
          "outputs": [
            {
              "components": [
                {
                  "internalType": "address",
                  "name": "owner",
                  "type": "address"
                },
                {
                  "internalType": "string",
                  "name": "eventName",
                  "type": "string"
                },
                {
                  "internalType": "string",
                  "name": "eventCardImgUrl",
                  "type": "string"
                },
                {
                  "internalType": "string",
                  "name": "eventDetails",
                  "type": "string"
                },
                {
                  "internalType": "uint64",
                  "name": "startDate",
                  "type": "uint64"
                },
                {
                  "internalType": "uint64",
                  "name": "endDate",
                  "type": "uint64"
                },
                {
                  "internalType": "uint64",
                  "name": "startTime",
                  "type": "uint64"
                },
                {
                  "internalType": "uint64",
                  "name": "endTime",
                  "type": "uint64"
                },
                {
                  "internalType": "string",
                  "name": "eventLocation",
                  "type": "string"
                },
                {
                  "internalType": "bool",
                  "name": "isActive",
                  "type": "bool"
                },
                {
                  "internalType": "uint256",
                  "name": "ticketPrice",
                  "type": "uint256"
                },
                {
                  "internalType": "uint256",
                  "name": "fundsHeld",
                  "type": "uint256"
                },
                {
                  "internalType": "uint256",
                  "name": "minimumAge",
                  "type": "uint256"
                },
                {
                  "internalType": "bool",
                  "name": "isCanceled",
                  "type": "bool"
                },
                {
                  "internalType": "bool",
                  "name": "fundsReleased",
                  "type": "bool"
                },
                {
                  "internalType": "address",
                  "name": "paymentToken",
                  "type": "address"
                }
              ],
              "internalType": "struct EventChain.Event",
              "name": "",
              "type": "tuple"
            },
            {
              "internalType": "address[]",
              "name": "",
              "type": "address[]"
            },
            {
              "components": [
                {
                  "internalType": "address",
                  "name": "owner",
                  "type": "address"
                },
                {
                  "internalType": "string",
                  "name": "eventName",
                  "type": "string"
                },
                {
                  "internalType": "string",
                  "name": "eventCardImgUrl",
                  "type": "string"
                },
                {
                  "internalType": "string",
                  "name": "eventDetails",
                  "type": "string"
                },
                {
                  "internalType": "uint64",
                  "name": "startDate",
                  "type": "uint64"
                },
                {
                  "internalType": "uint64",
                  "name": "endDate",
                  "type": "uint64"
                },
                {
                  "internalType": "uint64",
                  "name": "startTime",
                  "type": "uint64"
                },
                {
                  "internalType": "uint64",
                  "name": "endTime",
                  "type": "uint64"
                },
                {
                  "internalType": "string",
                  "name": "eventLocation",
                  "type": "string"
                },
                {
                  "internalType": "bool",
                  "name": "isActive",
                  "type": "bool"
                },
                {
                  "internalType": "uint256",
                  "name": "ticketPrice",
                  "type": "uint256"
                },
                {
                  "internalType": "uint256",
                  "name": "fundsHeld",
                  "type": "uint256"
                },
                {
                  "internalType": "uint256",
                  "name": "minimumAge",
                  "type": "uint256"
                },
                {
                  "internalType": "bool",
                  "name": "isCanceled",
                  "type": "bool"
                },
                {
                  "internalType": "bool",
                  "name": "fundsReleased",
                  "type": "bool"
                },
                {
                  "internalType": "address",
                  "name": "paymentToken",
                  "type": "address"
                }
              ],
              "internalType": "struct EventChain.Event[]",
              "name": "",
              "type": "tuple[]"
            }
          ],
          "stateMutability": "view",
          "type": "function"
        },
        {
          "inputs": [],
          "name": "getEventLength",
          "outputs": [
            {
              "internalType": "uint256",
              "name": "",
              "type": "uint256"
            }
          ],
          "stateMutability": "view",
          "type": "function"
        },
        {
          "inputs": [
            {
              "internalType": "address",
              "name": "_creator",
              "type": "address"
            }
          ],
          "name": "getEventsByCreator",
          "outputs": [
            {
              "components": [
                {
                  "internalType": "address",
                  "name": "owner",
                  "type": "address"
                },
                {
                  "internalType": "string",
                  "name": "eventName",
                  "type": "string"
                },
                {
                  "internalType": "string",
                  "name": "eventCardImgUrl",
                  "type": "string"
                },
                {
                  "internalType": "string",
                  "name": "eventDetails",
                  "type": "string"
                },
                {
                  "internalType": "uint64",
                  "name": "startDate",
                  "type": "uint64"
                },
                {
                  "internalType": "uint64",
                  "name": "endDate",
                  "type": "uint64"
                },
                {
                  "internalType": "uint64",
                  "name": "startTime",
                  "type": "uint64"
                },
                {
                  "internalType": "uint64",
                  "name": "endTime",
                  "type": "uint64"
                },
                {
                  "internalType": "string",
                  "name": "eventLocation",
                  "type": "string"
                },
                {
                  "internalType": "bool",
                  "name": "isActive",
                  "type": "bool"
                },
                {
                  "internalType": "uint256",
                  "name": "ticketPrice",
                  "type": "uint256"
                },
                {
                  "internalType": "uint256",
                  "name": "fundsHeld",
                  "type": "uint256"
                },
                {
                  "internalType": "uint256",
                  "name": "minimumAge",
                  "type": "uint256"
                },
                {
                  "internalType": "bool",
                  "name": "isCanceled",
                  "type": "bool"
                },
                {
                  "internalType": "bool",
                  "name": "fundsReleased",
                  "type": "bool"
                },
                {
                  "internalType": "address",
                  "name": "paymentToken",
                  "type": "address"
                }
              ],
              "internalType": "struct EventChain.Event[]",
              "name": "",
              "type": "tuple[]"
            }
          ],
          "stateMutability": "view",
          "type": "function"
        },
        {
          "inputs": [],
          "name": "getUserEvents",
          "outputs": [
            {
              "internalType": "uint256[]",
              "name": "",
              "type": "uint256[]"
            },
            {
              "components": [
                {
                  "internalType": "address",
                  "name": "owner",
                  "type": "address"
                },
                {
                  "internalType": "string",
                  "name": "eventName",
                  "type": "string"
                },
                {
                  "internalType": "string",
                  "name": "eventCardImgUrl",
                  "type": "string"
                },
                {
                  "internalType": "string",
                  "name": "eventDetails",
                  "type": "string"
                },
                {
                  "internalType": "uint64",
                  "name": "startDate",
                  "type": "uint64"
                },
                {
                  "internalType": "uint64",
                  "name": "endDate",
                  "type": "uint64"
                },
                {
                  "internalType": "uint64",
                  "name": "startTime",
                  "type": "uint64"
                },
                {
                  "internalType": "uint64",
                  "name": "endTime",
                  "type": "uint64"
                },
                {
                  "internalType": "string",
                  "name": "eventLocation",
                  "type": "string"
                },
                {
                  "internalType": "bool",
                  "name": "isActive",
                  "type": "bool"
                },
                {
                  "internalType": "uint256",
                  "name": "ticketPrice",
                  "type": "uint256"
                },
                {
                  "internalType": "uint256",
                  "name": "fundsHeld",
                  "type": "uint256"
                },
                {
                  "internalType": "uint256",
                  "name": "minimumAge",
                  "type": "uint256"
                },
                {
                  "internalType": "bool",
                  "name": "isCanceled",
                  "type": "bool"
                },
                {
                  "internalType": "bool",
                  "name": "fundsReleased",
                  "type": "bool"
                },
                {
                  "internalType": "address",
                  "name": "paymentToken",
                  "type": "address"
                }
              ],
              "internalType": "struct EventChain.Event[]",
              "name": "",
              "type": "tuple[]"
            }
          ],
          "stateMutability": "view",
          "type": "function"
        },
        {
          "inputs": [
            {
              "internalType": "uint256",
              "name": "",
              "type": "uint256"
            },
            {
              "internalType": "address",
              "name": "",
              "type": "address"
            }
          ],
          "name": "hasPurchasedTicket",
          "outputs": [
            {
              "internalType": "bool",
              "name": "",
              "type": "bool"
            }
          ],
          "stateMutability": "view",
          "type": "function"
        },
        {
          "inputs": [
            {
              "internalType": "address",
              "name": "from",
              "type": "address"
            },
            {
              "internalType": "uint256",
              "name": "value",
              "type": "uint256"
            },
            {
              "internalType": "bytes",
              "name": "data",
              "type": "bytes"
            }
          ],
          "name": "onTokenTransfer",
          "outputs": [
            {
              "internalType": "bool",
              "name": "",
              "type": "bool"
            }
          ],
          "stateMutability": "nonpayable",
          "type": "function"
        },
        {
          "inputs": [],
          "name": "paused",
          "outputs": [
            {
              "internalType": "bool",
              "name": "",
              "type": "bool"
            }
          ],
          "stateMutability": "view",
          "type": "function"
        },
        {
          "inputs": [
            {
              "internalType": "uint256",
              "name": "_index",
              "type": "uint256"
            }
          ],
          "name": "releaseFunds",
          "outputs": [],
          "stateMutability": "nonpayable",
          "type": "function"
        },
        {
          "inputs": [
            {
              "internalType": "uint256",
              "name": "_index",
              "type": "uint256"
            }
          ],
          "name": "releaseFunds1",
          "outputs": [],
          "stateMutability": "nonpayable",
          "type": "function"
        },
        {
          "inputs": [
            {
              "internalType": "uint256",
              "name": "_index",
              "type": "uint256"
            }
          ],
          "name": "requestRefund",
          "outputs": [],
          "stateMutability": "nonpayable",
          "type": "function"
        },
        {
          "inputs": [
            {
              "internalType": "uint256",
              "name": "_index",
              "type": "uint256"
            }
          ],
          "name": "requestRefund1",
          "outputs": [],
          "stateMutability": "nonpayable",
          "type": "function"
        },
        {
          "inputs": [
            {
              "internalType": "address",
              "name": "",
              "type": "address"
            }
          ],
          "name": "supportedTokens",
          "outputs": [
            {
              "internalType": "bool",
              "name": "",
              "type": "bool"
            }
          ],
          "stateMutability": "view",
          "type": "function"
        },
        {
          "inputs": [],
          "name": "ubiPool",
          "outputs": [
            {
              "internalType": "address",
              "name": "",
              "type": "address"
            }
          ],
          "stateMutability": "view",
          "type": "function"
        },
        {
          "stateMutability": "payable",
          "type": "receive"
        }
      ],
      "evm": {
        "bytecode": {
          "linkReferences": {},
          "object": "60806040523461016857613a3a8038038061001981610183565b928339810190602081830312610168578051906001600160401b038211610168570181601f82011215610168578051916001600160401b03831161016d578260051b9160208061006a818601610183565b80968152019382010191821161016857602001915b818310610148576001600081815560028054610100600160a81b0319167443d72ff17701b2da814620735c39c620ce0ea4a10017905580805260208290527fa6eef7e35abe7026729641147f7915573c7e97b47efa546f5f6e3230263bcb49805460ff191690921790915584905b815181101561013957600581901b820160200151600191906001600160a01b031660008161011e575b5050016100ed565b604091815283602052208260ff198254161790558380610116565b60405161389190816101a98239f35b82516001600160a01b03811681036101685781526020928301920161007f565b600080fd5b634e487b7160e01b600052604160045260246000fd5b6040519190601f01601f191682016001600160401b0381118382101761016d5760405256fe6080604052600436101561001b575b361561001957600080fd5b005b60003560e01c80630b79143014612a4d5780630ec7c3ff146127fc5780630f977561146127075780631ac78969146126ea578063200205811461269c5780633f69babd146125b2578063439fd35f1461255a57806344134a451461252e5780634d68282f1461234357806350d9c62d146123265780635c975abb146123035780635c98dfa1146122e55780635ea102b0146122c9578063617148e5146122ac57806367dd74ca14611eda57806368c4ac2614611e9b5780637b426cbf14611e7e5780638607498514611e62578063a06f7da714611e35578063a4b2409e14611aeb578063a4c0ed3614611794578063abf45ec814611778578063b5e4128714611753578063b98079bc14611661578063c27a500d146115ad578063cb71146e14611591578063ccfd6d3c14611465578063d166360c14611235578063e0c14377146111e45763f57c7ad80361000e57346111df576101603660031901126111df576004356001600160401b0381116111df5761019b903690600401612f3c565b906024356001600160401b0381116111df576101bb903690600401612f3c565b906044356001600160401b0381116111df576101db903690600401612f3c565b906064356001600160401b0381168091036111df576084356001600160401b0381168091036111df5760a4356001600160401b0381168091036111df5760c435916001600160401b0383168093036111df5760e4356001600160401b0381116111df5761024c903690600401612f3c565b9490956101043597610144359960018060a01b038b16809b036111df5761027860ff6002541615613024565b8d15158e816111d3575b501561119f578b151580611194575b156111615781151580611155575b1561111e5787151580611113575b156110db57891515806110c7575b156110925742841061104d57610e10840180851161095d578510611013578a600052600160205260ff6040600020541615610fda578c9b8e6040519d8e9161030283612c3f565b338352369061031092613712565b9060200152369061032092613712565b60408c0152369061033092613712565b60608a0152608089015260a088015260c087015260e0860152369061035492613712565b610100840152600161012084015261014083015260006101608301819052610124356101808401526101a083018190526101c08301526101e0820152600354600160401b811015610a34578060016103b192016003556003612be9565b610c9357815181546001600160a01b0319166001600160a01b039190911617815560208201518051906001600160401b038211610a345781906103f76001850154612c05565b601f8111610f87575b50602090601f8311600114610f1657600092610f0b575b50508160011b916000199060031b1c19161760018201555b60408201518051906001600160401b038211610a345781906104546002850154612c05565b601f8111610eb8575b50602090601f8311600114610e4757600092610e3c575b50508160011b916000199060031b1c19161760028201555b60608201518051906001600160401b038211610a345781906104b16003850154612c05565b601f8111610de9575b50602090601f8311600114610d7857600092610d6d575b50508160011b916000199060031b1c19161760038201555b60808281015160a084015160c08086015160e087015160409390931b67ffffffffffffffff60401b166001600160401b0394851617941b67ffffffffffffffff60801b1693909317921b6001600160c01b0319169190911760048301556101008301518051918211610a34576105626005840154612c05565b601f8111610d26575b50602090601f8311600114610cb457600a93929160009183610ca9575b50508160011b916000199060031b1c19161760058201555b6105c06101208401511515600683019060ff801983541691151516179055565b610140830151600782015561016083015160088201556101808301516009820155016105ff6101a08301511515829060ff801983541691151516179055565b6101c0820151815461ff00191690151560081b61ff00161781556101e0820151815462010000600160b01b03191660109190911b62010000600160b01b03161790553360009081526005602052604090208054600160401b811015610a345761066d91600182018155612be9565b610c9357815181546001600160a01b0319166001600160a01b03919091161781556020820151805160018301916001600160401b038211610a345781906106b48454612c05565b601f8111610c40575b50602090601f8311600114610bdb57600092610bd0575b50508160011b916000199060031b1c19161790555b6002810160408301518051906001600160401b038211610a3457819061070f8454612c05565b601f8111610b7d575b50602090601f8311600114610b1857600092610b0d575b50508160011b916000199060031b1c19161790555b6003810160608301518051906001600160401b038211610a3457819061076a8454612c05565b601f8111610aba575b50602090601f8311600114610a5557600092610a4a575b50508160011b916000199060031b1c19161790555b60808281015160a084015160c08086015160e087015160409390931b67ffffffffffffffff60401b166001600160401b0394851617941b67ffffffffffffffff60801b1693909317921b6001600160c01b031916919091176004830155610100830151805160058401929091908211610a345761081c8354612c05565b601f81116109ec575b50602090601f831160011461097e579180600a94926101e09694600092610973575b50508160011b916000199060031b1c19161790555b61087c6101208501511515600683019060ff801983541691151516179055565b61014084015160078201556101608401516008820155610180840151600982015501916108bc6101a08201511515849060ff801983541691151516179055565b6101c0810151835461ff00191690151560081b61ff00161783550151815462010000600160b01b03191660109190911b62010000600160b01b031617905560035460001981019190821161095d577ffc695dea2478fb938a11068aeedddd7046a5fe655f136e30a325d353fe187a459083604051916020835281602084015260408301376000604085830101526040813395601f80199101168101030190a3005b634e487b7160e01b600052601160045260246000fd5b015190503880610847565b90601f1983169184600052816000209260005b8181106109d457509260019285926101e09896600a9896106109bb575b505050811b01905561085c565b015160001960f88460031b161c191690553880806109ae565b92936020600181928786015181550195019301610991565b836000526020600020601f840160051c81019160208510610a2a575b601f0160051c01905b818110610a1e5750610825565b60008155600101610a11565b9091508190610a08565b634e487b7160e01b600052604160045260246000fd5b01519050388061078a565b60008581528281209350601f198516905b818110610aa25750908460019594939210610a89575b505050811b01905561079f565b015160001960f88460031b161c19169055388080610a7c565b92936020600181928786015181550195019301610a66565b909150836000526020600020601f840160051c81019160208510610b03575b90601f859493920160051c01905b818110610af45750610773565b60008155849350600101610ae7565b9091508190610ad9565b01519050388061072f565b60008581528281209350601f198516905b818110610b655750908460019594939210610b4c575b505050811b019055610744565b015160001960f88460031b161c19169055388080610b3f565b92936020600181928786015181550195019301610b29565b909150836000526020600020601f840160051c81019160208510610bc6575b90601f859493920160051c01905b818110610bb75750610718565b60008155849350600101610baa565b9091508190610b9c565b0151905038806106d4565b60008581528281209350601f198516905b818110610c285750908460019594939210610c0f575b505050811b0190556106e9565b015160001960f88460031b161c19169055388080610c02565b92936020600181928786015181550195019301610bec565b909150836000526020600020601f840160051c81019160208510610c89575b90601f859493920160051c01905b818110610c7a57506106bd565b60008155849350600101610c6d565b9091508190610c5f565b634e487b7160e01b600052600060045260246000fd5b015190503880610588565b9060058401600052806000209160005b601f1985168110610d0e5750918391600193600a9695601f19811610610cf5575b505050811b0160058201556105a0565b015160001960f88460031b161c19169055388080610ce5565b91926020600181928685015181550194019201610cc4565b600584016000526020600020601f840160051c810160208510610d66575b601f830160051c82018110610d5a57505061056b565b60008155600101610d44565b5080610d44565b0151905038806104d1565b92506003840160005280600020906000935b601f1984168510610dce576001945083601f19811610610db5575b505050811b0160038201556104e9565b015160001960f88460031b161c19169055388080610da5565b81810151835560209485019460019093019290910190610d8a565b909150600384016000526020600020601f840160051c810160208510610e35575b90849392915b601f830160051c82018110610e265750506104ba565b60008155859450600101610e10565b5080610e0a565b015190503880610474565b92506002840160005280600020906000935b601f1984168510610e9d576001945083601f19811610610e84575b505050811b01600282015561048c565b015160001960f88460031b161c19169055388080610e74565b81810151835560209485019460019093019290910190610e59565b909150600284016000526020600020601f840160051c810160208510610f04575b90849392915b601f830160051c82018110610ef557505061045d565b60008155859450600101610edf565b5080610ed9565b015190503880610417565b92506001840160005280600020906000935b601f1984168510610f6c576001945083601f19811610610f53575b505050811b01600182015561042f565b015160001960f88460031b161c19169055388080610f43565b81810151835560209485019460019093019290910190610f28565b909150600184016000526020600020601f840160051c810160208510610fd3575b90849392915b601f830160051c82018110610fc4575050610400565b60008155859450600101610fae565b5080610fa8565b60405162461bcd60e51b81526020600482015260116024820152702ab739bab83837b93a32b2103a37b5b2b760791b6044820152606490fd5b60405162461bcd60e51b8152602060048201526012602482015271111d5c985d1a5bdb881d1bdbc81cda1bdc9d60721b6044820152606490fd5b60405162461bcd60e51b815260206004820152601960248201527f53746172742064617465206d75737420626520667574757265000000000000006044820152606490fd5b60405162461bcd60e51b815260206004820152600d60248201526c496e76616c696420707269636560981b6044820152606490fd5b5069d3c21bcecceda10000008a11156102bb565b60405162461bcd60e51b815260206004820152601060248201526f24b73b30b634b2103637b1b0ba34b7b760811b6044820152606490fd5b5060968811156102ad565b60405162461bcd60e51b815260206004820152600f60248201526e496e76616c69642064657461696c7360881b6044820152606490fd5b506103e882111561029f565b60405162461bcd60e51b815260206004820152600b60248201526a125b9d985b1a590815549360aa1b6044820152606490fd5b5060c88c1115610291565b60405162461bcd60e51b815260206004820152600c60248201526b496e76616c6964206e616d6560a01b6044820152606490fd5b6064915011158e610282565b600080fd5b346111df5760203660031901126111df576004356112056003548210613407565b600052600460205261123161121d60406000206136be565b604051918291602083526020830190612f69565b0390f35b346111df5760203660031901126111df5760043561126761125582612bb4565b50546001600160a01b031633146133c9565b61126f613749565b61127c6003548210613407565b6112a06001600160401b03600461129284612bb4565b50015460401c164211613446565b60ff600a6112ad83612bb4565b5001541661140e576112d260ff600a6112c584612bb4565b50015460081c1615613492565b60086112dd82612bb4565b500154600060086112ed84612bb4565b500155600a6112fb83612bb4565b5001805461ff00191661010017905561131382612bb4565b50600a015460405163a9059cbb60e01b81523360048201526024810183905290602090829060101c6001600160a01b0316816000816044810103925af1908115611402576000916113d3575b50156113975760207f80230996023d69b50793fa73f1919127c9d8e741d3989743c479169f22e7a28891604051908152a26001600055005b60405162461bcd60e51b8152602060048201526014602482015273119d5b99081d1c985b9cd9995c8819985a5b195960621b6044820152606490fd5b6113f5915060203d6020116113fb575b6113ed8183612c5b565b810190613628565b8361135f565b503d6113e3565b6040513d6000823e3d90fd5b60405162461bcd60e51b815260206004820152602960248201527f43616e6e6f742072656c656173652066756e647320666f7220612063616e63656044820152681b195908195d995b9d60ba1b6064820152608490fd5b346111df5760003660031901126111df576003546000805b82811061153d57506114976114918261315a565b91613204565b916000805b8281106114b55750505061123160405192839283612ed3565b6114be81612bb4565b50546001600160a01b0316331480611526575b6114de575b60010161149c565b9061151e81836114f060019488613254565b526115036114fd85612bb4565b50613268565b61150d8289613254565b526115188188613254565b50613134565b9190506114d6565b5060ff600661153483612bb4565b500154166114d1565b61154681612bb4565b50546001600160a01b031633148061157a575b611566575b60010161147d565b90611572600191613134565b91905061155e565b5060ff600661158883612bb4565b50015416611559565b346111df5760003660031901126111df57602060405160c88152f35b346111df5760003660031901126111df576003546000805b82811061162f57506115d96114918261315a565b916000805b8281106115f75750505061123160405192839283612ed3565b60ff600661160483612bb4565b50015416611615575b6001016115de565b9061162781836114f060019488613254565b91905061160d565b60ff600661163c83612bb4565b5001541661164d575b6001016115c5565b90611659600191613134565b919050611645565b346111df5760203660031901126111df5760043561167d61318c565b5060035481101561171757806112316116986116fb93612bb4565b508260005260046020526116b0604060002093612bb4565b5060018060a01b0390541660005260056020526117096116e66116e06116da604060002094613268565b956136be565b92613370565b91604051958695606087526060870190612d61565b908582036020870152612f69565b908382036040850152612e7a565b60405162461bcd60e51b8152602060048201526014602482015273115d995b9d08191bd95cc81b9bdd08195e1a5cdd60621b6044820152606490fd5b346111df5760003660031901126111df57602060405169d3c21bcecceda10000008152f35b346111df5760003660031901126111df57602060405160968152f35b346111df5760603660031901126111df576117ad612f26565b602435906044356001600160401b0381116111df576117d0903690600401612f3c565b7362b8b11039fcfe5ab0c56e502b1c372a3d2a9c7a3303611ab6576020116111df5735906118016003548310612fa6565b61181f61180d83612bb4565b50546001600160a01b03161515612fe2565b61182e60ff6002541615613024565b61183782612bb4565b5090600a82017362b8b11039fcfe5ab0c56e502b1c372a3d2a9c7a60018060a01b03825460101c1603611a7d5761187c6001600160401b036004850154164210613522565b61188c60ff60068501541661355e565b836000526006602052604060002060018060a01b0383166000526020526118bb60ff604060002054161561359b565b8360005260046020526118d6611388604060002054106135db565b60078301548503611a4557836000526006602052604060002060018060a01b0383166000526020526040600020600160ff19825416179055836000526004602052611925826040600020613658565b606485028581046064148615171561095d57612710900461194681876130e5565b9080151580611a2e575b6119a2575b50611974600860008051602061383c833981519152950191825461361b565b905554604080519586526001600160a01b0360109290921c82166020870152911693a3602060405160018152f35b825460025460405163a9059cbb60e01b81526001600160a01b0360089290921c8216600482015260248101939093526020918391604491839160009160101c165af180156114025760008051602061383c8339815191529561197492600892611a0f575b50955050611955565b611a279060203d6020116113fb576113ed8183612c5b565b5089611a06565b5060025460081c6001600160a01b03161515611950565b60405162461bcd60e51b815260206004820152601060248201526f125b98dbdc9c9958dd08185b5bdd5b9d60821b6044820152606490fd5b60405162461bcd60e51b815260206004820152601160248201527027b7363c903337b9102392103a37b5b2b760791b6044820152606490fd5b60405162461bcd60e51b815260206004820152600d60248201526c27b7363c902392103a37b5b2b760991b6044820152606490fd5b346111df5760203660031901126111df57600435611b07613749565b611b146003548210612fa6565b611b2061180d82612bb4565b611b2f60ff6002541615613024565b6000818152600660209081526040808320338452909152902054611b559060ff16613062565b6007611b6082612bb4565b50015490611b6d81612bb4565b50600a015460101c6001600160a01b03167362b8b11039fcfe5ab0c56e502b1c372a3d2a9c7a8114611e17575b8015838115611df857508260005260076020528360406000205410611db35783905b60ff600a611bc986612bb4565b5001541615611d7b575b60008481526006602090815260408083203384529091529020805460ff1916905515611d515750508060005260076020526040600020611c148382546130e5565b9055600080808085335af1611c276134f2565b5015611d17575b80600052600460205260406000209060005b825480821015611d0e57611c548285613640565b905460039190911b1c6001600160a01b03163314611c755750600101611c40565b91929091600019810190811161095d57611cdb92611cb2611c99611cd69385613640565b905460039190911b1c6001600160a01b03169184613640565b81546001600160a01b0393841660039290921b91821b9390911b1916919091179055565b61367b565b6040519182527f7a482fdeb6bc9a1376f597068a214a7a39472bb2eff1b8cad21ba04f49ddca1b60203393a36001600055005b50509050611cdb565b60405162461bcd60e51b815260206004820152601260248201527110985cd9481c99599d5b990819985a5b195960721b6044820152606490fd5b611d76916008611d6085612bb4565b5001611d6d8382546130e5565b9055339061376b565b611c2e565b90506001600160401b036004611d9085612bb4565b500154169061464f19820191821161095d57611dae859242106130f2565b611bd3565b60405162461bcd60e51b815260206004820152601760248201527f496e73756666696369656e7420426173652066756e64730000000000000000006044820152606490fd5b90611e12826008611e0887612bb4565b50015410156130a4565b611bbc565b9160638102908082046063149015171561095d576064900491611b9a565b346111df5760003660031901126111df5760025460405160089190911c6001600160a01b03168152602090f35b346111df5760003660031901126111df57602060405160648152f35b346111df5760003660031901126111df5760206040516146508152f35b346111df5760203660031901126111df576001600160a01b03611ebc612f26565b166000526001602052602060ff604060002054166040519015158152f35b60203660031901126111df57600435611ef1613749565b611efe6003548210612fa6565b611f0a61180d82612bb4565b611f1960ff6002541615613024565b611f2281612bb4565b5090611f3c6001600160401b036004840154164210613522565b611f4c60ff60068401541661355e565b6000818152600660209081526040808320338452909152902054611f739060ff161561359b565b806000526004602052611f8e611388604060002054106135db565b6007820154600a8301805491939160101c6001600160a01b0316806120975750905082340361205a5761205060008051602061383c833981519152918360005260076020526040600020611fe386825461361b565b90555b836000526006602052604060002060018060a01b0333166000526020526040600020600160ff1982541617905583600052600460205261202a336040600020613658565b546040805195865260109190911c6001600160a01b031660208601523394918291820190565b0390a36001600055005b60405162461bcd60e51b8152602060048201526015602482015274125b98dbdc9c9958dd0810985cd948185b5bdd5b9d605a1b6044820152606490fd5b7362b8b11039fcfe5ab0c56e502b1c372a3d2a9c7a810361217b575090600091602061211660405186838201528281526120d2604082612c5b565b8354604051630200057560e51b8152306004820152602481018a90526060604482015296879360109290921c6001600160a01b031692849283916064830190612d20565b03925af19182156114025760008051602061383c833981519152936120509361215e575b50612157600861214d60648904896130e5565b920191825461361b565b9055611fe6565b6121769060203d6020116113fb576113ed8183612c5b565b61213a565b90604051636eb1769f60e11b8152336004820152306024820152602081604481865afa8015611402578691600091612277575b50106122395760206000926064604051809581936323b872dd60e01b83523360048401523060248401528a60448401525af180156114025760008051602061383c8339815191529361220e6008926120509560009161221a575b506137fd565b0161215786825461361b565b612233915060203d6020116113fb576113ed8183612c5b565b89612208565b60405162461bcd60e51b8152602060048201526016602482015275496e73756666696369656e7420616c6c6f77616e636560501b6044820152606490fd5b9150506020813d6020116122a4575b8161229360209383612c5b565b810103126111df57859051876121ae565b3d9150612286565b346111df5760003660031901126111df5760206040516113888152f35b346111df5760003660031901126111df57602060405160008152f35b346111df5760003660031901126111df576020600354604051908152f35b346111df5760003660031901126111df57602060ff600254166040519015158152f35b346111df5760003660031901126111df5760206040516103e88152f35b346111df5760203660031901126111df5760043561236361125582612bb4565b61236b613749565b6123786003548210613407565b61238e6001600160401b03600461129284612bb4565b60ff600a61239b83612bb4565b500154166124d9576123b360ff600a6112c584612bb4565b6123bc81612bb4565b50600a015460101c6001600160a01b031680612486575060008181526007602052604081208054908290559080808084335af16123f76134f2565b501561244a5760207f80230996023d69b50793fa73f1919127c9d8e741d3989743c479169f22e7a288915b600a61242d85612bb4565b5001805461ff001916610100179055604051908152a26001600055005b60405162461bcd60e51b815260206004820152601460248201527310985cd9481d1c985b9cd9995c8819985a5b195960621b6044820152606490fd5b60207f80230996023d69b50793fa73f1919127c9d8e741d3989743c479169f22e7a288916124d460086124b886612bb4565b5001548092600060086124ca89612bb4565b500155339061376b565b612422565b60405162461bcd60e51b815260206004820152602760248201527f43616e6e6f742072656c656173652066756e647320666f722063616e63656c656044820152661908195d995b9d60ca1b6064820152608490fd5b346111df5760203660031901126111df5760043560005260076020526020604060002054604051908152f35b346111df5760403660031901126111df576024356001600160a01b03811681036111df57600435600052600660205260406000209060018060a01b0316600052602052602060ff604060002054166040519015158152f35b346111df5760203660031901126111df576004356125d261125582612bb4565b6125df6003548210612fa6565b6125eb61180d82612bb4565b6125fa60ff6002541615613024565b60ff600661260783612bb4565b500154161561266457600661261b82612bb4565b5001805460ff19169055600a61263082612bb4565b5001805460ff191660011790557fceaf11772900fe569752a0207c8639fb8228eb8663456dc9eaa3a08f927a8705600080a2005b60405162461bcd60e51b815260206004820152601060248201526f105b1c9958591e4818d85b98d95b195960821b6044820152606490fd5b346111df5760203660031901126111df576001600160a01b036126bd612f26565b1660005260056020526112316126d66040600020613370565b604051918291602083526020830190612e7a565b346111df5760003660031901126111df576020604051610e108152f35b346111df5760003660031901126111df576003543390600090815b8181106127be575061273c6127368361315a565b92613204565b92600090815b8381106127585760405180611231888883612ed3565b80600052600660205260ff604080600020600090858252602052205416612782575b600101612742565b916127b6818461279460019489613254565b526127a16114fd86612bb4565b6127ab828a613254565b526115188189613254565b92905061277a565b80600052600660205260ff6040806000206000908782526020522054166127e8575b600101612722565b916127f4600191613134565b9290506127e0565b346111df5760203660031901126111df57600435612818613749565b6128256003548210612fa6565b61283161180d82612bb4565b61284060ff6002541615613024565b60008181526006602090815260408083203384529091529020546128669060ff16613062565b600761287182612bb4565b500154907362b8b11039fcfe5ab0c56e502b1c372a3d2a9c7a61289382612bb4565b50600a015460101c6001600160a01b031614612a2f575b6128b9826008611e0884612bb4565b60ff600a6128c683612bb4565b50015416156129fb575b60008181526006602090815260408083203384529091529020805460ff1916905560086128fc82612bb4565b50016129098382546130e5565b905580600052600460205260406000209060005b8254808210156129f2576129318285613640565b905460039190911b1c6001600160a01b03163314612952575060010161291d565b91929091600019810190811161095d5761297692611cb2611c99611cd69385613640565b61297f81612bb4565b50600a015460405163a9059cbb60e01b81523360048201526024810184905290602090829060101c6001600160a01b0316816000816044810103925af1801561140257611cdb916000916129d357506137fd565b6129ec915060203d6020116113fb576113ed8183612c5b565b84612208565b50509050612976565b6001600160401b036004612a0e83612bb4565b5001541661464f19810190811161095d57612a2a9042106130f2565b6128d0565b9060638102908082046063149015171561095d5760649004906128aa565b346111df5760203660031901126111df576004356003548110156111df57612a7490612bb4565b5080546001600160a01b0316612a8c60018301612c7c565b91612a9960028201612c7c565b612aa560038301612c7c565b60048301549290612ab860058301612c7c565b93600683015460ff1694600784015491600885015493600986015495600a0154966040519a8b9a8b5260208b0161020090526102008b01612af891612d20565b8a810360408c0152612b0991612d20565b89810360608b0152612b1a91612d20565b906001600160401b03811660808a01528060401c6001600160401b031660a08a01528060801c6001600160401b031660c08a015260c01c60e0890152878103610100890152612b6891612d20565b94151561012087015261014086015261016085015261018084015260ff81811615156101a0850152600882901c1615156101c084015260101c6001600160a01b03166101e08301520390f35b600354811015612bd3576003600052600b602060002091020190600090565b634e487b7160e01b600052603260045260246000fd5b8054821015612bd357600052600b602060002091020190600090565b90600182811c92168015612c35575b6020831014612c1f57565b634e487b7160e01b600052602260045260246000fd5b91607f1691612c14565b61020081019081106001600160401b03821117610a3457604052565b90601f801991011681019081106001600160401b03821117610a3457604052565b9060405191826000825492612c9084612c05565b8084529360018116908115612cfe5750600114612cb7575b50612cb592500383612c5b565b565b90506000929192526020600020906000915b818310612ce2575050906020612cb59282010138612ca8565b6020919350806001915483858901015201910190918492612cc9565b905060209250612cb594915060ff191682840152151560051b82010138612ca8565b919082519283825260005b848110612d4c575050826000602080949584010152601f8019910116010190565b80602080928401015182828601015201612d2b565b9060018060a01b0382511681526101e0612e19612db9612da7612d9560208701516102006020880152610200870190612d20565b60408701518682036040880152612d20565b60608601518582036060870152612d20565b6001600160401b0360808601511660808501526001600160401b0360a08601511660a08501526001600160401b0360c08601511660c08501526001600160401b0360e08601511660e0850152610100850151848203610100860152612d20565b9261012081015115156101208401526101408101516101408401526101608101516101608401526101808101516101808401526101a081015115156101a08401526101c081015115156101c08401528160018060a01b039101511691015290565b9080602083519182815201916020808360051b8301019401926000915b838310612ea657505050505090565b9091929394602080612ec4600193601f198682030187528951612d61565b97019301930191939290612e97565b9291604084019360408152825180955260206060820193016000955b808710612f0e575050612f0b9394506020818403910152612e7a565b90565b90936020806001928751815201950196019590612eef565b600435906001600160a01b03821682036111df57565b9181601f840112156111df578235916001600160401b0383116111df57602083818601950101116111df57565b906020808351928381520192019060005b818110612f875750505090565b82516001600160a01b0316845260209384019390920191600101612f7a565b15612fad57565b60405162461bcd60e51b815260206004820152600d60248201526c125b9d985b1a5908195d995b9d609a1b6044820152606490fd5b15612fe957565b60405162461bcd60e51b8152602060048201526013602482015272115d995b9d08191bd95cdb89dd08195e1a5cdd606a1b6044820152606490fd5b1561302b57565b60405162461bcd60e51b815260206004820152600f60248201526e10dbdb9d1c9858dd081c185d5cd959608a1b6044820152606490fd5b1561306957565b60405162461bcd60e51b8152602060048201526013602482015272139bc81d1a58dad95d081c1d5c98da185cd959606a1b6044820152606490fd5b156130ab57565b60405162461bcd60e51b8152602060048201526012602482015271496e73756666696369656e742066756e647360701b6044820152606490fd5b9190820391821161095d57565b156130f957565b60405162461bcd60e51b81526020600482015260136024820152721499599d5b99081c195c9a5bd908195b991959606a1b6044820152606490fd5b600019811461095d5760010190565b6001600160401b038111610a345760051b60200190565b9061316482613143565b6131716040519182612c5b565b8281528092613182601f1991613143565b0190602036910137565b6040519061319982612c3f565b60006101e08382815260606020820152606060408201526060808201528260808201528260a08201528260c08201528260e0820152606061010082015282610120820152826101408201528261016082015282610180820152826101a0820152826101c08201520152565b9061320e82613143565b61321b6040519182612c5b565b828152809261322c601f1991613143565b019060005b82811061323d57505050565b60209061324861318c565b82828501015201613231565b8051821015612bd35760209160051b010190565b9060405161327581612c3f565b82546001600160a01b031681529182906101e090600a9061329860018201612c7c565b60208501526132a960028201612c7c565b60408501526132ba60038201612c7c565b606085015260048101546001600160401b03811660808601526001600160401b038160401c1660a08601526001600160401b038160801c1660c086015260c01c60e085015261330b60058201612c7c565b61010085015260ff6006820154161515610120850152600781015461014085015260088101546101608501526009810154610180850152015460ff811615156101a084015260ff8160081c1615156101c084015260018060a01b039060101c16910152565b90815461337c81613143565b9261338a6040519485612c5b565b818452602084019060005260206000206000915b8383106133ab5750505050565b600b60206001926133bb85613268565b81520192019201919061339e565b156133d057565b60405162461bcd60e51b815260206004820152600f60248201526e2737ba1032bb32b73a1037bbb732b960891b6044820152606490fd5b1561340e57565b60405162461bcd60e51b815260206004820152601060248201526f125b9d985b1a5908195d995b9d08125160821b6044820152606490fd5b1561344d57565b60405162461bcd60e51b815260206004820152601760248201527f4576656e7420686173206e6f7420656e646564207965740000000000000000006044820152606490fd5b1561349957565b60405162461bcd60e51b8152602060048201526016602482015275119d5b991cc8185b1c9958591e481c995b19585cd95960521b6044820152606490fd5b6001600160401b038111610a3457601f01601f191660200190565b3d1561351d573d90613503826134d7565b916135116040519384612c5b565b82523d6000602084013e565b606090565b1561352957565b60405162461bcd60e51b815260206004820152600d60248201526c115d995b9d08195e1c1a5c9959609a1b6044820152606490fd5b1561356557565b60405162461bcd60e51b815260206004820152600e60248201526d4576656e7420696e61637469766560901b6044820152606490fd5b156135a257565b60405162461bcd60e51b8152602060048201526011602482015270105b1c9958591e481c1d5c98da185cd959607a1b6044820152606490fd5b156135e257565b60405162461bcd60e51b81526020600482015260116024820152704576656e7420617420636170616369747960781b6044820152606490fd5b9190820180921161095d57565b908160209103126111df575180151581036111df5790565b8054821015612bd35760005260206000200190600090565b90815491600160401b831015610a345782611cb2916001612cb595018155613640565b805480156136a85760001901906136928282613640565b81549060018060a01b039060031b1b1916905555565b634e487b7160e01b600052603160045260246000fd5b906040519182815491828252602082019060005260206000209260005b8181106136f0575050612cb592500383612c5b565b84546001600160a01b03168352600194850194879450602090930192016136db565b92919261371e826134d7565b9161372c6040519384612c5b565b8294818452818301116111df578281602093846000960137010152565b60026000541461375a576002600055565b633ee5aeb560e01b60005260046000fd5b60405163a9059cbb60e01b60208083019182526001600160a01b0394909416602483015260448083019590955293815290926000916137ab606482612c5b565b519082855af115611402576000513d6137f457506001600160a01b0381163b155b6137d35750565b635274afe760e01b60009081526001600160a01b0391909116600452602490fd5b600114156137cc565b1561380457565b60405162461bcd60e51b815260206004820152600f60248201526e151c985b9cd9995c8819985a5b1959608a1b6044820152606490fdfe504ef6dabca28c1452704d54bd8e25708d87e0c27d852eceea53a0c0d8986758a264697066735822122052b8401f4c9832d2cc0176ddfc7f7d9ce7078768c5eec678f157dcbc06a0a82c64736f6c634300081c0033",
          "opcodes": "PUSH1 0x80 PUSH1 0x40 MSTORE CALLVALUE PUSH2 0x168 JUMPI PUSH2 0x3A3A DUP1 CODESIZE SUB DUP1 PUSH2 0x19 DUP2 PUSH2 0x183 JUMP JUMPDEST SWAP3 DUP4 CODECOPY DUP2 ADD SWAP1 PUSH1 0x20 DUP2 DUP4 SUB SLT PUSH2 0x168 JUMPI DUP1 MLOAD SWAP1 PUSH1 0x1 PUSH1 0x1 PUSH1 0x40 SHL SUB DUP3 GT PUSH2 0x168 JUMPI ADD DUP2 PUSH1 0x1F DUP3 ADD SLT ISZERO PUSH2 0x168 JUMPI DUP1 MLOAD SWAP2 PUSH1 0x1 PUSH1 0x1 PUSH1 0x40 SHL SUB DUP4 GT PUSH2 0x16D JUMPI DUP3 PUSH1 0x5 SHL SWAP2 PUSH1 0x20 DUP1 PUSH2 0x6A DUP2 DUP7 ADD PUSH2 0x183 JUMP JUMPDEST DUP1 SWAP7 DUP2 MSTORE ADD SWAP4 DUP3 ADD ADD SWAP2 DUP3 GT PUSH2 0x168 JUMPI PUSH1 0x20 ADD SWAP2 JUMPDEST DUP2 DUP4 LT PUSH2 0x148 JUMPI PUSH1 0x1 PUSH1 0x0 DUP2 DUP2 SSTORE PUSH1 0x2 DUP1 SLOAD PUSH2 0x100 PUSH1 0x1 PUSH1 0xA8 SHL SUB NOT AND PUSH21 0x43D72FF17701B2DA814620735C39C620CE0EA4A100 OR SWAP1 SSTORE DUP1 DUP1 MSTORE PUSH1 0x20 DUP3 SWAP1 MSTORE PUSH32 0xA6EEF7E35ABE7026729641147F7915573C7E97B47EFA546F5F6E3230263BCB49 DUP1 SLOAD PUSH1 0xFF NOT AND SWAP1 SWAP3 OR SWAP1 SWAP2 SSTORE DUP5 SWAP1 JUMPDEST DUP2 MLOAD DUP2 LT ISZERO PUSH2 0x139 JUMPI PUSH1 0x5 DUP2 SWAP1 SHL DUP3 ADD PUSH1 0x20 ADD MLOAD PUSH1 0x1 SWAP2 SWAP1 PUSH1 0x1 PUSH1 0x1 PUSH1 0xA0 SHL SUB AND PUSH1 0x0 DUP2 PUSH2 0x11E JUMPI JUMPDEST POP POP ADD PUSH2 0xED JUMP JUMPDEST PUSH1 0x40 SWAP2 DUP2 MSTORE DUP4 PUSH1 0x20 MSTORE KECCAK256 DUP3 PUSH1 0xFF NOT DUP3 SLOAD AND OR SWAP1 SSTORE DUP4 DUP1 PUSH2 0x116 JUMP JUMPDEST PUSH1 0x40 MLOAD PUSH2 0x3891 SWAP1 DUP2 PUSH2 0x1A9 DUP3 CODECOPY RETURN JUMPDEST DUP3 MLOAD PUSH1 0x1 PUSH1 0x1 PUSH1 0xA0 SHL SUB DUP2 AND DUP2 SUB PUSH2 0x168 JUMPI DUP2 MSTORE PUSH1 0x20 SWAP3 DUP4 ADD SWAP3 ADD PUSH2 0x7F JUMP JUMPDEST PUSH1 0x0 DUP1 REVERT JUMPDEST PUSH4 0x4E487B71 PUSH1 0xE0 SHL PUSH1 0x0 MSTORE PUSH1 0x41 PUSH1 0x4 MSTORE PUSH1 0x24 PUSH1 0x0 REVERT JUMPDEST PUSH1 0x40 MLOAD SWAP2 SWAP1 PUSH1 0x1F ADD PUSH1 0x1F NOT AND DUP3 ADD PUSH1 0x1 PUSH1 0x1 PUSH1 0x40 SHL SUB DUP2 GT DUP4 DUP3 LT OR PUSH2 0x16D JUMPI PUSH1 0x40 MSTORE JUMP INVALID PUSH1 0x80 PUSH1 0x40 MSTORE PUSH1 0x4 CALLDATASIZE LT ISZERO PUSH2 0x1B JUMPI JUMPDEST CALLDATASIZE ISZERO PUSH2 0x19 JUMPI PUSH1 0x0 DUP1 REVERT JUMPDEST STOP JUMPDEST PUSH1 0x0 CALLDATALOAD PUSH1 0xE0 SHR DUP1 PUSH4 0xB791430 EQ PUSH2 0x2A4D JUMPI DUP1 PUSH4 0xEC7C3FF EQ PUSH2 0x27FC JUMPI DUP1 PUSH4 0xF977561 EQ PUSH2 0x2707 JUMPI DUP1 PUSH4 0x1AC78969 EQ PUSH2 0x26EA JUMPI DUP1 PUSH4 0x20020581 EQ PUSH2 0x269C JUMPI DUP1 PUSH4 0x3F69BABD EQ PUSH2 0x25B2 JUMPI DUP1 PUSH4 0x439FD35F EQ PUSH2 0x255A JUMPI DUP1 PUSH4 0x44134A45 EQ PUSH2 0x252E JUMPI DUP1 PUSH4 0x4D68282F EQ PUSH2 0x2343 JUMPI DUP1 PUSH4 0x50D9C62D EQ PUSH2 0x2326 JUMPI DUP1 PUSH4 0x5C975ABB EQ PUSH2 0x2303 JUMPI DUP1 PUSH4 0x5C98DFA1 EQ PUSH2 0x22E5 JUMPI DUP1 PUSH4 0x5EA102B0 EQ PUSH2 0x22C9 JUMPI DUP1 PUSH4 0x617148E5 EQ PUSH2 0x22AC JUMPI DUP1 PUSH4 0x67DD74CA EQ PUSH2 0x1EDA JUMPI DUP1 PUSH4 0x68C4AC26 EQ PUSH2 0x1E9B JUMPI DUP1 PUSH4 0x7B426CBF EQ PUSH2 0x1E7E JUMPI DUP1 PUSH4 0x86074985 EQ PUSH2 0x1E62 JUMPI DUP1 PUSH4 0xA06F7DA7 EQ PUSH2 0x1E35 JUMPI DUP1 PUSH4 0xA4B2409E EQ PUSH2 0x1AEB JUMPI DUP1 PUSH4 0xA4C0ED36 EQ PUSH2 0x1794 JUMPI DUP1 PUSH4 0xABF45EC8 EQ PUSH2 0x1778 JUMPI DUP1 PUSH4 0xB5E41287 EQ PUSH2 0x1753 JUMPI DUP1 PUSH4 0xB98079BC EQ PUSH2 0x1661 JUMPI DUP1 PUSH4 0xC27A500D EQ PUSH2 0x15AD JUMPI DUP1 PUSH4 0xCB71146E EQ PUSH2 0x1591 JUMPI DUP1 PUSH4 0xCCFD6D3C EQ PUSH2 0x1465 JUMPI DUP1 PUSH4 0xD166360C EQ PUSH2 0x1235 JUMPI DUP1 PUSH4 0xE0C14377 EQ PUSH2 0x11E4 JUMPI PUSH4 0xF57C7AD8 SUB PUSH2 0xE JUMPI CALLVALUE PUSH2 0x11DF JUMPI PUSH2 0x160 CALLDATASIZE PUSH1 0x3 NOT ADD SLT PUSH2 0x11DF JUMPI PUSH1 0x4 CALLDATALOAD PUSH1 0x1 PUSH1 0x1 PUSH1 0x40 SHL SUB DUP2 GT PUSH2 0x11DF JUMPI PUSH2 0x19B SWAP1 CALLDATASIZE SWAP1 PUSH1 0x4 ADD PUSH2 0x2F3C JUMP JUMPDEST SWAP1 PUSH1 0x24 CALLDATALOAD PUSH1 0x1 PUSH1 0x1 PUSH1 0x40 SHL SUB DUP2 GT PUSH2 0x11DF JUMPI PUSH2 0x1BB SWAP1 CALLDATASIZE SWAP1 PUSH1 0x4 ADD PUSH2 0x2F3C JUMP JUMPDEST SWAP1 PUSH1 0x44 CALLDATALOAD PUSH1 0x1 PUSH1 0x1 PUSH1 0x40 SHL SUB DUP2 GT PUSH2 0x11DF JUMPI PUSH2 0x1DB SWAP1 CALLDATASIZE SWAP1 PUSH1 0x4 ADD PUSH2 0x2F3C JUMP JUMPDEST SWAP1 PUSH1 0x64 CALLDATALOAD PUSH1 0x1 PUSH1 0x1 PUSH1 0x40 SHL SUB DUP2 AND DUP1 SWAP2 SUB PUSH2 0x11DF JUMPI PUSH1 0x84 CALLDATALOAD PUSH1 0x1 PUSH1 0x1 PUSH1 0x40 SHL SUB DUP2 AND DUP1 SWAP2 SUB PUSH2 0x11DF JUMPI PUSH1 0xA4 CALLDATALOAD PUSH1 0x1 PUSH1 0x1 PUSH1 0x40 SHL SUB DUP2 AND DUP1 SWAP2 SUB PUSH2 0x11DF JUMPI PUSH1 0xC4 CALLDATALOAD SWAP2 PUSH1 0x1 PUSH1 0x1 PUSH1 0x40 SHL SUB DUP4 AND DUP1 SWAP4 SUB PUSH2 0x11DF JUMPI PUSH1 0xE4 CALLDATALOAD PUSH1 0x1 PUSH1 0x1 PUSH1 0x40 SHL SUB DUP2 GT PUSH2 0x11DF JUMPI PUSH2 0x24C SWAP1 CALLDATASIZE SWAP1 PUSH1 0x4 ADD PUSH2 0x2F3C JUMP JUMPDEST SWAP5 SWAP1 SWAP6 PUSH2 0x104 CALLDATALOAD SWAP8 PUSH2 0x144 CALLDATALOAD SWAP10 PUSH1 0x1 DUP1 PUSH1 0xA0 SHL SUB DUP12 AND DUP1 SWAP12 SUB PUSH2 0x11DF JUMPI PUSH2 0x278 PUSH1 0xFF PUSH1 0x2 SLOAD AND ISZERO PUSH2 0x3024 JUMP JUMPDEST DUP14 ISZERO ISZERO DUP15 DUP2 PUSH2 0x11D3 JUMPI JUMPDEST POP ISZERO PUSH2 0x119F JUMPI DUP12 ISZERO ISZERO DUP1 PUSH2 0x1194 JUMPI JUMPDEST ISZERO PUSH2 0x1161 JUMPI DUP2 ISZERO ISZERO DUP1 PUSH2 0x1155 JUMPI JUMPDEST ISZERO PUSH2 0x111E JUMPI DUP8 ISZERO ISZERO DUP1 PUSH2 0x1113 JUMPI JUMPDEST ISZERO PUSH2 0x10DB JUMPI DUP10 ISZERO ISZERO DUP1 PUSH2 0x10C7 JUMPI JUMPDEST ISZERO PUSH2 0x1092 JUMPI TIMESTAMP DUP5 LT PUSH2 0x104D JUMPI PUSH2 0xE10 DUP5 ADD DUP1 DUP6 GT PUSH2 0x95D JUMPI DUP6 LT PUSH2 0x1013 JUMPI DUP11 PUSH1 0x0 MSTORE PUSH1 0x1 PUSH1 0x20 MSTORE PUSH1 0xFF PUSH1 0x40 PUSH1 0x0 KECCAK256 SLOAD AND ISZERO PUSH2 0xFDA JUMPI DUP13 SWAP12 DUP15 PUSH1 0x40 MLOAD SWAP14 DUP15 SWAP2 PUSH2 0x302 DUP4 PUSH2 0x2C3F JUMP JUMPDEST CALLER DUP4 MSTORE CALLDATASIZE SWAP1 PUSH2 0x310 SWAP3 PUSH2 0x3712 JUMP JUMPDEST SWAP1 PUSH1 0x20 ADD MSTORE CALLDATASIZE SWAP1 PUSH2 0x320 SWAP3 PUSH2 0x3712 JUMP JUMPDEST PUSH1 0x40 DUP13 ADD MSTORE CALLDATASIZE SWAP1 PUSH2 0x330 SWAP3 PUSH2 0x3712 JUMP JUMPDEST PUSH1 0x60 DUP11 ADD MSTORE PUSH1 0x80 DUP10 ADD MSTORE PUSH1 0xA0 DUP9 ADD MSTORE PUSH1 0xC0 DUP8 ADD MSTORE PUSH1 0xE0 DUP7 ADD MSTORE CALLDATASIZE SWAP1 PUSH2 0x354 SWAP3 PUSH2 0x3712 JUMP JUMPDEST PUSH2 0x100 DUP5 ADD MSTORE PUSH1 0x1 PUSH2 0x120 DUP5 ADD MSTORE PUSH2 0x140 DUP4 ADD MSTORE PUSH1 0x0 PUSH2 0x160 DUP4 ADD DUP2 SWAP1 MSTORE PUSH2 0x124 CALLDATALOAD PUSH2 0x180 DUP5 ADD MSTORE PUSH2 0x1A0 DUP4 ADD DUP2 SWAP1 MSTORE PUSH2 0x1C0 DUP4 ADD MSTORE PUSH2 0x1E0 DUP3 ADD MSTORE PUSH1 0x3 SLOAD PUSH1 0x1 PUSH1 0x40 SHL DUP2 LT ISZERO PUSH2 0xA34 JUMPI DUP1 PUSH1 0x1 PUSH2 0x3B1 SWAP3 ADD PUSH1 0x3 SSTORE PUSH1 0x3 PUSH2 0x2BE9 JUMP JUMPDEST PUSH2 0xC93 JUMPI DUP2 MLOAD DUP2 SLOAD PUSH1 0x1 PUSH1 0x1 PUSH1 0xA0 SHL SUB NOT AND PUSH1 0x1 PUSH1 0x1 PUSH1 0xA0 SHL SUB SWAP2 SWAP1 SWAP2 AND OR DUP2 SSTORE PUSH1 0x20 DUP3 ADD MLOAD DUP1 MLOAD SWAP1 PUSH1 0x1 PUSH1 0x1 PUSH1 0x40 SHL SUB DUP3 GT PUSH2 0xA34 JUMPI DUP2 SWAP1 PUSH2 0x3F7 PUSH1 0x1 DUP6 ADD SLOAD PUSH2 0x2C05 JUMP JUMPDEST PUSH1 0x1F DUP2 GT PUSH2 0xF87 JUMPI JUMPDEST POP PUSH1 0x20 SWAP1 PUSH1 0x1F DUP4 GT PUSH1 0x1 EQ PUSH2 0xF16 JUMPI PUSH1 0x0 SWAP3 PUSH2 0xF0B JUMPI JUMPDEST POP POP DUP2 PUSH1 0x1 SHL SWAP2 PUSH1 0x0 NOT SWAP1 PUSH1 0x3 SHL SHR NOT AND OR PUSH1 0x1 DUP3 ADD SSTORE JUMPDEST PUSH1 0x40 DUP3 ADD MLOAD DUP1 MLOAD SWAP1 PUSH1 0x1 PUSH1 0x1 PUSH1 0x40 SHL SUB DUP3 GT PUSH2 0xA34 JUMPI DUP2 SWAP1 PUSH2 0x454 PUSH1 0x2 DUP6 ADD SLOAD PUSH2 0x2C05 JUMP JUMPDEST PUSH1 0x1F DUP2 GT PUSH2 0xEB8 JUMPI JUMPDEST POP PUSH1 0x20 SWAP1 PUSH1 0x1F DUP4 GT PUSH1 0x1 EQ PUSH2 0xE47 JUMPI PUSH1 0x0 SWAP3 PUSH2 0xE3C JUMPI JUMPDEST POP POP DUP2 PUSH1 0x1 SHL SWAP2 PUSH1 0x0 NOT SWAP1 PUSH1 0x3 SHL SHR NOT AND OR PUSH1 0x2 DUP3 ADD SSTORE JUMPDEST PUSH1 0x60 DUP3 ADD MLOAD DUP1 MLOAD SWAP1 PUSH1 0x1 PUSH1 0x1 PUSH1 0x40 SHL SUB DUP3 GT PUSH2 0xA34 JUMPI DUP2 SWAP1 PUSH2 0x4B1 PUSH1 0x3 DUP6 ADD SLOAD PUSH2 0x2C05 JUMP JUMPDEST PUSH1 0x1F DUP2 GT PUSH2 0xDE9 JUMPI JUMPDEST POP PUSH1 0x20 SWAP1 PUSH1 0x1F DUP4 GT PUSH1 0x1 EQ PUSH2 0xD78 JUMPI PUSH1 0x0 SWAP3 PUSH2 0xD6D JUMPI JUMPDEST POP POP DUP2 PUSH1 0x1 SHL SWAP2 PUSH1 0x0 NOT SWAP1 PUSH1 0x3 SHL SHR NOT AND OR PUSH1 0x3 DUP3 ADD SSTORE JUMPDEST PUSH1 0x80 DUP3 DUP2 ADD MLOAD PUSH1 0xA0 DUP5 ADD MLOAD PUSH1 0xC0 DUP1 DUP7 ADD MLOAD PUSH1 0xE0 DUP8 ADD MLOAD PUSH1 0x40 SWAP4 SWAP1 SWAP4 SHL PUSH8 0xFFFFFFFFFFFFFFFF PUSH1 0x40 SHL AND PUSH1 0x1 PUSH1 0x1 PUSH1 0x40 SHL SUB SWAP5 DUP6 AND OR SWAP5 SHL PUSH8 0xFFFFFFFFFFFFFFFF PUSH1 0x80 SHL AND SWAP4 SWAP1 SWAP4 OR SWAP3 SHL PUSH1 0x1 PUSH1 0x1 PUSH1 0xC0 SHL SUB NOT AND SWAP2 SWAP1 SWAP2 OR PUSH1 0x4 DUP4 ADD SSTORE PUSH2 0x100 DUP4 ADD MLOAD DUP1 MLOAD SWAP2 DUP3 GT PUSH2 0xA34 JUMPI PUSH2 0x562 PUSH1 0x5 DUP5 ADD SLOAD PUSH2 0x2C05 JUMP JUMPDEST PUSH1 0x1F DUP2 GT PUSH2 0xD26 JUMPI JUMPDEST POP PUSH1 0x20 SWAP1 PUSH1 0x1F DUP4 GT PUSH1 0x1 EQ PUSH2 0xCB4 JUMPI PUSH1 0xA SWAP4 SWAP3 SWAP2 PUSH1 0x0 SWAP2 DUP4 PUSH2 0xCA9 JUMPI JUMPDEST POP POP DUP2 PUSH1 0x1 SHL SWAP2 PUSH1 0x0 NOT SWAP1 PUSH1 0x3 SHL SHR NOT AND OR PUSH1 0x5 DUP3 ADD SSTORE JUMPDEST PUSH2 0x5C0 PUSH2 0x120 DUP5 ADD MLOAD ISZERO ISZERO PUSH1 0x6 DUP4 ADD SWAP1 PUSH1 0xFF DUP1 NOT DUP4 SLOAD AND SWAP2 ISZERO ISZERO AND OR SWAP1 SSTORE JUMP JUMPDEST PUSH2 0x140 DUP4 ADD MLOAD PUSH1 0x7 DUP3 ADD SSTORE PUSH2 0x160 DUP4 ADD MLOAD PUSH1 0x8 DUP3 ADD SSTORE PUSH2 0x180 DUP4 ADD MLOAD PUSH1 0x9 DUP3 ADD SSTORE ADD PUSH2 0x5FF PUSH2 0x1A0 DUP4 ADD MLOAD ISZERO ISZERO DUP3 SWAP1 PUSH1 0xFF DUP1 NOT DUP4 SLOAD AND SWAP2 ISZERO ISZERO AND OR SWAP1 SSTORE JUMP JUMPDEST PUSH2 0x1C0 DUP3 ADD MLOAD DUP2 SLOAD PUSH2 0xFF00 NOT AND SWAP1 ISZERO ISZERO PUSH1 0x8 SHL PUSH2 0xFF00 AND OR DUP2 SSTORE PUSH2 0x1E0 DUP3 ADD MLOAD DUP2 SLOAD PUSH3 0x10000 PUSH1 0x1 PUSH1 0xB0 SHL SUB NOT AND PUSH1 0x10 SWAP2 SWAP1 SWAP2 SHL PUSH3 0x10000 PUSH1 0x1 PUSH1 0xB0 SHL SUB AND OR SWAP1 SSTORE CALLER PUSH1 0x0 SWAP1 DUP2 MSTORE PUSH1 0x5 PUSH1 0x20 MSTORE PUSH1 0x40 SWAP1 KECCAK256 DUP1 SLOAD PUSH1 0x1 PUSH1 0x40 SHL DUP2 LT ISZERO PUSH2 0xA34 JUMPI PUSH2 0x66D SWAP2 PUSH1 0x1 DUP3 ADD DUP2 SSTORE PUSH2 0x2BE9 JUMP JUMPDEST PUSH2 0xC93 JUMPI DUP2 MLOAD DUP2 SLOAD PUSH1 0x1 PUSH1 0x1 PUSH1 0xA0 SHL SUB NOT AND PUSH1 0x1 PUSH1 0x1 PUSH1 0xA0 SHL SUB SWAP2 SWAP1 SWAP2 AND OR DUP2 SSTORE PUSH1 0x20 DUP3 ADD MLOAD DUP1 MLOAD PUSH1 0x1 DUP4 ADD SWAP2 PUSH1 0x1 PUSH1 0x1 PUSH1 0x40 SHL SUB DUP3 GT PUSH2 0xA34 JUMPI DUP2 SWAP1 PUSH2 0x6B4 DUP5 SLOAD PUSH2 0x2C05 JUMP JUMPDEST PUSH1 0x1F DUP2 GT PUSH2 0xC40 JUMPI JUMPDEST POP PUSH1 0x20 SWAP1 PUSH1 0x1F DUP4 GT PUSH1 0x1 EQ PUSH2 0xBDB JUMPI PUSH1 0x0 SWAP3 PUSH2 0xBD0 JUMPI JUMPDEST POP POP DUP2 PUSH1 0x1 SHL SWAP2 PUSH1 0x0 NOT SWAP1 PUSH1 0x3 SHL SHR NOT AND OR SWAP1 SSTORE JUMPDEST PUSH1 0x2 DUP2 ADD PUSH1 0x40 DUP4 ADD MLOAD DUP1 MLOAD SWAP1 PUSH1 0x1 PUSH1 0x1 PUSH1 0x40 SHL SUB DUP3 GT PUSH2 0xA34 JUMPI DUP2 SWAP1 PUSH2 0x70F DUP5 SLOAD PUSH2 0x2C05 JUMP JUMPDEST PUSH1 0x1F DUP2 GT PUSH2 0xB7D JUMPI JUMPDEST POP PUSH1 0x20 SWAP1 PUSH1 0x1F DUP4 GT PUSH1 0x1 EQ PUSH2 0xB18 JUMPI PUSH1 0x0 SWAP3 PUSH2 0xB0D JUMPI JUMPDEST POP POP DUP2 PUSH1 0x1 SHL SWAP2 PUSH1 0x0 NOT SWAP1 PUSH1 0x3 SHL SHR NOT AND OR SWAP1 SSTORE JUMPDEST PUSH1 0x3 DUP2 ADD PUSH1 0x60 DUP4 ADD MLOAD DUP1 MLOAD SWAP1 PUSH1 0x1 PUSH1 0x1 PUSH1 0x40 SHL SUB DUP3 GT PUSH2 0xA34 JUMPI DUP2 SWAP1 PUSH2 0x76A DUP5 SLOAD PUSH2 0x2C05 JUMP JUMPDEST PUSH1 0x1F DUP2 GT PUSH2 0xABA JUMPI JUMPDEST POP PUSH1 0x20 SWAP1 PUSH1 0x1F DUP4 GT PUSH1 0x1 EQ PUSH2 0xA55 JUMPI PUSH1 0x0 SWAP3 PUSH2 0xA4A JUMPI JUMPDEST POP POP DUP2 PUSH1 0x1 SHL SWAP2 PUSH1 0x0 NOT SWAP1 PUSH1 0x3 SHL SHR NOT AND OR SWAP1 SSTORE JUMPDEST PUSH1 0x80 DUP3 DUP2 ADD MLOAD PUSH1 0xA0 DUP5 ADD MLOAD PUSH1 0xC0 DUP1 DUP7 ADD MLOAD PUSH1 0xE0 DUP8 ADD MLOAD PUSH1 0x40 SWAP4 SWAP1 SWAP4 SHL PUSH8 0xFFFFFFFFFFFFFFFF PUSH1 0x40 SHL AND PUSH1 0x1 PUSH1 0x1 PUSH1 0x40 SHL SUB SWAP5 DUP6 AND OR SWAP5 SHL PUSH8 0xFFFFFFFFFFFFFFFF PUSH1 0x80 SHL AND SWAP4 SWAP1 SWAP4 OR SWAP3 SHL PUSH1 0x1 PUSH1 0x1 PUSH1 0xC0 SHL SUB NOT AND SWAP2 SWAP1 SWAP2 OR PUSH1 0x4 DUP4 ADD SSTORE PUSH2 0x100 DUP4 ADD MLOAD DUP1 MLOAD PUSH1 0x5 DUP5 ADD SWAP3 SWAP1 SWAP2 SWAP1 DUP3 GT PUSH2 0xA34 JUMPI PUSH2 0x81C DUP4 SLOAD PUSH2 0x2C05 JUMP JUMPDEST PUSH1 0x1F DUP2 GT PUSH2 0x9EC JUMPI JUMPDEST POP PUSH1 0x20 SWAP1 PUSH1 0x1F DUP4 GT PUSH1 0x1 EQ PUSH2 0x97E JUMPI SWAP2 DUP1 PUSH1 0xA SWAP5 SWAP3 PUSH2 0x1E0 SWAP7 SWAP5 PUSH1 0x0 SWAP3 PUSH2 0x973 JUMPI JUMPDEST POP POP DUP2 PUSH1 0x1 SHL SWAP2 PUSH1 0x0 NOT SWAP1 PUSH1 0x3 SHL SHR NOT AND OR SWAP1 SSTORE JUMPDEST PUSH2 0x87C PUSH2 0x120 DUP6 ADD MLOAD ISZERO ISZERO PUSH1 0x6 DUP4 ADD SWAP1 PUSH1 0xFF DUP1 NOT DUP4 SLOAD AND SWAP2 ISZERO ISZERO AND OR SWAP1 SSTORE JUMP JUMPDEST PUSH2 0x140 DUP5 ADD MLOAD PUSH1 0x7 DUP3 ADD SSTORE PUSH2 0x160 DUP5 ADD MLOAD PUSH1 0x8 DUP3 ADD SSTORE PUSH2 0x180 DUP5 ADD MLOAD PUSH1 0x9 DUP3 ADD SSTORE ADD SWAP2 PUSH2 0x8BC PUSH2 0x1A0 DUP3 ADD MLOAD ISZERO ISZERO DUP5 SWAP1 PUSH1 0xFF DUP1 NOT DUP4 SLOAD AND SWAP2 ISZERO ISZERO AND OR SWAP1 SSTORE JUMP JUMPDEST PUSH2 0x1C0 DUP2 ADD MLOAD DUP4 SLOAD PUSH2 0xFF00 NOT AND SWAP1 ISZERO ISZERO PUSH1 0x8 SHL PUSH2 0xFF00 AND OR DUP4 SSTORE ADD MLOAD DUP2 SLOAD PUSH3 0x10000 PUSH1 0x1 PUSH1 0xB0 SHL SUB NOT AND PUSH1 0x10 SWAP2 SWAP1 SWAP2 SHL PUSH3 0x10000 PUSH1 0x1 PUSH1 0xB0 SHL SUB AND OR SWAP1 SSTORE PUSH1 0x3 SLOAD PUSH1 0x0 NOT DUP2 ADD SWAP2 SWAP1 DUP3 GT PUSH2 0x95D JUMPI PUSH32 0xFC695DEA2478FB938A11068AEEDDDD7046A5FE655F136E30A325D353FE187A45 SWAP1 DUP4 PUSH1 0x40 MLOAD SWAP2 PUSH1 0x20 DUP4 MSTORE DUP2 PUSH1 0x20 DUP5 ADD MSTORE PUSH1 0x40 DUP4 ADD CALLDATACOPY PUSH1 0x0 PUSH1 0x40 DUP6 DUP4 ADD ADD MSTORE PUSH1 0x40 DUP2 CALLER SWAP6 PUSH1 0x1F DUP1 NOT SWAP2 ADD AND DUP2 ADD SUB ADD SWAP1 LOG3 STOP JUMPDEST PUSH4 0x4E487B71 PUSH1 0xE0 SHL PUSH1 0x0 MSTORE PUSH1 0x11 PUSH1 0x4 MSTORE PUSH1 0x24 PUSH1 0x0 REVERT JUMPDEST ADD MLOAD SWAP1 POP CODESIZE DUP1 PUSH2 0x847 JUMP JUMPDEST SWAP1 PUSH1 0x1F NOT DUP4 AND SWAP2 DUP5 PUSH1 0x0 MSTORE DUP2 PUSH1 0x0 KECCAK256 SWAP3 PUSH1 0x0 JUMPDEST DUP2 DUP2 LT PUSH2 0x9D4 JUMPI POP SWAP3 PUSH1 0x1 SWAP3 DUP6 SWAP3 PUSH2 0x1E0 SWAP9 SWAP7 PUSH1 0xA SWAP9 SWAP7 LT PUSH2 0x9BB JUMPI JUMPDEST POP POP POP DUP2 SHL ADD SWAP1 SSTORE PUSH2 0x85C JUMP JUMPDEST ADD MLOAD PUSH1 0x0 NOT PUSH1 0xF8 DUP5 PUSH1 0x3 SHL AND SHR NOT AND SWAP1 SSTORE CODESIZE DUP1 DUP1 PUSH2 0x9AE JUMP JUMPDEST SWAP3 SWAP4 PUSH1 0x20 PUSH1 0x1 DUP2 SWAP3 DUP8 DUP7 ADD MLOAD DUP2 SSTORE ADD SWAP6 ADD SWAP4 ADD PUSH2 0x991 JUMP JUMPDEST DUP4 PUSH1 0x0 MSTORE PUSH1 0x20 PUSH1 0x0 KECCAK256 PUSH1 0x1F DUP5 ADD PUSH1 0x5 SHR DUP2 ADD SWAP2 PUSH1 0x20 DUP6 LT PUSH2 0xA2A JUMPI JUMPDEST PUSH1 0x1F ADD PUSH1 0x5 SHR ADD SWAP1 JUMPDEST DUP2 DUP2 LT PUSH2 0xA1E JUMPI POP PUSH2 0x825 JUMP JUMPDEST PUSH1 0x0 DUP2 SSTORE PUSH1 0x1 ADD PUSH2 0xA11 JUMP JUMPDEST SWAP1 SWAP2 POP DUP2 SWAP1 PUSH2 0xA08 JUMP JUMPDEST PUSH4 0x4E487B71 PUSH1 0xE0 SHL PUSH1 0x0 MSTORE PUSH1 0x41 PUSH1 0x4 MSTORE PUSH1 0x24 PUSH1 0x0 REVERT JUMPDEST ADD MLOAD SWAP1 POP CODESIZE DUP1 PUSH2 0x78A JUMP JUMPDEST PUSH1 0x0 DUP6 DUP2 MSTORE DUP3 DUP2 KECCAK256 SWAP4 POP PUSH1 0x1F NOT DUP6 AND SWAP1 JUMPDEST DUP2 DUP2 LT PUSH2 0xAA2 JUMPI POP SWAP1 DUP5 PUSH1 0x1 SWAP6 SWAP5 SWAP4 SWAP3 LT PUSH2 0xA89 JUMPI JUMPDEST POP POP POP DUP2 SHL ADD SWAP1 SSTORE PUSH2 0x79F JUMP JUMPDEST ADD MLOAD PUSH1 0x0 NOT PUSH1 0xF8 DUP5 PUSH1 0x3 SHL AND SHR NOT AND SWAP1 SSTORE CODESIZE DUP1 DUP1 PUSH2 0xA7C JUMP JUMPDEST SWAP3 SWAP4 PUSH1 0x20 PUSH1 0x1 DUP2 SWAP3 DUP8 DUP7 ADD MLOAD DUP2 SSTORE ADD SWAP6 ADD SWAP4 ADD PUSH2 0xA66 JUMP JUMPDEST SWAP1 SWAP2 POP DUP4 PUSH1 0x0 MSTORE PUSH1 0x20 PUSH1 0x0 KECCAK256 PUSH1 0x1F DUP5 ADD PUSH1 0x5 SHR DUP2 ADD SWAP2 PUSH1 0x20 DUP6 LT PUSH2 0xB03 JUMPI JUMPDEST SWAP1 PUSH1 0x1F DUP6 SWAP5 SWAP4 SWAP3 ADD PUSH1 0x5 SHR ADD SWAP1 JUMPDEST DUP2 DUP2 LT PUSH2 0xAF4 JUMPI POP PUSH2 0x773 JUMP JUMPDEST PUSH1 0x0 DUP2 SSTORE DUP5 SWAP4 POP PUSH1 0x1 ADD PUSH2 0xAE7 JUMP JUMPDEST SWAP1 SWAP2 POP DUP2 SWAP1 PUSH2 0xAD9 JUMP JUMPDEST ADD MLOAD SWAP1 POP CODESIZE DUP1 PUSH2 0x72F JUMP JUMPDEST PUSH1 0x0 DUP6 DUP2 MSTORE DUP3 DUP2 KECCAK256 SWAP4 POP PUSH1 0x1F NOT DUP6 AND SWAP1 JUMPDEST DUP2 DUP2 LT PUSH2 0xB65 JUMPI POP SWAP1 DUP5 PUSH1 0x1 SWAP6 SWAP5 SWAP4 SWAP3 LT PUSH2 0xB4C JUMPI JUMPDEST POP POP POP DUP2 SHL ADD SWAP1 SSTORE PUSH2 0x744 JUMP JUMPDEST ADD MLOAD PUSH1 0x0 NOT PUSH1 0xF8 DUP5 PUSH1 0x3 SHL AND SHR NOT AND SWAP1 SSTORE CODESIZE DUP1 DUP1 PUSH2 0xB3F JUMP JUMPDEST SWAP3 SWAP4 PUSH1 0x20 PUSH1 0x1 DUP2 SWAP3 DUP8 DUP7 ADD MLOAD DUP2 SSTORE ADD SWAP6 ADD SWAP4 ADD PUSH2 0xB29 JUMP JUMPDEST SWAP1 SWAP2 POP DUP4 PUSH1 0x0 MSTORE PUSH1 0x20 PUSH1 0x0 KECCAK256 PUSH1 0x1F DUP5 ADD PUSH1 0x5 SHR DUP2 ADD SWAP2 PUSH1 0x20 DUP6 LT PUSH2 0xBC6 JUMPI JUMPDEST SWAP1 PUSH1 0x1F DUP6 SWAP5 SWAP4 SWAP3 ADD PUSH1 0x5 SHR ADD SWAP1 JUMPDEST DUP2 DUP2 LT PUSH2 0xBB7 JUMPI POP PUSH2 0x718 JUMP JUMPDEST PUSH1 0x0 DUP2 SSTORE DUP5 SWAP4 POP PUSH1 0x1 ADD PUSH2 0xBAA JUMP JUMPDEST SWAP1 SWAP2 POP DUP2 SWAP1 PUSH2 0xB9C JUMP JUMPDEST ADD MLOAD SWAP1 POP CODESIZE DUP1 PUSH2 0x6D4 JUMP JUMPDEST PUSH1 0x0 DUP6 DUP2 MSTORE DUP3 DUP2 KECCAK256 SWAP4 POP PUSH1 0x1F NOT DUP6 AND SWAP1 JUMPDEST DUP2 DUP2 LT PUSH2 0xC28 JUMPI POP SWAP1 DUP5 PUSH1 0x1 SWAP6 SWAP5 SWAP4 SWAP3 LT PUSH2 0xC0F JUMPI JUMPDEST POP POP POP DUP2 SHL ADD SWAP1 SSTORE PUSH2 0x6E9 JUMP JUMPDEST ADD MLOAD PUSH1 0x0 NOT PUSH1 0xF8 DUP5 PUSH1 0x3 SHL AND SHR NOT AND SWAP1 SSTORE CODESIZE DUP1 DUP1 PUSH2 0xC02 JUMP JUMPDEST SWAP3 SWAP4 PUSH1 0x20 PUSH1 0x1 DUP2 SWAP3 DUP8 DUP7 ADD MLOAD DUP2 SSTORE ADD SWAP6 ADD SWAP4 ADD PUSH2 0xBEC JUMP JUMPDEST SWAP1 SWAP2 POP DUP4 PUSH1 0x0 MSTORE PUSH1 0x20 PUSH1 0x0 KECCAK256 PUSH1 0x1F DUP5 ADD PUSH1 0x5 SHR DUP2 ADD SWAP2 PUSH1 0x20 DUP6 LT PUSH2 0xC89 JUMPI JUMPDEST SWAP1 PUSH1 0x1F DUP6 SWAP5 SWAP4 SWAP3 ADD PUSH1 0x5 SHR ADD SWAP1 JUMPDEST DUP2 DUP2 LT PUSH2 0xC7A JUMPI POP PUSH2 0x6BD JUMP JUMPDEST PUSH1 0x0 DUP2 SSTORE DUP5 SWAP4 POP PUSH1 0x1 ADD PUSH2 0xC6D JUMP JUMPDEST SWAP1 SWAP2 POP DUP2 SWAP1 PUSH2 0xC5F JUMP JUMPDEST PUSH4 0x4E487B71 PUSH1 0xE0 SHL PUSH1 0x0 MSTORE PUSH1 0x0 PUSH1 0x4 MSTORE PUSH1 0x24 PUSH1 0x0 REVERT JUMPDEST ADD MLOAD SWAP1 POP CODESIZE DUP1 PUSH2 0x588 JUMP JUMPDEST SWAP1 PUSH1 0x5 DUP5 ADD PUSH1 0x0 MSTORE DUP1 PUSH1 0x0 KECCAK256 SWAP2 PUSH1 0x0 JUMPDEST PUSH1 0x1F NOT DUP6 AND DUP2 LT PUSH2 0xD0E JUMPI POP SWAP2 DUP4 SWAP2 PUSH1 0x1 SWAP4 PUSH1 0xA SWAP7 SWAP6 PUSH1 0x1F NOT DUP2 AND LT PUSH2 0xCF5 JUMPI JUMPDEST POP POP POP DUP2 SHL ADD PUSH1 0x5 DUP3 ADD SSTORE PUSH2 0x5A0 JUMP JUMPDEST ADD MLOAD PUSH1 0x0 NOT PUSH1 0xF8 DUP5 PUSH1 0x3 SHL AND SHR NOT AND SWAP1 SSTORE CODESIZE DUP1 DUP1 PUSH2 0xCE5 JUMP JUMPDEST SWAP2 SWAP3 PUSH1 0x20 PUSH1 0x1 DUP2 SWAP3 DUP7 DUP6 ADD MLOAD DUP2 SSTORE ADD SWAP5 ADD SWAP3 ADD PUSH2 0xCC4 JUMP JUMPDEST PUSH1 0x5 DUP5 ADD PUSH1 0x0 MSTORE PUSH1 0x20 PUSH1 0x0 KECCAK256 PUSH1 0x1F DUP5 ADD PUSH1 0x5 SHR DUP2 ADD PUSH1 0x20 DUP6 LT PUSH2 0xD66 JUMPI JUMPDEST PUSH1 0x1F DUP4 ADD PUSH1 0x5 SHR DUP3 ADD DUP2 LT PUSH2 0xD5A JUMPI POP POP PUSH2 0x56B JUMP JUMPDEST PUSH1 0x0 DUP2 SSTORE PUSH1 0x1 ADD PUSH2 0xD44 JUMP JUMPDEST POP DUP1 PUSH2 0xD44 JUMP JUMPDEST ADD MLOAD SWAP1 POP CODESIZE DUP1 PUSH2 0x4D1 JUMP JUMPDEST SWAP3 POP PUSH1 0x3 DUP5 ADD PUSH1 0x0 MSTORE DUP1 PUSH1 0x0 KECCAK256 SWAP1 PUSH1 0x0 SWAP4 JUMPDEST PUSH1 0x1F NOT DUP5 AND DUP6 LT PUSH2 0xDCE JUMPI PUSH1 0x1 SWAP5 POP DUP4 PUSH1 0x1F NOT DUP2 AND LT PUSH2 0xDB5 JUMPI JUMPDEST POP POP POP DUP2 SHL ADD PUSH1 0x3 DUP3 ADD SSTORE PUSH2 0x4E9 JUMP JUMPDEST ADD MLOAD PUSH1 0x0 NOT PUSH1 0xF8 DUP5 PUSH1 0x3 SHL AND SHR NOT AND SWAP1 SSTORE CODESIZE DUP1 DUP1 PUSH2 0xDA5 JUMP JUMPDEST DUP2 DUP2 ADD MLOAD DUP4 SSTORE PUSH1 0x20 SWAP5 DUP6 ADD SWAP5 PUSH1 0x1 SWAP1 SWAP4 ADD SWAP3 SWAP1 SWAP2 ADD SWAP1 PUSH2 0xD8A JUMP JUMPDEST SWAP1 SWAP2 POP PUSH1 0x3 DUP5 ADD PUSH1 0x0 MSTORE PUSH1 0x20 PUSH1 0x0 KECCAK256 PUSH1 0x1F DUP5 ADD PUSH1 0x5 SHR DUP2 ADD PUSH1 0x20 DUP6 LT PUSH2 0xE35 JUMPI JUMPDEST SWAP1 DUP5 SWAP4 SWAP3 SWAP2 JUMPDEST PUSH1 0x1F DUP4 ADD PUSH1 0x5 SHR DUP3 ADD DUP2 LT PUSH2 0xE26 JUMPI POP POP PUSH2 0x4BA JUMP JUMPDEST PUSH1 0x0 DUP2 SSTORE DUP6 SWAP5 POP PUSH1 0x1 ADD PUSH2 0xE10 JUMP JUMPDEST POP DUP1 PUSH2 0xE0A JUMP JUMPDEST ADD MLOAD SWAP1 POP CODESIZE DUP1 PUSH2 0x474 JUMP JUMPDEST SWAP3 POP PUSH1 0x2 DUP5 ADD PUSH1 0x0 MSTORE DUP1 PUSH1 0x0 KECCAK256 SWAP1 PUSH1 0x0 SWAP4 JUMPDEST PUSH1 0x1F NOT DUP5 AND DUP6 LT PUSH2 0xE9D JUMPI PUSH1 0x1 SWAP5 POP DUP4 PUSH1 0x1F NOT DUP2 AND LT PUSH2 0xE84 JUMPI JUMPDEST POP POP POP DUP2 SHL ADD PUSH1 0x2 DUP3 ADD SSTORE PUSH2 0x48C JUMP JUMPDEST ADD MLOAD PUSH1 0x0 NOT PUSH1 0xF8 DUP5 PUSH1 0x3 SHL AND SHR NOT AND SWAP1 SSTORE CODESIZE DUP1 DUP1 PUSH2 0xE74 JUMP JUMPDEST DUP2 DUP2 ADD MLOAD DUP4 SSTORE PUSH1 0x20 SWAP5 DUP6 ADD SWAP5 PUSH1 0x1 SWAP1 SWAP4 ADD SWAP3 SWAP1 SWAP2 ADD SWAP1 PUSH2 0xE59 JUMP JUMPDEST SWAP1 SWAP2 POP PUSH1 0x2 DUP5 ADD PUSH1 0x0 MSTORE PUSH1 0x20 PUSH1 0x0 KECCAK256 PUSH1 0x1F DUP5 ADD PUSH1 0x5 SHR DUP2 ADD PUSH1 0x20 DUP6 LT PUSH2 0xF04 JUMPI JUMPDEST SWAP1 DUP5 SWAP4 SWAP3 SWAP2 JUMPDEST PUSH1 0x1F DUP4 ADD PUSH1 0x5 SHR DUP3 ADD DUP2 LT PUSH2 0xEF5 JUMPI POP POP PUSH2 0x45D JUMP JUMPDEST PUSH1 0x0 DUP2 SSTORE DUP6 SWAP5 POP PUSH1 0x1 ADD PUSH2 0xEDF JUMP JUMPDEST POP DUP1 PUSH2 0xED9 JUMP JUMPDEST ADD MLOAD SWAP1 POP CODESIZE DUP1 PUSH2 0x417 JUMP JUMPDEST SWAP3 POP PUSH1 0x1 DUP5 ADD PUSH1 0x0 MSTORE DUP1 PUSH1 0x0 KECCAK256 SWAP1 PUSH1 0x0 SWAP4 JUMPDEST PUSH1 0x1F NOT DUP5 AND DUP6 LT PUSH2 0xF6C JUMPI PUSH1 0x1 SWAP5 POP DUP4 PUSH1 0x1F NOT DUP2 AND LT PUSH2 0xF53 JUMPI JUMPDEST POP POP POP DUP2 SHL ADD PUSH1 0x1 DUP3 ADD SSTORE PUSH2 0x42F JUMP JUMPDEST ADD MLOAD PUSH1 0x0 NOT PUSH1 0xF8 DUP5 PUSH1 0x3 SHL AND SHR NOT AND SWAP1 SSTORE CODESIZE DUP1 DUP1 PUSH2 0xF43 JUMP JUMPDEST DUP2 DUP2 ADD MLOAD DUP4 SSTORE PUSH1 0x20 SWAP5 DUP6 ADD SWAP5 PUSH1 0x1 SWAP1 SWAP4 ADD SWAP3 SWAP1 SWAP2 ADD SWAP1 PUSH2 0xF28 JUMP JUMPDEST SWAP1 SWAP2 POP PUSH1 0x1 DUP5 ADD PUSH1 0x0 MSTORE PUSH1 0x20 PUSH1 0x0 KECCAK256 PUSH1 0x1F DUP5 ADD PUSH1 0x5 SHR DUP2 ADD PUSH1 0x20 DUP6 LT PUSH2 0xFD3 JUMPI JUMPDEST SWAP1 DUP5 SWAP4 SWAP3 SWAP2 JUMPDEST PUSH1 0x1F DUP4 ADD PUSH1 0x5 SHR DUP3 ADD DUP2 LT PUSH2 0xFC4 JUMPI POP POP PUSH2 0x400 JUMP JUMPDEST PUSH1 0x0 DUP2 SSTORE DUP6 SWAP5 POP PUSH1 0x1 ADD PUSH2 0xFAE JUMP JUMPDEST POP DUP1 PUSH2 0xFA8 JUMP JUMPDEST PUSH1 0x40 MLOAD PUSH3 0x461BCD PUSH1 0xE5 SHL DUP2 MSTORE PUSH1 0x20 PUSH1 0x4 DUP3 ADD MSTORE PUSH1 0x11 PUSH1 0x24 DUP3 ADD MSTORE PUSH17 0x2AB739BAB83837B93A32B2103A37B5B2B7 PUSH1 0x79 SHL PUSH1 0x44 DUP3 ADD MSTORE PUSH1 0x64 SWAP1 REVERT JUMPDEST PUSH1 0x40 MLOAD PUSH3 0x461BCD PUSH1 0xE5 SHL DUP2 MSTORE PUSH1 0x20 PUSH1 0x4 DUP3 ADD MSTORE PUSH1 0x12 PUSH1 0x24 DUP3 ADD MSTORE PUSH18 0x111D5C985D1A5BDB881D1BDBC81CDA1BDC9D PUSH1 0x72 SHL PUSH1 0x44 DUP3 ADD MSTORE PUSH1 0x64 SWAP1 REVERT JUMPDEST PUSH1 0x40 MLOAD PUSH3 0x461BCD PUSH1 0xE5 SHL DUP2 MSTORE PUSH1 0x20 PUSH1 0x4 DUP3 ADD MSTORE PUSH1 0x19 PUSH1 0x24 DUP3 ADD MSTORE PUSH32 0x53746172742064617465206D7573742062652066757475726500000000000000 PUSH1 0x44 DUP3 ADD MSTORE PUSH1 0x64 SWAP1 REVERT JUMPDEST PUSH1 0x40 MLOAD PUSH3 0x461BCD PUSH1 0xE5 SHL DUP2 MSTORE PUSH1 0x20 PUSH1 0x4 DUP3 ADD MSTORE PUSH1 0xD PUSH1 0x24 DUP3 ADD MSTORE PUSH13 0x496E76616C6964207072696365 PUSH1 0x98 SHL PUSH1 0x44 DUP3 ADD MSTORE PUSH1 0x64 SWAP1 REVERT JUMPDEST POP PUSH10 0xD3C21BCECCEDA1000000 DUP11 GT ISZERO PUSH2 0x2BB JUMP JUMPDEST PUSH1 0x40 MLOAD PUSH3 0x461BCD PUSH1 0xE5 SHL DUP2 MSTORE PUSH1 0x20 PUSH1 0x4 DUP3 ADD MSTORE PUSH1 0x10 PUSH1 0x24 DUP3 ADD MSTORE PUSH16 0x24B73B30B634B2103637B1B0BA34B7B7 PUSH1 0x81 SHL PUSH1 0x44 DUP3 ADD MSTORE PUSH1 0x64 SWAP1 REVERT JUMPDEST POP PUSH1 0x96 DUP9 GT ISZERO PUSH2 0x2AD JUMP JUMPDEST PUSH1 0x40 MLOAD PUSH3 0x461BCD PUSH1 0xE5 SHL DUP2 MSTORE PUSH1 0x20 PUSH1 0x4 DUP3 ADD MSTORE PUSH1 0xF PUSH1 0x24 DUP3 ADD MSTORE PUSH15 0x496E76616C69642064657461696C73 PUSH1 0x88 SHL PUSH1 0x44 DUP3 ADD MSTORE PUSH1 0x64 SWAP1 REVERT JUMPDEST POP PUSH2 0x3E8 DUP3 GT ISZERO PUSH2 0x29F JUMP JUMPDEST PUSH1 0x40 MLOAD PUSH3 0x461BCD PUSH1 0xE5 SHL DUP2 MSTORE PUSH1 0x20 PUSH1 0x4 DUP3 ADD MSTORE PUSH1 0xB PUSH1 0x24 DUP3 ADD MSTORE PUSH11 0x125B9D985B1A5908155493 PUSH1 0xAA SHL PUSH1 0x44 DUP3 ADD MSTORE PUSH1 0x64 SWAP1 REVERT JUMPDEST POP PUSH1 0xC8 DUP13 GT ISZERO PUSH2 0x291 JUMP JUMPDEST PUSH1 0x40 MLOAD PUSH3 0x461BCD PUSH1 0xE5 SHL DUP2 MSTORE PUSH1 0x20 PUSH1 0x4 DUP3 ADD MSTORE PUSH1 0xC PUSH1 0x24 DUP3 ADD MSTORE PUSH12 0x496E76616C6964206E616D65 PUSH1 0xA0 SHL PUSH1 0x44 DUP3 ADD MSTORE PUSH1 0x64 SWAP1 REVERT JUMPDEST PUSH1 0x64 SWAP2 POP GT ISZERO DUP15 PUSH2 0x282 JUMP JUMPDEST PUSH1 0x0 DUP1 REVERT JUMPDEST CALLVALUE PUSH2 0x11DF JUMPI PUSH1 0x20 CALLDATASIZE PUSH1 0x3 NOT ADD SLT PUSH2 0x11DF JUMPI PUSH1 0x4 CALLDATALOAD PUSH2 0x1205 PUSH1 0x3 SLOAD DUP3 LT PUSH2 0x3407 JUMP JUMPDEST PUSH1 0x0 MSTORE PUSH1 0x4 PUSH1 0x20 MSTORE PUSH2 0x1231 PUSH2 0x121D PUSH1 0x40 PUSH1 0x0 KECCAK256 PUSH2 0x36BE JUMP JUMPDEST PUSH1 0x40 MLOAD SWAP2 DUP3 SWAP2 PUSH1 0x20 DUP4 MSTORE PUSH1 0x20 DUP4 ADD SWAP1 PUSH2 0x2F69 JUMP JUMPDEST SUB SWAP1 RETURN JUMPDEST CALLVALUE PUSH2 0x11DF JUMPI PUSH1 0x20 CALLDATASIZE PUSH1 0x3 NOT ADD SLT PUSH2 0x11DF JUMPI PUSH1 0x4 CALLDATALOAD PUSH2 0x1267 PUSH2 0x1255 DUP3 PUSH2 0x2BB4 JUMP JUMPDEST POP SLOAD PUSH1 0x1 PUSH1 0x1 PUSH1 0xA0 SHL SUB AND CALLER EQ PUSH2 0x33C9 JUMP JUMPDEST PUSH2 0x126F PUSH2 0x3749 JUMP JUMPDEST PUSH2 0x127C PUSH1 0x3 SLOAD DUP3 LT PUSH2 0x3407 JUMP JUMPDEST PUSH2 0x12A0 PUSH1 0x1 PUSH1 0x1 PUSH1 0x40 SHL SUB PUSH1 0x4 PUSH2 0x1292 DUP5 PUSH2 0x2BB4 JUMP JUMPDEST POP ADD SLOAD PUSH1 0x40 SHR AND TIMESTAMP GT PUSH2 0x3446 JUMP JUMPDEST PUSH1 0xFF PUSH1 0xA PUSH2 0x12AD DUP4 PUSH2 0x2BB4 JUMP JUMPDEST POP ADD SLOAD AND PUSH2 0x140E JUMPI PUSH2 0x12D2 PUSH1 0xFF PUSH1 0xA PUSH2 0x12C5 DUP5 PUSH2 0x2BB4 JUMP JUMPDEST POP ADD SLOAD PUSH1 0x8 SHR AND ISZERO PUSH2 0x3492 JUMP JUMPDEST PUSH1 0x8 PUSH2 0x12DD DUP3 PUSH2 0x2BB4 JUMP JUMPDEST POP ADD SLOAD PUSH1 0x0 PUSH1 0x8 PUSH2 0x12ED DUP5 PUSH2 0x2BB4 JUMP JUMPDEST POP ADD SSTORE PUSH1 0xA PUSH2 0x12FB DUP4 PUSH2 0x2BB4 JUMP JUMPDEST POP ADD DUP1 SLOAD PUSH2 0xFF00 NOT AND PUSH2 0x100 OR SWAP1 SSTORE PUSH2 0x1313 DUP3 PUSH2 0x2BB4 JUMP JUMPDEST POP PUSH1 0xA ADD SLOAD PUSH1 0x40 MLOAD PUSH4 0xA9059CBB PUSH1 0xE0 SHL DUP2 MSTORE CALLER PUSH1 0x4 DUP3 ADD MSTORE PUSH1 0x24 DUP2 ADD DUP4 SWAP1 MSTORE SWAP1 PUSH1 0x20 SWAP1 DUP3 SWAP1 PUSH1 0x10 SHR PUSH1 0x1 PUSH1 0x1 PUSH1 0xA0 SHL SUB AND DUP2 PUSH1 0x0 DUP2 PUSH1 0x44 DUP2 ADD SUB SWAP3 GAS CALL SWAP1 DUP2 ISZERO PUSH2 0x1402 JUMPI PUSH1 0x0 SWAP2 PUSH2 0x13D3 JUMPI JUMPDEST POP ISZERO PUSH2 0x1397 JUMPI PUSH1 0x20 PUSH32 0x80230996023D69B50793FA73F1919127C9D8E741D3989743C479169F22E7A288 SWAP2 PUSH1 0x40 MLOAD SWAP1 DUP2 MSTORE LOG2 PUSH1 0x1 PUSH1 0x0 SSTORE STOP JUMPDEST PUSH1 0x40 MLOAD PUSH3 0x461BCD PUSH1 0xE5 SHL DUP2 MSTORE PUSH1 0x20 PUSH1 0x4 DUP3 ADD MSTORE PUSH1 0x14 PUSH1 0x24 DUP3 ADD MSTORE PUSH20 0x119D5B99081D1C985B9CD9995C8819985A5B1959 PUSH1 0x62 SHL PUSH1 0x44 DUP3 ADD MSTORE PUSH1 0x64 SWAP1 REVERT JUMPDEST PUSH2 0x13F5 SWAP2 POP PUSH1 0x20 RETURNDATASIZE PUSH1 0x20 GT PUSH2 0x13FB JUMPI JUMPDEST PUSH2 0x13ED DUP2 DUP4 PUSH2 0x2C5B JUMP JUMPDEST DUP2 ADD SWAP1 PUSH2 0x3628 JUMP JUMPDEST DUP4 PUSH2 0x135F JUMP JUMPDEST POP RETURNDATASIZE PUSH2 0x13E3 JUMP JUMPDEST PUSH1 0x40 MLOAD RETURNDATASIZE PUSH1 0x0 DUP3 RETURNDATACOPY RETURNDATASIZE SWAP1 REVERT JUMPDEST PUSH1 0x40 MLOAD PUSH3 0x461BCD PUSH1 0xE5 SHL DUP2 MSTORE PUSH1 0x20 PUSH1 0x4 DUP3 ADD MSTORE PUSH1 0x29 PUSH1 0x24 DUP3 ADD MSTORE PUSH32 0x43616E6E6F742072656C656173652066756E647320666F7220612063616E6365 PUSH1 0x44 DUP3 ADD MSTORE PUSH9 0x1B195908195D995B9D PUSH1 0xBA SHL PUSH1 0x64 DUP3 ADD MSTORE PUSH1 0x84 SWAP1 REVERT JUMPDEST CALLVALUE PUSH2 0x11DF JUMPI PUSH1 0x0 CALLDATASIZE PUSH1 0x3 NOT ADD SLT PUSH2 0x11DF JUMPI PUSH1 0x3 SLOAD PUSH1 0x0 DUP1 JUMPDEST DUP3 DUP2 LT PUSH2 0x153D JUMPI POP PUSH2 0x1497 PUSH2 0x1491 DUP3 PUSH2 0x315A JUMP JUMPDEST SWAP2 PUSH2 0x3204 JUMP JUMPDEST SWAP2 PUSH1 0x0 DUP1 JUMPDEST DUP3 DUP2 LT PUSH2 0x14B5 JUMPI POP POP POP PUSH2 0x1231 PUSH1 0x40 MLOAD SWAP3 DUP4 SWAP3 DUP4 PUSH2 0x2ED3 JUMP JUMPDEST PUSH2 0x14BE DUP2 PUSH2 0x2BB4 JUMP JUMPDEST POP SLOAD PUSH1 0x1 PUSH1 0x1 PUSH1 0xA0 SHL SUB AND CALLER EQ DUP1 PUSH2 0x1526 JUMPI JUMPDEST PUSH2 0x14DE JUMPI JUMPDEST PUSH1 0x1 ADD PUSH2 0x149C JUMP JUMPDEST SWAP1 PUSH2 0x151E DUP2 DUP4 PUSH2 0x14F0 PUSH1 0x1 SWAP5 DUP9 PUSH2 0x3254 JUMP JUMPDEST MSTORE PUSH2 0x1503 PUSH2 0x14FD DUP6 PUSH2 0x2BB4 JUMP JUMPDEST POP PUSH2 0x3268 JUMP JUMPDEST PUSH2 0x150D DUP3 DUP10 PUSH2 0x3254 JUMP JUMPDEST MSTORE PUSH2 0x1518 DUP2 DUP9 PUSH2 0x3254 JUMP JUMPDEST POP PUSH2 0x3134 JUMP JUMPDEST SWAP2 SWAP1 POP PUSH2 0x14D6 JUMP JUMPDEST POP PUSH1 0xFF PUSH1 0x6 PUSH2 0x1534 DUP4 PUSH2 0x2BB4 JUMP JUMPDEST POP ADD SLOAD AND PUSH2 0x14D1 JUMP JUMPDEST PUSH2 0x1546 DUP2 PUSH2 0x2BB4 JUMP JUMPDEST POP SLOAD PUSH1 0x1 PUSH1 0x1 PUSH1 0xA0 SHL SUB AND CALLER EQ DUP1 PUSH2 0x157A JUMPI JUMPDEST PUSH2 0x1566 JUMPI JUMPDEST PUSH1 0x1 ADD PUSH2 0x147D JUMP JUMPDEST SWAP1 PUSH2 0x1572 PUSH1 0x1 SWAP2 PUSH2 0x3134 JUMP JUMPDEST SWAP2 SWAP1 POP PUSH2 0x155E JUMP JUMPDEST POP PUSH1 0xFF PUSH1 0x6 PUSH2 0x1588 DUP4 PUSH2 0x2BB4 JUMP JUMPDEST POP ADD SLOAD AND PUSH2 0x1559 JUMP JUMPDEST CALLVALUE PUSH2 0x11DF JUMPI PUSH1 0x0 CALLDATASIZE PUSH1 0x3 NOT ADD SLT PUSH2 0x11DF JUMPI PUSH1 0x20 PUSH1 0x40 MLOAD PUSH1 0xC8 DUP2 MSTORE RETURN JUMPDEST CALLVALUE PUSH2 0x11DF JUMPI PUSH1 0x0 CALLDATASIZE PUSH1 0x3 NOT ADD SLT PUSH2 0x11DF JUMPI PUSH1 0x3 SLOAD PUSH1 0x0 DUP1 JUMPDEST DUP3 DUP2 LT PUSH2 0x162F JUMPI POP PUSH2 0x15D9 PUSH2 0x1491 DUP3 PUSH2 0x315A JUMP JUMPDEST SWAP2 PUSH1 0x0 DUP1 JUMPDEST DUP3 DUP2 LT PUSH2 0x15F7 JUMPI POP POP POP PUSH2 0x1231 PUSH1 0x40 MLOAD SWAP3 DUP4 SWAP3 DUP4 PUSH2 0x2ED3 JUMP JUMPDEST PUSH1 0xFF PUSH1 0x6 PUSH2 0x1604 DUP4 PUSH2 0x2BB4 JUMP JUMPDEST POP ADD SLOAD AND PUSH2 0x1615 JUMPI JUMPDEST PUSH1 0x1 ADD PUSH2 0x15DE JUMP JUMPDEST SWAP1 PUSH2 0x1627 DUP2 DUP4 PUSH2 0x14F0 PUSH1 0x1 SWAP5 DUP9 PUSH2 0x3254 JUMP JUMPDEST SWAP2 SWAP1 POP PUSH2 0x160D JUMP JUMPDEST PUSH1 0xFF PUSH1 0x6 PUSH2 0x163C DUP4 PUSH2 0x2BB4 JUMP JUMPDEST POP ADD SLOAD AND PUSH2 0x164D JUMPI JUMPDEST PUSH1 0x1 ADD PUSH2 0x15C5 JUMP JUMPDEST SWAP1 PUSH2 0x1659 PUSH1 0x1 SWAP2 PUSH2 0x3134 JUMP JUMPDEST SWAP2 SWAP1 POP PUSH2 0x1645 JUMP JUMPDEST CALLVALUE PUSH2 0x11DF JUMPI PUSH1 0x20 CALLDATASIZE PUSH1 0x3 NOT ADD SLT PUSH2 0x11DF JUMPI PUSH1 0x4 CALLDATALOAD PUSH2 0x167D PUSH2 0x318C JUMP JUMPDEST POP PUSH1 0x3 SLOAD DUP2 LT ISZERO PUSH2 0x1717 JUMPI DUP1 PUSH2 0x1231 PUSH2 0x1698 PUSH2 0x16FB SWAP4 PUSH2 0x2BB4 JUMP JUMPDEST POP DUP3 PUSH1 0x0 MSTORE PUSH1 0x4 PUSH1 0x20 MSTORE PUSH2 0x16B0 PUSH1 0x40 PUSH1 0x0 KECCAK256 SWAP4 PUSH2 0x2BB4 JUMP JUMPDEST POP PUSH1 0x1 DUP1 PUSH1 0xA0 SHL SUB SWAP1 SLOAD AND PUSH1 0x0 MSTORE PUSH1 0x5 PUSH1 0x20 MSTORE PUSH2 0x1709 PUSH2 0x16E6 PUSH2 0x16E0 PUSH2 0x16DA PUSH1 0x40 PUSH1 0x0 KECCAK256 SWAP5 PUSH2 0x3268 JUMP JUMPDEST SWAP6 PUSH2 0x36BE JUMP JUMPDEST SWAP3 PUSH2 0x3370 JUMP JUMPDEST SWAP2 PUSH1 0x40 MLOAD SWAP6 DUP7 SWAP6 PUSH1 0x60 DUP8 MSTORE PUSH1 0x60 DUP8 ADD SWAP1 PUSH2 0x2D61 JUMP JUMPDEST SWAP1 DUP6 DUP3 SUB PUSH1 0x20 DUP8 ADD MSTORE PUSH2 0x2F69 JUMP JUMPDEST SWAP1 DUP4 DUP3 SUB PUSH1 0x40 DUP6 ADD MSTORE PUSH2 0x2E7A JUMP JUMPDEST PUSH1 0x40 MLOAD PUSH3 0x461BCD PUSH1 0xE5 SHL DUP2 MSTORE PUSH1 0x20 PUSH1 0x4 DUP3 ADD MSTORE PUSH1 0x14 PUSH1 0x24 DUP3 ADD MSTORE PUSH20 0x115D995B9D08191BD95CC81B9BDD08195E1A5CDD PUSH1 0x62 SHL PUSH1 0x44 DUP3 ADD MSTORE PUSH1 0x64 SWAP1 REVERT JUMPDEST CALLVALUE PUSH2 0x11DF JUMPI PUSH1 0x0 CALLDATASIZE PUSH1 0x3 NOT ADD SLT PUSH2 0x11DF JUMPI PUSH1 0x20 PUSH1 0x40 MLOAD PUSH10 0xD3C21BCECCEDA1000000 DUP2 MSTORE RETURN JUMPDEST CALLVALUE PUSH2 0x11DF JUMPI PUSH1 0x0 CALLDATASIZE PUSH1 0x3 NOT ADD SLT PUSH2 0x11DF JUMPI PUSH1 0x20 PUSH1 0x40 MLOAD PUSH1 0x96 DUP2 MSTORE RETURN JUMPDEST CALLVALUE PUSH2 0x11DF JUMPI PUSH1 0x60 CALLDATASIZE PUSH1 0x3 NOT ADD SLT PUSH2 0x11DF JUMPI PUSH2 0x17AD PUSH2 0x2F26 JUMP JUMPDEST PUSH1 0x24 CALLDATALOAD SWAP1 PUSH1 0x44 CALLDATALOAD PUSH1 0x1 PUSH1 0x1 PUSH1 0x40 SHL SUB DUP2 GT PUSH2 0x11DF JUMPI PUSH2 0x17D0 SWAP1 CALLDATASIZE SWAP1 PUSH1 0x4 ADD PUSH2 0x2F3C JUMP JUMPDEST PUSH20 0x62B8B11039FCFE5AB0C56E502B1C372A3D2A9C7A CALLER SUB PUSH2 0x1AB6 JUMPI PUSH1 0x20 GT PUSH2 0x11DF JUMPI CALLDATALOAD SWAP1 PUSH2 0x1801 PUSH1 0x3 SLOAD DUP4 LT PUSH2 0x2FA6 JUMP JUMPDEST PUSH2 0x181F PUSH2 0x180D DUP4 PUSH2 0x2BB4 JUMP JUMPDEST POP SLOAD PUSH1 0x1 PUSH1 0x1 PUSH1 0xA0 SHL SUB AND ISZERO ISZERO PUSH2 0x2FE2 JUMP JUMPDEST PUSH2 0x182E PUSH1 0xFF PUSH1 0x2 SLOAD AND ISZERO PUSH2 0x3024 JUMP JUMPDEST PUSH2 0x1837 DUP3 PUSH2 0x2BB4 JUMP JUMPDEST POP SWAP1 PUSH1 0xA DUP3 ADD PUSH20 0x62B8B11039FCFE5AB0C56E502B1C372A3D2A9C7A PUSH1 0x1 DUP1 PUSH1 0xA0 SHL SUB DUP3 SLOAD PUSH1 0x10 SHR AND SUB PUSH2 0x1A7D JUMPI PUSH2 0x187C PUSH1 0x1 PUSH1 0x1 PUSH1 0x40 SHL SUB PUSH1 0x4 DUP6 ADD SLOAD AND TIMESTAMP LT PUSH2 0x3522 JUMP JUMPDEST PUSH2 0x188C PUSH1 0xFF PUSH1 0x6 DUP6 ADD SLOAD AND PUSH2 0x355E JUMP JUMPDEST DUP4 PUSH1 0x0 MSTORE PUSH1 0x6 PUSH1 0x20 MSTORE PUSH1 0x40 PUSH1 0x0 KECCAK256 PUSH1 0x1 DUP1 PUSH1 0xA0 SHL SUB DUP4 AND PUSH1 0x0 MSTORE PUSH1 0x20 MSTORE PUSH2 0x18BB PUSH1 0xFF PUSH1 0x40 PUSH1 0x0 KECCAK256 SLOAD AND ISZERO PUSH2 0x359B JUMP JUMPDEST DUP4 PUSH1 0x0 MSTORE PUSH1 0x4 PUSH1 0x20 MSTORE PUSH2 0x18D6 PUSH2 0x1388 PUSH1 0x40 PUSH1 0x0 KECCAK256 SLOAD LT PUSH2 0x35DB JUMP JUMPDEST PUSH1 0x7 DUP4 ADD SLOAD DUP6 SUB PUSH2 0x1A45 JUMPI DUP4 PUSH1 0x0 MSTORE PUSH1 0x6 PUSH1 0x20 MSTORE PUSH1 0x40 PUSH1 0x0 KECCAK256 PUSH1 0x1 DUP1 PUSH1 0xA0 SHL SUB DUP4 AND PUSH1 0x0 MSTORE PUSH1 0x20 MSTORE PUSH1 0x40 PUSH1 0x0 KECCAK256 PUSH1 0x1 PUSH1 0xFF NOT DUP3 SLOAD AND OR SWAP1 SSTORE DUP4 PUSH1 0x0 MSTORE PUSH1 0x4 PUSH1 0x20 MSTORE PUSH2 0x1925 DUP3 PUSH1 0x40 PUSH1 0x0 KECCAK256 PUSH2 0x3658 JUMP JUMPDEST PUSH1 0x64 DUP6 MUL DUP6 DUP2 DIV PUSH1 0x64 EQ DUP7 ISZERO OR ISZERO PUSH2 0x95D JUMPI PUSH2 0x2710 SWAP1 DIV PUSH2 0x1946 DUP2 DUP8 PUSH2 0x30E5 JUMP JUMPDEST SWAP1 DUP1 ISZERO ISZERO DUP1 PUSH2 0x1A2E JUMPI JUMPDEST PUSH2 0x19A2 JUMPI JUMPDEST POP PUSH2 0x1974 PUSH1 0x8 PUSH1 0x0 DUP1 MLOAD PUSH1 0x20 PUSH2 0x383C DUP4 CODECOPY DUP2 MLOAD SWAP2 MSTORE SWAP6 ADD SWAP2 DUP3 SLOAD PUSH2 0x361B JUMP JUMPDEST SWAP1 SSTORE SLOAD PUSH1 0x40 DUP1 MLOAD SWAP6 DUP7 MSTORE PUSH1 0x1 PUSH1 0x1 PUSH1 0xA0 SHL SUB PUSH1 0x10 SWAP3 SWAP1 SWAP3 SHR DUP3 AND PUSH1 0x20 DUP8 ADD MSTORE SWAP2 AND SWAP4 LOG3 PUSH1 0x20 PUSH1 0x40 MLOAD PUSH1 0x1 DUP2 MSTORE RETURN JUMPDEST DUP3 SLOAD PUSH1 0x2 SLOAD PUSH1 0x40 MLOAD PUSH4 0xA9059CBB PUSH1 0xE0 SHL DUP2 MSTORE PUSH1 0x1 PUSH1 0x1 PUSH1 0xA0 SHL SUB PUSH1 0x8 SWAP3 SWAP1 SWAP3 SHR DUP3 AND PUSH1 0x4 DUP3 ADD MSTORE PUSH1 0x24 DUP2 ADD SWAP4 SWAP1 SWAP4 MSTORE PUSH1 0x20 SWAP2 DUP4 SWAP2 PUSH1 0x44 SWAP2 DUP4 SWAP2 PUSH1 0x0 SWAP2 PUSH1 0x10 SHR AND GAS CALL DUP1 ISZERO PUSH2 0x1402 JUMPI PUSH1 0x0 DUP1 MLOAD PUSH1 0x20 PUSH2 0x383C DUP4 CODECOPY DUP2 MLOAD SWAP2 MSTORE SWAP6 PUSH2 0x1974 SWAP3 PUSH1 0x8 SWAP3 PUSH2 0x1A0F JUMPI JUMPDEST POP SWAP6 POP POP PUSH2 0x1955 JUMP JUMPDEST PUSH2 0x1A27 SWAP1 PUSH1 0x20 RETURNDATASIZE PUSH1 0x20 GT PUSH2 0x13FB JUMPI PUSH2 0x13ED DUP2 DUP4 PUSH2 0x2C5B JUMP JUMPDEST POP DUP10 PUSH2 0x1A06 JUMP JUMPDEST POP PUSH1 0x2 SLOAD PUSH1 0x8 SHR PUSH1 0x1 PUSH1 0x1 PUSH1 0xA0 SHL SUB AND ISZERO ISZERO PUSH2 0x1950 JUMP JUMPDEST PUSH1 0x40 MLOAD PUSH3 0x461BCD PUSH1 0xE5 SHL DUP2 MSTORE PUSH1 0x20 PUSH1 0x4 DUP3 ADD MSTORE PUSH1 0x10 PUSH1 0x24 DUP3 ADD MSTORE PUSH16 0x125B98DBDC9C9958DD08185B5BDD5B9D PUSH1 0x82 SHL PUSH1 0x44 DUP3 ADD MSTORE PUSH1 0x64 SWAP1 REVERT JUMPDEST PUSH1 0x40 MLOAD PUSH3 0x461BCD PUSH1 0xE5 SHL DUP2 MSTORE PUSH1 0x20 PUSH1 0x4 DUP3 ADD MSTORE PUSH1 0x11 PUSH1 0x24 DUP3 ADD MSTORE PUSH17 0x27B7363C903337B9102392103A37B5B2B7 PUSH1 0x79 SHL PUSH1 0x44 DUP3 ADD MSTORE PUSH1 0x64 SWAP1 REVERT JUMPDEST PUSH1 0x40 MLOAD PUSH3 0x461BCD PUSH1 0xE5 SHL DUP2 MSTORE PUSH1 0x20 PUSH1 0x4 DUP3 ADD MSTORE PUSH1 0xD PUSH1 0x24 DUP3 ADD MSTORE PUSH13 0x27B7363C902392103A37B5B2B7 PUSH1 0x99 SHL PUSH1 0x44 DUP3 ADD MSTORE PUSH1 0x64 SWAP1 REVERT JUMPDEST CALLVALUE PUSH2 0x11DF JUMPI PUSH1 0x20 CALLDATASIZE PUSH1 0x3 NOT ADD SLT PUSH2 0x11DF JUMPI PUSH1 0x4 CALLDATALOAD PUSH2 0x1B07 PUSH2 0x3749 JUMP JUMPDEST PUSH2 0x1B14 PUSH1 0x3 SLOAD DUP3 LT PUSH2 0x2FA6 JUMP JUMPDEST PUSH2 0x1B20 PUSH2 0x180D DUP3 PUSH2 0x2BB4 JUMP JUMPDEST PUSH2 0x1B2F PUSH1 0xFF PUSH1 0x2 SLOAD AND ISZERO PUSH2 0x3024 JUMP JUMPDEST PUSH1 0x0 DUP2 DUP2 MSTORE PUSH1 0x6 PUSH1 0x20 SWAP1 DUP2 MSTORE PUSH1 0x40 DUP1 DUP4 KECCAK256 CALLER DUP5 MSTORE SWAP1 SWAP2 MSTORE SWAP1 KECCAK256 SLOAD PUSH2 0x1B55 SWAP1 PUSH1 0xFF AND PUSH2 0x3062 JUMP JUMPDEST PUSH1 0x7 PUSH2 0x1B60 DUP3 PUSH2 0x2BB4 JUMP JUMPDEST POP ADD SLOAD SWAP1 PUSH2 0x1B6D DUP2 PUSH2 0x2BB4 JUMP JUMPDEST POP PUSH1 0xA ADD SLOAD PUSH1 0x10 SHR PUSH1 0x1 PUSH1 0x1 PUSH1 0xA0 SHL SUB AND PUSH20 0x62B8B11039FCFE5AB0C56E502B1C372A3D2A9C7A DUP2 EQ PUSH2 0x1E17 JUMPI JUMPDEST DUP1 ISZERO DUP4 DUP2 ISZERO PUSH2 0x1DF8 JUMPI POP DUP3 PUSH1 0x0 MSTORE PUSH1 0x7 PUSH1 0x20 MSTORE DUP4 PUSH1 0x40 PUSH1 0x0 KECCAK256 SLOAD LT PUSH2 0x1DB3 JUMPI DUP4 SWAP1 JUMPDEST PUSH1 0xFF PUSH1 0xA PUSH2 0x1BC9 DUP7 PUSH2 0x2BB4 JUMP JUMPDEST POP ADD SLOAD AND ISZERO PUSH2 0x1D7B JUMPI JUMPDEST PUSH1 0x0 DUP5 DUP2 MSTORE PUSH1 0x6 PUSH1 0x20 SWAP1 DUP2 MSTORE PUSH1 0x40 DUP1 DUP4 KECCAK256 CALLER DUP5 MSTORE SWAP1 SWAP2 MSTORE SWAP1 KECCAK256 DUP1 SLOAD PUSH1 0xFF NOT AND SWAP1 SSTORE ISZERO PUSH2 0x1D51 JUMPI POP POP DUP1 PUSH1 0x0 MSTORE PUSH1 0x7 PUSH1 0x20 MSTORE PUSH1 0x40 PUSH1 0x0 KECCAK256 PUSH2 0x1C14 DUP4 DUP3 SLOAD PUSH2 0x30E5 JUMP JUMPDEST SWAP1 SSTORE PUSH1 0x0 DUP1 DUP1 DUP1 DUP6 CALLER GAS CALL PUSH2 0x1C27 PUSH2 0x34F2 JUMP JUMPDEST POP ISZERO PUSH2 0x1D17 JUMPI JUMPDEST DUP1 PUSH1 0x0 MSTORE PUSH1 0x4 PUSH1 0x20 MSTORE PUSH1 0x40 PUSH1 0x0 KECCAK256 SWAP1 PUSH1 0x0 JUMPDEST DUP3 SLOAD DUP1 DUP3 LT ISZERO PUSH2 0x1D0E JUMPI PUSH2 0x1C54 DUP3 DUP6 PUSH2 0x3640 JUMP JUMPDEST SWAP1 SLOAD PUSH1 0x3 SWAP2 SWAP1 SWAP2 SHL SHR PUSH1 0x1 PUSH1 0x1 PUSH1 0xA0 SHL SUB AND CALLER EQ PUSH2 0x1C75 JUMPI POP PUSH1 0x1 ADD PUSH2 0x1C40 JUMP JUMPDEST SWAP2 SWAP3 SWAP1 SWAP2 PUSH1 0x0 NOT DUP2 ADD SWAP1 DUP2 GT PUSH2 0x95D JUMPI PUSH2 0x1CDB SWAP3 PUSH2 0x1CB2 PUSH2 0x1C99 PUSH2 0x1CD6 SWAP4 DUP6 PUSH2 0x3640 JUMP JUMPDEST SWAP1 SLOAD PUSH1 0x3 SWAP2 SWAP1 SWAP2 SHL SHR PUSH1 0x1 PUSH1 0x1 PUSH1 0xA0 SHL SUB AND SWAP2 DUP5 PUSH2 0x3640 JUMP JUMPDEST DUP2 SLOAD PUSH1 0x1 PUSH1 0x1 PUSH1 0xA0 SHL SUB SWAP4 DUP5 AND PUSH1 0x3 SWAP3 SWAP1 SWAP3 SHL SWAP2 DUP3 SHL SWAP4 SWAP1 SWAP2 SHL NOT AND SWAP2 SWAP1 SWAP2 OR SWAP1 SSTORE JUMP JUMPDEST PUSH2 0x367B JUMP JUMPDEST PUSH1 0x40 MLOAD SWAP2 DUP3 MSTORE PUSH32 0x7A482FDEB6BC9A1376F597068A214A7A39472BB2EFF1B8CAD21BA04F49DDCA1B PUSH1 0x20 CALLER SWAP4 LOG3 PUSH1 0x1 PUSH1 0x0 SSTORE STOP JUMPDEST POP POP SWAP1 POP PUSH2 0x1CDB JUMP JUMPDEST PUSH1 0x40 MLOAD PUSH3 0x461BCD PUSH1 0xE5 SHL DUP2 MSTORE PUSH1 0x20 PUSH1 0x4 DUP3 ADD MSTORE PUSH1 0x12 PUSH1 0x24 DUP3 ADD MSTORE PUSH18 0x10985CD9481C99599D5B990819985A5B1959 PUSH1 0x72 SHL PUSH1 0x44 DUP3 ADD MSTORE PUSH1 0x64 SWAP1 REVERT JUMPDEST PUSH2 0x1D76 SWAP2 PUSH1 0x8 PUSH2 0x1D60 DUP6 PUSH2 0x2BB4 JUMP JUMPDEST POP ADD PUSH2 0x1D6D DUP4 DUP3 SLOAD PUSH2 0x30E5 JUMP JUMPDEST SWAP1 SSTORE CALLER SWAP1 PUSH2 0x376B JUMP JUMPDEST PUSH2 0x1C2E JUMP JUMPDEST SWAP1 POP PUSH1 0x1 PUSH1 0x1 PUSH1 0x40 SHL SUB PUSH1 0x4 PUSH2 0x1D90 DUP6 PUSH2 0x2BB4 JUMP JUMPDEST POP ADD SLOAD AND SWAP1 PUSH2 0x464F NOT DUP3 ADD SWAP2 DUP3 GT PUSH2 0x95D JUMPI PUSH2 0x1DAE DUP6 SWAP3 TIMESTAMP LT PUSH2 0x30F2 JUMP JUMPDEST PUSH2 0x1BD3 JUMP JUMPDEST PUSH1 0x40 MLOAD PUSH3 0x461BCD PUSH1 0xE5 SHL DUP2 MSTORE PUSH1 0x20 PUSH1 0x4 DUP3 ADD MSTORE PUSH1 0x17 PUSH1 0x24 DUP3 ADD MSTORE PUSH32 0x496E73756666696369656E7420426173652066756E6473000000000000000000 PUSH1 0x44 DUP3 ADD MSTORE PUSH1 0x64 SWAP1 REVERT JUMPDEST SWAP1 PUSH2 0x1E12 DUP3 PUSH1 0x8 PUSH2 0x1E08 DUP8 PUSH2 0x2BB4 JUMP JUMPDEST POP ADD SLOAD LT ISZERO PUSH2 0x30A4 JUMP JUMPDEST PUSH2 0x1BBC JUMP JUMPDEST SWAP2 PUSH1 0x63 DUP2 MUL SWAP1 DUP1 DUP3 DIV PUSH1 0x63 EQ SWAP1 ISZERO OR ISZERO PUSH2 0x95D JUMPI PUSH1 0x64 SWAP1 DIV SWAP2 PUSH2 0x1B9A JUMP JUMPDEST CALLVALUE PUSH2 0x11DF JUMPI PUSH1 0x0 CALLDATASIZE PUSH1 0x3 NOT ADD SLT PUSH2 0x11DF JUMPI PUSH1 0x2 SLOAD PUSH1 0x40 MLOAD PUSH1 0x8 SWAP2 SWAP1 SWAP2 SHR PUSH1 0x1 PUSH1 0x1 PUSH1 0xA0 SHL SUB AND DUP2 MSTORE PUSH1 0x20 SWAP1 RETURN JUMPDEST CALLVALUE PUSH2 0x11DF JUMPI PUSH1 0x0 CALLDATASIZE PUSH1 0x3 NOT ADD SLT PUSH2 0x11DF JUMPI PUSH1 0x20 PUSH1 0x40 MLOAD PUSH1 0x64 DUP2 MSTORE RETURN JUMPDEST CALLVALUE PUSH2 0x11DF JUMPI PUSH1 0x0 CALLDATASIZE PUSH1 0x3 NOT ADD SLT PUSH2 0x11DF JUMPI PUSH1 0x20 PUSH1 0x40 MLOAD PUSH2 0x4650 DUP2 MSTORE RETURN JUMPDEST CALLVALUE PUSH2 0x11DF JUMPI PUSH1 0x20 CALLDATASIZE PUSH1 0x3 NOT ADD SLT PUSH2 0x11DF JUMPI PUSH1 0x1 PUSH1 0x1 PUSH1 0xA0 SHL SUB PUSH2 0x1EBC PUSH2 0x2F26 JUMP JUMPDEST AND PUSH1 0x0 MSTORE PUSH1 0x1 PUSH1 0x20 MSTORE PUSH1 0x20 PUSH1 0xFF PUSH1 0x40 PUSH1 0x0 KECCAK256 SLOAD AND PUSH1 0x40 MLOAD SWAP1 ISZERO ISZERO DUP2 MSTORE RETURN JUMPDEST PUSH1 0x20 CALLDATASIZE PUSH1 0x3 NOT ADD SLT PUSH2 0x11DF JUMPI PUSH1 0x4 CALLDATALOAD PUSH2 0x1EF1 PUSH2 0x3749 JUMP JUMPDEST PUSH2 0x1EFE PUSH1 0x3 SLOAD DUP3 LT PUSH2 0x2FA6 JUMP JUMPDEST PUSH2 0x1F0A PUSH2 0x180D DUP3 PUSH2 0x2BB4 JUMP JUMPDEST PUSH2 0x1F19 PUSH1 0xFF PUSH1 0x2 SLOAD AND ISZERO PUSH2 0x3024 JUMP JUMPDEST PUSH2 0x1F22 DUP2 PUSH2 0x2BB4 JUMP JUMPDEST POP SWAP1 PUSH2 0x1F3C PUSH1 0x1 PUSH1 0x1 PUSH1 0x40 SHL SUB PUSH1 0x4 DUP5 ADD SLOAD AND TIMESTAMP LT PUSH2 0x3522 JUMP JUMPDEST PUSH2 0x1F4C PUSH1 0xFF PUSH1 0x6 DUP5 ADD SLOAD AND PUSH2 0x355E JUMP JUMPDEST PUSH1 0x0 DUP2 DUP2 MSTORE PUSH1 0x6 PUSH1 0x20 SWAP1 DUP2 MSTORE PUSH1 0x40 DUP1 DUP4 KECCAK256 CALLER DUP5 MSTORE SWAP1 SWAP2 MSTORE SWAP1 KECCAK256 SLOAD PUSH2 0x1F73 SWAP1 PUSH1 0xFF AND ISZERO PUSH2 0x359B JUMP JUMPDEST DUP1 PUSH1 0x0 MSTORE PUSH1 0x4 PUSH1 0x20 MSTORE PUSH2 0x1F8E PUSH2 0x1388 PUSH1 0x40 PUSH1 0x0 KECCAK256 SLOAD LT PUSH2 0x35DB JUMP JUMPDEST PUSH1 0x7 DUP3 ADD SLOAD PUSH1 0xA DUP4 ADD DUP1 SLOAD SWAP2 SWAP4 SWAP2 PUSH1 0x10 SHR PUSH1 0x1 PUSH1 0x1 PUSH1 0xA0 SHL SUB AND DUP1 PUSH2 0x2097 JUMPI POP SWAP1 POP DUP3 CALLVALUE SUB PUSH2 0x205A JUMPI PUSH2 0x2050 PUSH1 0x0 DUP1 MLOAD PUSH1 0x20 PUSH2 0x383C DUP4 CODECOPY DUP2 MLOAD SWAP2 MSTORE SWAP2 DUP4 PUSH1 0x0 MSTORE PUSH1 0x7 PUSH1 0x20 MSTORE PUSH1 0x40 PUSH1 0x0 KECCAK256 PUSH2 0x1FE3 DUP7 DUP3 SLOAD PUSH2 0x361B JUMP JUMPDEST SWAP1 SSTORE JUMPDEST DUP4 PUSH1 0x0 MSTORE PUSH1 0x6 PUSH1 0x20 MSTORE PUSH1 0x40 PUSH1 0x0 KECCAK256 PUSH1 0x1 DUP1 PUSH1 0xA0 SHL SUB CALLER AND PUSH1 0x0 MSTORE PUSH1 0x20 MSTORE PUSH1 0x40 PUSH1 0x0 KECCAK256 PUSH1 0x1 PUSH1 0xFF NOT DUP3 SLOAD AND OR SWAP1 SSTORE DUP4 PUSH1 0x0 MSTORE PUSH1 0x4 PUSH1 0x20 MSTORE PUSH2 0x202A CALLER PUSH1 0x40 PUSH1 0x0 KECCAK256 PUSH2 0x3658 JUMP JUMPDEST SLOAD PUSH1 0x40 DUP1 MLOAD SWAP6 DUP7 MSTORE PUSH1 0x10 SWAP2 SWAP1 SWAP2 SHR PUSH1 0x1 PUSH1 0x1 PUSH1 0xA0 SHL SUB AND PUSH1 0x20 DUP7 ADD MSTORE CALLER SWAP5 SWAP2 DUP3 SWAP2 DUP3 ADD SWAP1 JUMP JUMPDEST SUB SWAP1 LOG3 PUSH1 0x1 PUSH1 0x0 SSTORE STOP JUMPDEST PUSH1 0x40 MLOAD PUSH3 0x461BCD PUSH1 0xE5 SHL DUP2 MSTORE PUSH1 0x20 PUSH1 0x4 DUP3 ADD MSTORE PUSH1 0x15 PUSH1 0x24 DUP3 ADD MSTORE PUSH21 0x125B98DBDC9C9958DD0810985CD948185B5BDD5B9D PUSH1 0x5A SHL PUSH1 0x44 DUP3 ADD MSTORE PUSH1 0x64 SWAP1 REVERT JUMPDEST PUSH20 0x62B8B11039FCFE5AB0C56E502B1C372A3D2A9C7A DUP2 SUB PUSH2 0x217B JUMPI POP SWAP1 PUSH1 0x0 SWAP2 PUSH1 0x20 PUSH2 0x2116 PUSH1 0x40 MLOAD DUP7 DUP4 DUP3 ADD MSTORE DUP3 DUP2 MSTORE PUSH2 0x20D2 PUSH1 0x40 DUP3 PUSH2 0x2C5B JUMP JUMPDEST DUP4 SLOAD PUSH1 0x40 MLOAD PUSH4 0x2000575 PUSH1 0xE5 SHL DUP2 MSTORE ADDRESS PUSH1 0x4 DUP3 ADD MSTORE PUSH1 0x24 DUP2 ADD DUP11 SWAP1 MSTORE PUSH1 0x60 PUSH1 0x44 DUP3 ADD MSTORE SWAP7 DUP8 SWAP4 PUSH1 0x10 SWAP3 SWAP1 SWAP3 SHR PUSH1 0x1 PUSH1 0x1 PUSH1 0xA0 SHL SUB AND SWAP3 DUP5 SWAP3 DUP4 SWAP2 PUSH1 0x64 DUP4 ADD SWAP1 PUSH2 0x2D20 JUMP JUMPDEST SUB SWAP3 GAS CALL SWAP2 DUP3 ISZERO PUSH2 0x1402 JUMPI PUSH1 0x0 DUP1 MLOAD PUSH1 0x20 PUSH2 0x383C DUP4 CODECOPY DUP2 MLOAD SWAP2 MSTORE SWAP4 PUSH2 0x2050 SWAP4 PUSH2 0x215E JUMPI JUMPDEST POP PUSH2 0x2157 PUSH1 0x8 PUSH2 0x214D PUSH1 0x64 DUP10 DIV DUP10 PUSH2 0x30E5 JUMP JUMPDEST SWAP3 ADD SWAP2 DUP3 SLOAD PUSH2 0x361B JUMP JUMPDEST SWAP1 SSTORE PUSH2 0x1FE6 JUMP JUMPDEST PUSH2 0x2176 SWAP1 PUSH1 0x20 RETURNDATASIZE PUSH1 0x20 GT PUSH2 0x13FB JUMPI PUSH2 0x13ED DUP2 DUP4 PUSH2 0x2C5B JUMP JUMPDEST PUSH2 0x213A JUMP JUMPDEST SWAP1 PUSH1 0x40 MLOAD PUSH4 0x6EB1769F PUSH1 0xE1 SHL DUP2 MSTORE CALLER PUSH1 0x4 DUP3 ADD MSTORE ADDRESS PUSH1 0x24 DUP3 ADD MSTORE PUSH1 0x20 DUP2 PUSH1 0x44 DUP2 DUP7 GAS STATICCALL DUP1 ISZERO PUSH2 0x1402 JUMPI DUP7 SWAP2 PUSH1 0x0 SWAP2 PUSH2 0x2277 JUMPI JUMPDEST POP LT PUSH2 0x2239 JUMPI PUSH1 0x20 PUSH1 0x0 SWAP3 PUSH1 0x64 PUSH1 0x40 MLOAD DUP1 SWAP6 DUP2 SWAP4 PUSH4 0x23B872DD PUSH1 0xE0 SHL DUP4 MSTORE CALLER PUSH1 0x4 DUP5 ADD MSTORE ADDRESS PUSH1 0x24 DUP5 ADD MSTORE DUP11 PUSH1 0x44 DUP5 ADD MSTORE GAS CALL DUP1 ISZERO PUSH2 0x1402 JUMPI PUSH1 0x0 DUP1 MLOAD PUSH1 0x20 PUSH2 0x383C DUP4 CODECOPY DUP2 MLOAD SWAP2 MSTORE SWAP4 PUSH2 0x220E PUSH1 0x8 SWAP3 PUSH2 0x2050 SWAP6 PUSH1 0x0 SWAP2 PUSH2 0x221A JUMPI JUMPDEST POP PUSH2 0x37FD JUMP JUMPDEST ADD PUSH2 0x2157 DUP7 DUP3 SLOAD PUSH2 0x361B JUMP JUMPDEST PUSH2 0x2233 SWAP2 POP PUSH1 0x20 RETURNDATASIZE PUSH1 0x20 GT PUSH2 0x13FB JUMPI PUSH2 0x13ED DUP2 DUP4 PUSH2 0x2C5B JUMP JUMPDEST DUP10 PUSH2 0x2208 JUMP JUMPDEST PUSH1 0x40 MLOAD PUSH3 0x461BCD PUSH1 0xE5 SHL DUP2 MSTORE PUSH1 0x20 PUSH1 0x4 DUP3 ADD MSTORE PUSH1 0x16 PUSH1 0x24 DUP3 ADD MSTORE PUSH22 0x496E73756666696369656E7420616C6C6F77616E6365 PUSH1 0x50 SHL PUSH1 0x44 DUP3 ADD MSTORE PUSH1 0x64 SWAP1 REVERT JUMPDEST SWAP2 POP POP PUSH1 0x20 DUP2 RETURNDATASIZE PUSH1 0x20 GT PUSH2 0x22A4 JUMPI JUMPDEST DUP2 PUSH2 0x2293 PUSH1 0x20 SWAP4 DUP4 PUSH2 0x2C5B JUMP JUMPDEST DUP2 ADD SUB SLT PUSH2 0x11DF JUMPI DUP6 SWAP1 MLOAD DUP8 PUSH2 0x21AE JUMP JUMPDEST RETURNDATASIZE SWAP2 POP PUSH2 0x2286 JUMP JUMPDEST CALLVALUE PUSH2 0x11DF JUMPI PUSH1 0x0 CALLDATASIZE PUSH1 0x3 NOT ADD SLT PUSH2 0x11DF JUMPI PUSH1 0x20 PUSH1 0x40 MLOAD PUSH2 0x1388 DUP2 MSTORE RETURN JUMPDEST CALLVALUE PUSH2 0x11DF JUMPI PUSH1 0x0 CALLDATASIZE PUSH1 0x3 NOT ADD SLT PUSH2 0x11DF JUMPI PUSH1 0x20 PUSH1 0x40 MLOAD PUSH1 0x0 DUP2 MSTORE RETURN JUMPDEST CALLVALUE PUSH2 0x11DF JUMPI PUSH1 0x0 CALLDATASIZE PUSH1 0x3 NOT ADD SLT PUSH2 0x11DF JUMPI PUSH1 0x20 PUSH1 0x3 SLOAD PUSH1 0x40 MLOAD SWAP1 DUP2 MSTORE RETURN JUMPDEST CALLVALUE PUSH2 0x11DF JUMPI PUSH1 0x0 CALLDATASIZE PUSH1 0x3 NOT ADD SLT PUSH2 0x11DF JUMPI PUSH1 0x20 PUSH1 0xFF PUSH1 0x2 SLOAD AND PUSH1 0x40 MLOAD SWAP1 ISZERO ISZERO DUP2 MSTORE RETURN JUMPDEST CALLVALUE PUSH2 0x11DF JUMPI PUSH1 0x0 CALLDATASIZE PUSH1 0x3 NOT ADD SLT PUSH2 0x11DF JUMPI PUSH1 0x20 PUSH1 0x40 MLOAD PUSH2 0x3E8 DUP2 MSTORE RETURN JUMPDEST CALLVALUE PUSH2 0x11DF JUMPI PUSH1 0x20 CALLDATASIZE PUSH1 0x3 NOT ADD SLT PUSH2 0x11DF JUMPI PUSH1 0x4 CALLDATALOAD PUSH2 0x2363 PUSH2 0x1255 DUP3 PUSH2 0x2BB4 JUMP JUMPDEST PUSH2 0x236B PUSH2 0x3749 JUMP JUMPDEST PUSH2 0x2378 PUSH1 0x3 SLOAD DUP3 LT PUSH2 0x3407 JUMP JUMPDEST PUSH2 0x238E PUSH1 0x1 PUSH1 0x1 PUSH1 0x40 SHL SUB PUSH1 0x4 PUSH2 0x1292 DUP5 PUSH2 0x2BB4 JUMP JUMPDEST PUSH1 0xFF PUSH1 0xA PUSH2 0x239B DUP4 PUSH2 0x2BB4 JUMP JUMPDEST POP ADD SLOAD AND PUSH2 0x24D9 JUMPI PUSH2 0x23B3 PUSH1 0xFF PUSH1 0xA PUSH2 0x12C5 DUP5 PUSH2 0x2BB4 JUMP JUMPDEST PUSH2 0x23BC DUP2 PUSH2 0x2BB4 JUMP JUMPDEST POP PUSH1 0xA ADD SLOAD PUSH1 0x10 SHR PUSH1 0x1 PUSH1 0x1 PUSH1 0xA0 SHL SUB AND DUP1 PUSH2 0x2486 JUMPI POP PUSH1 0x0 DUP2 DUP2 MSTORE PUSH1 0x7 PUSH1 0x20 MSTORE PUSH1 0x40 DUP2 KECCAK256 DUP1 SLOAD SWAP1 DUP3 SWAP1 SSTORE SWAP1 DUP1 DUP1 DUP1 DUP5 CALLER GAS CALL PUSH2 0x23F7 PUSH2 0x34F2 JUMP JUMPDEST POP ISZERO PUSH2 0x244A JUMPI PUSH1 0x20 PUSH32 0x80230996023D69B50793FA73F1919127C9D8E741D3989743C479169F22E7A288 SWAP2 JUMPDEST PUSH1 0xA PUSH2 0x242D DUP6 PUSH2 0x2BB4 JUMP JUMPDEST POP ADD DUP1 SLOAD PUSH2 0xFF00 NOT AND PUSH2 0x100 OR SWAP1 SSTORE PUSH1 0x40 MLOAD SWAP1 DUP2 MSTORE LOG2 PUSH1 0x1 PUSH1 0x0 SSTORE STOP JUMPDEST PUSH1 0x40 MLOAD PUSH3 0x461BCD PUSH1 0xE5 SHL DUP2 MSTORE PUSH1 0x20 PUSH1 0x4 DUP3 ADD MSTORE PUSH1 0x14 PUSH1 0x24 DUP3 ADD MSTORE PUSH20 0x10985CD9481D1C985B9CD9995C8819985A5B1959 PUSH1 0x62 SHL PUSH1 0x44 DUP3 ADD MSTORE PUSH1 0x64 SWAP1 REVERT JUMPDEST PUSH1 0x20 PUSH32 0x80230996023D69B50793FA73F1919127C9D8E741D3989743C479169F22E7A288 SWAP2 PUSH2 0x24D4 PUSH1 0x8 PUSH2 0x24B8 DUP7 PUSH2 0x2BB4 JUMP JUMPDEST POP ADD SLOAD DUP1 SWAP3 PUSH1 0x0 PUSH1 0x8 PUSH2 0x24CA DUP10 PUSH2 0x2BB4 JUMP JUMPDEST POP ADD SSTORE CALLER SWAP1 PUSH2 0x376B JUMP JUMPDEST PUSH2 0x2422 JUMP JUMPDEST PUSH1 0x40 MLOAD PUSH3 0x461BCD PUSH1 0xE5 SHL DUP2 MSTORE PUSH1 0x20 PUSH1 0x4 DUP3 ADD MSTORE PUSH1 0x27 PUSH1 0x24 DUP3 ADD MSTORE PUSH32 0x43616E6E6F742072656C656173652066756E647320666F722063616E63656C65 PUSH1 0x44 DUP3 ADD MSTORE PUSH7 0x1908195D995B9D PUSH1 0xCA SHL PUSH1 0x64 DUP3 ADD MSTORE PUSH1 0x84 SWAP1 REVERT JUMPDEST CALLVALUE PUSH2 0x11DF JUMPI PUSH1 0x20 CALLDATASIZE PUSH1 0x3 NOT ADD SLT PUSH2 0x11DF JUMPI PUSH1 0x4 CALLDATALOAD PUSH1 0x0 MSTORE PUSH1 0x7 PUSH1 0x20 MSTORE PUSH1 0x20 PUSH1 0x40 PUSH1 0x0 KECCAK256 SLOAD PUSH1 0x40 MLOAD SWAP1 DUP2 MSTORE RETURN JUMPDEST CALLVALUE PUSH2 0x11DF JUMPI PUSH1 0x40 CALLDATASIZE PUSH1 0x3 NOT ADD SLT PUSH2 0x11DF JUMPI PUSH1 0x24 CALLDATALOAD PUSH1 0x1 PUSH1 0x1 PUSH1 0xA0 SHL SUB DUP2 AND DUP2 SUB PUSH2 0x11DF JUMPI PUSH1 0x4 CALLDATALOAD PUSH1 0x0 MSTORE PUSH1 0x6 PUSH1 0x20 MSTORE PUSH1 0x40 PUSH1 0x0 KECCAK256 SWAP1 PUSH1 0x1 DUP1 PUSH1 0xA0 SHL SUB AND PUSH1 0x0 MSTORE PUSH1 0x20 MSTORE PUSH1 0x20 PUSH1 0xFF PUSH1 0x40 PUSH1 0x0 KECCAK256 SLOAD AND PUSH1 0x40 MLOAD SWAP1 ISZERO ISZERO DUP2 MSTORE RETURN JUMPDEST CALLVALUE PUSH2 0x11DF JUMPI PUSH1 0x20 CALLDATASIZE PUSH1 0x3 NOT ADD SLT PUSH2 0x11DF JUMPI PUSH1 0x4 CALLDATALOAD PUSH2 0x25D2 PUSH2 0x1255 DUP3 PUSH2 0x2BB4 JUMP JUMPDEST PUSH2 0x25DF PUSH1 0x3 SLOAD DUP3 LT PUSH2 0x2FA6 JUMP JUMPDEST PUSH2 0x25EB PUSH2 0x180D DUP3 PUSH2 0x2BB4 JUMP JUMPDEST PUSH2 0x25FA PUSH1 0xFF PUSH1 0x2 SLOAD AND ISZERO PUSH2 0x3024 JUMP JUMPDEST PUSH1 0xFF PUSH1 0x6 PUSH2 0x2607 DUP4 PUSH2 0x2BB4 JUMP JUMPDEST POP ADD SLOAD AND ISZERO PUSH2 0x2664 JUMPI PUSH1 0x6 PUSH2 0x261B DUP3 PUSH2 0x2BB4 JUMP JUMPDEST POP ADD DUP1 SLOAD PUSH1 0xFF NOT AND SWAP1 SSTORE PUSH1 0xA PUSH2 0x2630 DUP3 PUSH2 0x2BB4 JUMP JUMPDEST POP ADD DUP1 SLOAD PUSH1 0xFF NOT AND PUSH1 0x1 OR SWAP1 SSTORE PUSH32 0xCEAF11772900FE569752A0207C8639FB8228EB8663456DC9EAA3A08F927A8705 PUSH1 0x0 DUP1 LOG2 STOP JUMPDEST PUSH1 0x40 MLOAD PUSH3 0x461BCD PUSH1 0xE5 SHL DUP2 MSTORE PUSH1 0x20 PUSH1 0x4 DUP3 ADD MSTORE PUSH1 0x10 PUSH1 0x24 DUP3 ADD MSTORE PUSH16 0x105B1C9958591E4818D85B98D95B1959 PUSH1 0x82 SHL PUSH1 0x44 DUP3 ADD MSTORE PUSH1 0x64 SWAP1 REVERT JUMPDEST CALLVALUE PUSH2 0x11DF JUMPI PUSH1 0x20 CALLDATASIZE PUSH1 0x3 NOT ADD SLT PUSH2 0x11DF JUMPI PUSH1 0x1 PUSH1 0x1 PUSH1 0xA0 SHL SUB PUSH2 0x26BD PUSH2 0x2F26 JUMP JUMPDEST AND PUSH1 0x0 MSTORE PUSH1 0x5 PUSH1 0x20 MSTORE PUSH2 0x1231 PUSH2 0x26D6 PUSH1 0x40 PUSH1 0x0 KECCAK256 PUSH2 0x3370 JUMP JUMPDEST PUSH1 0x40 MLOAD SWAP2 DUP3 SWAP2 PUSH1 0x20 DUP4 MSTORE PUSH1 0x20 DUP4 ADD SWAP1 PUSH2 0x2E7A JUMP JUMPDEST CALLVALUE PUSH2 0x11DF JUMPI PUSH1 0x0 CALLDATASIZE PUSH1 0x3 NOT ADD SLT PUSH2 0x11DF JUMPI PUSH1 0x20 PUSH1 0x40 MLOAD PUSH2 0xE10 DUP2 MSTORE RETURN JUMPDEST CALLVALUE PUSH2 0x11DF JUMPI PUSH1 0x0 CALLDATASIZE PUSH1 0x3 NOT ADD SLT PUSH2 0x11DF JUMPI PUSH1 0x3 SLOAD CALLER SWAP1 PUSH1 0x0 SWAP1 DUP2 JUMPDEST DUP2 DUP2 LT PUSH2 0x27BE JUMPI POP PUSH2 0x273C PUSH2 0x2736 DUP4 PUSH2 0x315A JUMP JUMPDEST SWAP3 PUSH2 0x3204 JUMP JUMPDEST SWAP3 PUSH1 0x0 SWAP1 DUP2 JUMPDEST DUP4 DUP2 LT PUSH2 0x2758 JUMPI PUSH1 0x40 MLOAD DUP1 PUSH2 0x1231 DUP9 DUP9 DUP4 PUSH2 0x2ED3 JUMP JUMPDEST DUP1 PUSH1 0x0 MSTORE PUSH1 0x6 PUSH1 0x20 MSTORE PUSH1 0xFF PUSH1 0x40 DUP1 PUSH1 0x0 KECCAK256 PUSH1 0x0 SWAP1 DUP6 DUP3 MSTORE PUSH1 0x20 MSTORE KECCAK256 SLOAD AND PUSH2 0x2782 JUMPI JUMPDEST PUSH1 0x1 ADD PUSH2 0x2742 JUMP JUMPDEST SWAP2 PUSH2 0x27B6 DUP2 DUP5 PUSH2 0x2794 PUSH1 0x1 SWAP5 DUP10 PUSH2 0x3254 JUMP JUMPDEST MSTORE PUSH2 0x27A1 PUSH2 0x14FD DUP7 PUSH2 0x2BB4 JUMP JUMPDEST PUSH2 0x27AB DUP3 DUP11 PUSH2 0x3254 JUMP JUMPDEST MSTORE PUSH2 0x1518 DUP2 DUP10 PUSH2 0x3254 JUMP JUMPDEST SWAP3 SWAP1 POP PUSH2 0x277A JUMP JUMPDEST DUP1 PUSH1 0x0 MSTORE PUSH1 0x6 PUSH1 0x20 MSTORE PUSH1 0xFF PUSH1 0x40 DUP1 PUSH1 0x0 KECCAK256 PUSH1 0x0 SWAP1 DUP8 DUP3 MSTORE PUSH1 0x20 MSTORE KECCAK256 SLOAD AND PUSH2 0x27E8 JUMPI JUMPDEST PUSH1 0x1 ADD PUSH2 0x2722 JUMP JUMPDEST SWAP2 PUSH2 0x27F4 PUSH1 0x1 SWAP2 PUSH2 0x3134 JUMP JUMPDEST SWAP3 SWAP1 POP PUSH2 0x27E0 JUMP JUMPDEST CALLVALUE PUSH2 0x11DF JUMPI PUSH1 0x20 CALLDATASIZE PUSH1 0x3 NOT ADD SLT PUSH2 0x11DF JUMPI PUSH1 0x4 CALLDATALOAD PUSH2 0x2818 PUSH2 0x3749 JUMP JUMPDEST PUSH2 0x2825 PUSH1 0x3 SLOAD DUP3 LT PUSH2 0x2FA6 JUMP JUMPDEST PUSH2 0x2831 PUSH2 0x180D DUP3 PUSH2 0x2BB4 JUMP JUMPDEST PUSH2 0x2840 PUSH1 0xFF PUSH1 0x2 SLOAD AND ISZERO PUSH2 0x3024 JUMP JUMPDEST PUSH1 0x0 DUP2 DUP2 MSTORE PUSH1 0x6 PUSH1 0x20 SWAP1 DUP2 MSTORE PUSH1 0x40 DUP1 DUP4 KECCAK256 CALLER DUP5 MSTORE SWAP1 SWAP2 MSTORE SWAP1 KECCAK256 SLOAD PUSH2 0x2866 SWAP1 PUSH1 0xFF AND PUSH2 0x3062 JUMP JUMPDEST PUSH1 0x7 PUSH2 0x2871 DUP3 PUSH2 0x2BB4 JUMP JUMPDEST POP ADD SLOAD SWAP1 PUSH20 0x62B8B11039FCFE5AB0C56E502B1C372A3D2A9C7A PUSH2 0x2893 DUP3 PUSH2 0x2BB4 JUMP JUMPDEST POP PUSH1 0xA ADD SLOAD PUSH1 0x10 SHR PUSH1 0x1 PUSH1 0x1 PUSH1 0xA0 SHL SUB AND EQ PUSH2 0x2A2F JUMPI JUMPDEST PUSH2 0x28B9 DUP3 PUSH1 0x8 PUSH2 0x1E08 DUP5 PUSH2 0x2BB4 JUMP JUMPDEST PUSH1 0xFF PUSH1 0xA PUSH2 0x28C6 DUP4 PUSH2 0x2BB4 JUMP JUMPDEST POP ADD SLOAD AND ISZERO PUSH2 0x29FB JUMPI JUMPDEST PUSH1 0x0 DUP2 DUP2 MSTORE PUSH1 0x6 PUSH1 0x20 SWAP1 DUP2 MSTORE PUSH1 0x40 DUP1 DUP4 KECCAK256 CALLER DUP5 MSTORE SWAP1 SWAP2 MSTORE SWAP1 KECCAK256 DUP1 SLOAD PUSH1 0xFF NOT AND SWAP1 SSTORE PUSH1 0x8 PUSH2 0x28FC DUP3 PUSH2 0x2BB4 JUMP JUMPDEST POP ADD PUSH2 0x2909 DUP4 DUP3 SLOAD PUSH2 0x30E5 JUMP JUMPDEST SWAP1 SSTORE DUP1 PUSH1 0x0 MSTORE PUSH1 0x4 PUSH1 0x20 MSTORE PUSH1 0x40 PUSH1 0x0 KECCAK256 SWAP1 PUSH1 0x0 JUMPDEST DUP3 SLOAD DUP1 DUP3 LT ISZERO PUSH2 0x29F2 JUMPI PUSH2 0x2931 DUP3 DUP6 PUSH2 0x3640 JUMP JUMPDEST SWAP1 SLOAD PUSH1 0x3 SWAP2 SWAP1 SWAP2 SHL SHR PUSH1 0x1 PUSH1 0x1 PUSH1 0xA0 SHL SUB AND CALLER EQ PUSH2 0x2952 JUMPI POP PUSH1 0x1 ADD PUSH2 0x291D JUMP JUMPDEST SWAP2 SWAP3 SWAP1 SWAP2 PUSH1 0x0 NOT DUP2 ADD SWAP1 DUP2 GT PUSH2 0x95D JUMPI PUSH2 0x2976 SWAP3 PUSH2 0x1CB2 PUSH2 0x1C99 PUSH2 0x1CD6 SWAP4 DUP6 PUSH2 0x3640 JUMP JUMPDEST PUSH2 0x297F DUP2 PUSH2 0x2BB4 JUMP JUMPDEST POP PUSH1 0xA ADD SLOAD PUSH1 0x40 MLOAD PUSH4 0xA9059CBB PUSH1 0xE0 SHL DUP2 MSTORE CALLER PUSH1 0x4 DUP3 ADD MSTORE PUSH1 0x24 DUP2 ADD DUP5 SWAP1 MSTORE SWAP1 PUSH1 0x20 SWAP1 DUP3 SWAP1 PUSH1 0x10 SHR PUSH1 0x1 PUSH1 0x1 PUSH1 0xA0 SHL SUB AND DUP2 PUSH1 0x0 DUP2 PUSH1 0x44 DUP2 ADD SUB SWAP3 GAS CALL DUP1 ISZERO PUSH2 0x1402 JUMPI PUSH2 0x1CDB SWAP2 PUSH1 0x0 SWAP2 PUSH2 0x29D3 JUMPI POP PUSH2 0x37FD JUMP JUMPDEST PUSH2 0x29EC SWAP2 POP PUSH1 0x20 RETURNDATASIZE PUSH1 0x20 GT PUSH2 0x13FB JUMPI PUSH2 0x13ED DUP2 DUP4 PUSH2 0x2C5B JUMP JUMPDEST DUP5 PUSH2 0x2208 JUMP JUMPDEST POP POP SWAP1 POP PUSH2 0x2976 JUMP JUMPDEST PUSH1 0x1 PUSH1 0x1 PUSH1 0x40 SHL SUB PUSH1 0x4 PUSH2 0x2A0E DUP4 PUSH2 0x2BB4 JUMP JUMPDEST POP ADD SLOAD AND PUSH2 0x464F NOT DUP2 ADD SWAP1 DUP2 GT PUSH2 0x95D JUMPI PUSH2 0x2A2A SWAP1 TIMESTAMP LT PUSH2 0x30F2 JUMP JUMPDEST PUSH2 0x28D0 JUMP JUMPDEST SWAP1 PUSH1 0x63 DUP2 MUL SWAP1 DUP1 DUP3 DIV PUSH1 0x63 EQ SWAP1 ISZERO OR ISZERO PUSH2 0x95D JUMPI PUSH1 0x64 SWAP1 DIV SWAP1 PUSH2 0x28AA JUMP JUMPDEST CALLVALUE PUSH2 0x11DF JUMPI PUSH1 0x20 CALLDATASIZE PUSH1 0x3 NOT ADD SLT PUSH2 0x11DF JUMPI PUSH1 0x4 CALLDATALOAD PUSH1 0x3 SLOAD DUP2 LT ISZERO PUSH2 0x11DF JUMPI PUSH2 0x2A74 SWAP1 PUSH2 0x2BB4 JUMP JUMPDEST POP DUP1 SLOAD PUSH1 0x1 PUSH1 0x1 PUSH1 0xA0 SHL SUB AND PUSH2 0x2A8C PUSH1 0x1 DUP4 ADD PUSH2 0x2C7C JUMP JUMPDEST SWAP2 PUSH2 0x2A99 PUSH1 0x2 DUP3 ADD PUSH2 0x2C7C JUMP JUMPDEST PUSH2 0x2AA5 PUSH1 0x3 DUP4 ADD PUSH2 0x2C7C JUMP JUMPDEST PUSH1 0x4 DUP4 ADD SLOAD SWAP3 SWAP1 PUSH2 0x2AB8 PUSH1 0x5 DUP4 ADD PUSH2 0x2C7C JUMP JUMPDEST SWAP4 PUSH1 0x6 DUP4 ADD SLOAD PUSH1 0xFF AND SWAP5 PUSH1 0x7 DUP5 ADD SLOAD SWAP2 PUSH1 0x8 DUP6 ADD SLOAD SWAP4 PUSH1 0x9 DUP7 ADD SLOAD SWAP6 PUSH1 0xA ADD SLOAD SWAP7 PUSH1 0x40 MLOAD SWAP11 DUP12 SWAP11 DUP12 MSTORE PUSH1 0x20 DUP12 ADD PUSH2 0x200 SWAP1 MSTORE PUSH2 0x200 DUP12 ADD PUSH2 0x2AF8 SWAP2 PUSH2 0x2D20 JUMP JUMPDEST DUP11 DUP2 SUB PUSH1 0x40 DUP13 ADD MSTORE PUSH2 0x2B09 SWAP2 PUSH2 0x2D20 JUMP JUMPDEST DUP10 DUP2 SUB PUSH1 0x60 DUP12 ADD MSTORE PUSH2 0x2B1A SWAP2 PUSH2 0x2D20 JUMP JUMPDEST SWAP1 PUSH1 0x1 PUSH1 0x1 PUSH1 0x40 SHL SUB DUP2 AND PUSH1 0x80 DUP11 ADD MSTORE DUP1 PUSH1 0x40 SHR PUSH1 0x1 PUSH1 0x1 PUSH1 0x40 SHL SUB AND PUSH1 0xA0 DUP11 ADD MSTORE DUP1 PUSH1 0x80 SHR PUSH1 0x1 PUSH1 0x1 PUSH1 0x40 SHL SUB AND PUSH1 0xC0 DUP11 ADD MSTORE PUSH1 0xC0 SHR PUSH1 0xE0 DUP10 ADD MSTORE DUP8 DUP2 SUB PUSH2 0x100 DUP10 ADD MSTORE PUSH2 0x2B68 SWAP2 PUSH2 0x2D20 JUMP JUMPDEST SWAP5 ISZERO ISZERO PUSH2 0x120 DUP8 ADD MSTORE PUSH2 0x140 DUP7 ADD MSTORE PUSH2 0x160 DUP6 ADD MSTORE PUSH2 0x180 DUP5 ADD MSTORE PUSH1 0xFF DUP2 DUP2 AND ISZERO ISZERO PUSH2 0x1A0 DUP6 ADD MSTORE PUSH1 0x8 DUP3 SWAP1 SHR AND ISZERO ISZERO PUSH2 0x1C0 DUP5 ADD MSTORE PUSH1 0x10 SHR PUSH1 0x1 PUSH1 0x1 PUSH1 0xA0 SHL SUB AND PUSH2 0x1E0 DUP4 ADD MSTORE SUB SWAP1 RETURN JUMPDEST PUSH1 0x3 SLOAD DUP2 LT ISZERO PUSH2 0x2BD3 JUMPI PUSH1 0x3 PUSH1 0x0 MSTORE PUSH1 0xB PUSH1 0x20 PUSH1 0x0 KECCAK256 SWAP2 MUL ADD SWAP1 PUSH1 0x0 SWAP1 JUMP JUMPDEST PUSH4 0x4E487B71 PUSH1 0xE0 SHL PUSH1 0x0 MSTORE PUSH1 0x32 PUSH1 0x4 MSTORE PUSH1 0x24 PUSH1 0x0 REVERT JUMPDEST DUP1 SLOAD DUP3 LT ISZERO PUSH2 0x2BD3 JUMPI PUSH1 0x0 MSTORE PUSH1 0xB PUSH1 0x20 PUSH1 0x0 KECCAK256 SWAP2 MUL ADD SWAP1 PUSH1 0x0 SWAP1 JUMP JUMPDEST SWAP1 PUSH1 0x1 DUP3 DUP2 SHR SWAP3 AND DUP1 ISZERO PUSH2 0x2C35 JUMPI JUMPDEST PUSH1 0x20 DUP4 LT EQ PUSH2 0x2C1F JUMPI JUMP JUMPDEST PUSH4 0x4E487B71 PUSH1 0xE0 SHL PUSH1 0x0 MSTORE PUSH1 0x22 PUSH1 0x4 MSTORE PUSH1 0x24 PUSH1 0x0 REVERT JUMPDEST SWAP2 PUSH1 0x7F AND SWAP2 PUSH2 0x2C14 JUMP JUMPDEST PUSH2 0x200 DUP2 ADD SWAP1 DUP2 LT PUSH1 0x1 PUSH1 0x1 PUSH1 0x40 SHL SUB DUP3 GT OR PUSH2 0xA34 JUMPI PUSH1 0x40 MSTORE JUMP JUMPDEST SWAP1 PUSH1 0x1F DUP1 NOT SWAP2 ADD AND DUP2 ADD SWAP1 DUP2 LT PUSH1 0x1 PUSH1 0x1 PUSH1 0x40 SHL SUB DUP3 GT OR PUSH2 0xA34 JUMPI PUSH1 0x40 MSTORE JUMP JUMPDEST SWAP1 PUSH1 0x40 MLOAD SWAP2 DUP3 PUSH1 0x0 DUP3 SLOAD SWAP3 PUSH2 0x2C90 DUP5 PUSH2 0x2C05 JUMP JUMPDEST DUP1 DUP5 MSTORE SWAP4 PUSH1 0x1 DUP2 AND SWAP1 DUP2 ISZERO PUSH2 0x2CFE JUMPI POP PUSH1 0x1 EQ PUSH2 0x2CB7 JUMPI JUMPDEST POP PUSH2 0x2CB5 SWAP3 POP SUB DUP4 PUSH2 0x2C5B JUMP JUMPDEST JUMP JUMPDEST SWAP1 POP PUSH1 0x0 SWAP3 SWAP2 SWAP3 MSTORE PUSH1 0x20 PUSH1 0x0 KECCAK256 SWAP1 PUSH1 0x0 SWAP2 JUMPDEST DUP2 DUP4 LT PUSH2 0x2CE2 JUMPI POP POP SWAP1 PUSH1 0x20 PUSH2 0x2CB5 SWAP3 DUP3 ADD ADD CODESIZE PUSH2 0x2CA8 JUMP JUMPDEST PUSH1 0x20 SWAP2 SWAP4 POP DUP1 PUSH1 0x1 SWAP2 SLOAD DUP4 DUP6 DUP10 ADD ADD MSTORE ADD SWAP2 ADD SWAP1 SWAP2 DUP5 SWAP3 PUSH2 0x2CC9 JUMP JUMPDEST SWAP1 POP PUSH1 0x20 SWAP3 POP PUSH2 0x2CB5 SWAP5 SWAP2 POP PUSH1 0xFF NOT AND DUP3 DUP5 ADD MSTORE ISZERO ISZERO PUSH1 0x5 SHL DUP3 ADD ADD CODESIZE PUSH2 0x2CA8 JUMP JUMPDEST SWAP2 SWAP1 DUP3 MLOAD SWAP3 DUP4 DUP3 MSTORE PUSH1 0x0 JUMPDEST DUP5 DUP2 LT PUSH2 0x2D4C JUMPI POP POP DUP3 PUSH1 0x0 PUSH1 0x20 DUP1 SWAP5 SWAP6 DUP5 ADD ADD MSTORE PUSH1 0x1F DUP1 NOT SWAP2 ADD AND ADD ADD SWAP1 JUMP JUMPDEST DUP1 PUSH1 0x20 DUP1 SWAP3 DUP5 ADD ADD MLOAD DUP3 DUP3 DUP7 ADD ADD MSTORE ADD PUSH2 0x2D2B JUMP JUMPDEST SWAP1 PUSH1 0x1 DUP1 PUSH1 0xA0 SHL SUB DUP3 MLOAD AND DUP2 MSTORE PUSH2 0x1E0 PUSH2 0x2E19 PUSH2 0x2DB9 PUSH2 0x2DA7 PUSH2 0x2D95 PUSH1 0x20 DUP8 ADD MLOAD PUSH2 0x200 PUSH1 0x20 DUP9 ADD MSTORE PUSH2 0x200 DUP8 ADD SWAP1 PUSH2 0x2D20 JUMP JUMPDEST PUSH1 0x40 DUP8 ADD MLOAD DUP7 DUP3 SUB PUSH1 0x40 DUP9 ADD MSTORE PUSH2 0x2D20 JUMP JUMPDEST PUSH1 0x60 DUP7 ADD MLOAD DUP6 DUP3 SUB PUSH1 0x60 DUP8 ADD MSTORE PUSH2 0x2D20 JUMP JUMPDEST PUSH1 0x1 PUSH1 0x1 PUSH1 0x40 SHL SUB PUSH1 0x80 DUP7 ADD MLOAD AND PUSH1 0x80 DUP6 ADD MSTORE PUSH1 0x1 PUSH1 0x1 PUSH1 0x40 SHL SUB PUSH1 0xA0 DUP7 ADD MLOAD AND PUSH1 0xA0 DUP6 ADD MSTORE PUSH1 0x1 PUSH1 0x1 PUSH1 0x40 SHL SUB PUSH1 0xC0 DUP7 ADD MLOAD AND PUSH1 0xC0 DUP6 ADD MSTORE PUSH1 0x1 PUSH1 0x1 PUSH1 0x40 SHL SUB PUSH1 0xE0 DUP7 ADD MLOAD AND PUSH1 0xE0 DUP6 ADD MSTORE PUSH2 0x100 DUP6 ADD MLOAD DUP5 DUP3 SUB PUSH2 0x100 DUP7 ADD MSTORE PUSH2 0x2D20 JUMP JUMPDEST SWAP3 PUSH2 0x120 DUP2 ADD MLOAD ISZERO ISZERO PUSH2 0x120 DUP5 ADD MSTORE PUSH2 0x140 DUP2 ADD MLOAD PUSH2 0x140 DUP5 ADD MSTORE PUSH2 0x160 DUP2 ADD MLOAD PUSH2 0x160 DUP5 ADD MSTORE PUSH2 0x180 DUP2 ADD MLOAD PUSH2 0x180 DUP5 ADD MSTORE PUSH2 0x1A0 DUP2 ADD MLOAD ISZERO ISZERO PUSH2 0x1A0 DUP5 ADD MSTORE PUSH2 0x1C0 DUP2 ADD MLOAD ISZERO ISZERO PUSH2 0x1C0 DUP5 ADD MSTORE DUP2 PUSH1 0x1 DUP1 PUSH1 0xA0 SHL SUB SWAP2 ADD MLOAD AND SWAP2 ADD MSTORE SWAP1 JUMP JUMPDEST SWAP1 DUP1 PUSH1 0x20 DUP4 MLOAD SWAP2 DUP3 DUP2 MSTORE ADD SWAP2 PUSH1 0x20 DUP1 DUP4 PUSH1 0x5 SHL DUP4 ADD ADD SWAP5 ADD SWAP3 PUSH1 0x0 SWAP2 JUMPDEST DUP4 DUP4 LT PUSH2 0x2EA6 JUMPI POP POP POP POP POP SWAP1 JUMP JUMPDEST SWAP1 SWAP2 SWAP3 SWAP4 SWAP5 PUSH1 0x20 DUP1 PUSH2 0x2EC4 PUSH1 0x1 SWAP4 PUSH1 0x1F NOT DUP7 DUP3 SUB ADD DUP8 MSTORE DUP10 MLOAD PUSH2 0x2D61 JUMP JUMPDEST SWAP8 ADD SWAP4 ADD SWAP4 ADD SWAP2 SWAP4 SWAP3 SWAP1 PUSH2 0x2E97 JUMP JUMPDEST SWAP3 SWAP2 PUSH1 0x40 DUP5 ADD SWAP4 PUSH1 0x40 DUP2 MSTORE DUP3 MLOAD DUP1 SWAP6 MSTORE PUSH1 0x20 PUSH1 0x60 DUP3 ADD SWAP4 ADD PUSH1 0x0 SWAP6 JUMPDEST DUP1 DUP8 LT PUSH2 0x2F0E JUMPI POP POP PUSH2 0x2F0B SWAP4 SWAP5 POP PUSH1 0x20 DUP2 DUP5 SUB SWAP2 ADD MSTORE PUSH2 0x2E7A JUMP JUMPDEST SWAP1 JUMP JUMPDEST SWAP1 SWAP4 PUSH1 0x20 DUP1 PUSH1 0x1 SWAP3 DUP8 MLOAD DUP2 MSTORE ADD SWAP6 ADD SWAP7 ADD SWAP6 SWAP1 PUSH2 0x2EEF JUMP JUMPDEST PUSH1 0x4 CALLDATALOAD SWAP1 PUSH1 0x1 PUSH1 0x1 PUSH1 0xA0 SHL SUB DUP3 AND DUP3 SUB PUSH2 0x11DF JUMPI JUMP JUMPDEST SWAP2 DUP2 PUSH1 0x1F DUP5 ADD SLT ISZERO PUSH2 0x11DF JUMPI DUP3 CALLDATALOAD SWAP2 PUSH1 0x1 PUSH1 0x1 PUSH1 0x40 SHL SUB DUP4 GT PUSH2 0x11DF JUMPI PUSH1 0x20 DUP4 DUP2 DUP7 ADD SWAP6 ADD ADD GT PUSH2 0x11DF JUMPI JUMP JUMPDEST SWAP1 PUSH1 0x20 DUP1 DUP4 MLOAD SWAP3 DUP4 DUP2 MSTORE ADD SWAP3 ADD SWAP1 PUSH1 0x0 JUMPDEST DUP2 DUP2 LT PUSH2 0x2F87 JUMPI POP POP POP SWAP1 JUMP JUMPDEST DUP3 MLOAD PUSH1 0x1 PUSH1 0x1 PUSH1 0xA0 SHL SUB AND DUP5 MSTORE PUSH1 0x20 SWAP4 DUP5 ADD SWAP4 SWAP1 SWAP3 ADD SWAP2 PUSH1 0x1 ADD PUSH2 0x2F7A JUMP JUMPDEST ISZERO PUSH2 0x2FAD JUMPI JUMP JUMPDEST PUSH1 0x40 MLOAD PUSH3 0x461BCD PUSH1 0xE5 SHL DUP2 MSTORE PUSH1 0x20 PUSH1 0x4 DUP3 ADD MSTORE PUSH1 0xD PUSH1 0x24 DUP3 ADD MSTORE PUSH13 0x125B9D985B1A5908195D995B9D PUSH1 0x9A SHL PUSH1 0x44 DUP3 ADD MSTORE PUSH1 0x64 SWAP1 REVERT JUMPDEST ISZERO PUSH2 0x2FE9 JUMPI JUMP JUMPDEST PUSH1 0x40 MLOAD PUSH3 0x461BCD PUSH1 0xE5 SHL DUP2 MSTORE PUSH1 0x20 PUSH1 0x4 DUP3 ADD MSTORE PUSH1 0x13 PUSH1 0x24 DUP3 ADD MSTORE PUSH19 0x115D995B9D08191BD95CDB89DD08195E1A5CDD PUSH1 0x6A SHL PUSH1 0x44 DUP3 ADD MSTORE PUSH1 0x64 SWAP1 REVERT JUMPDEST ISZERO PUSH2 0x302B JUMPI JUMP JUMPDEST PUSH1 0x40 MLOAD PUSH3 0x461BCD PUSH1 0xE5 SHL DUP2 MSTORE PUSH1 0x20 PUSH1 0x4 DUP3 ADD MSTORE PUSH1 0xF PUSH1 0x24 DUP3 ADD MSTORE PUSH15 0x10DBDB9D1C9858DD081C185D5CD959 PUSH1 0x8A SHL PUSH1 0x44 DUP3 ADD MSTORE PUSH1 0x64 SWAP1 REVERT JUMPDEST ISZERO PUSH2 0x3069 JUMPI JUMP JUMPDEST PUSH1 0x40 MLOAD PUSH3 0x461BCD PUSH1 0xE5 SHL DUP2 MSTORE PUSH1 0x20 PUSH1 0x4 DUP3 ADD MSTORE PUSH1 0x13 PUSH1 0x24 DUP3 ADD MSTORE PUSH19 0x139BC81D1A58DAD95D081C1D5C98DA185CD959 PUSH1 0x6A SHL PUSH1 0x44 DUP3 ADD MSTORE PUSH1 0x64 SWAP1 REVERT JUMPDEST ISZERO PUSH2 0x30AB JUMPI JUMP JUMPDEST PUSH1 0x40 MLOAD PUSH3 0x461BCD PUSH1 0xE5 SHL DUP2 MSTORE PUSH1 0x20 PUSH1 0x4 DUP3 ADD MSTORE PUSH1 0x12 PUSH1 0x24 DUP3 ADD MSTORE PUSH18 0x496E73756666696369656E742066756E6473 PUSH1 0x70 SHL PUSH1 0x44 DUP3 ADD MSTORE PUSH1 0x64 SWAP1 REVERT JUMPDEST SWAP2 SWAP1 DUP3 SUB SWAP2 DUP3 GT PUSH2 0x95D JUMPI JUMP JUMPDEST ISZERO PUSH2 0x30F9 JUMPI JUMP JUMPDEST PUSH1 0x40 MLOAD PUSH3 0x461BCD PUSH1 0xE5 SHL DUP2 MSTORE PUSH1 0x20 PUSH1 0x4 DUP3 ADD MSTORE PUSH1 0x13 PUSH1 0x24 DUP3 ADD MSTORE PUSH19 0x1499599D5B99081C195C9A5BD908195B991959 PUSH1 0x6A SHL PUSH1 0x44 DUP3 ADD MSTORE PUSH1 0x64 SWAP1 REVERT JUMPDEST PUSH1 0x0 NOT DUP2 EQ PUSH2 0x95D JUMPI PUSH1 0x1 ADD SWAP1 JUMP JUMPDEST PUSH1 0x1 PUSH1 0x1 PUSH1 0x40 SHL SUB DUP2 GT PUSH2 0xA34 JUMPI PUSH1 0x5 SHL PUSH1 0x20 ADD SWAP1 JUMP JUMPDEST SWAP1 PUSH2 0x3164 DUP3 PUSH2 0x3143 JUMP JUMPDEST PUSH2 0x3171 PUSH1 0x40 MLOAD SWAP2 DUP3 PUSH2 0x2C5B JUMP JUMPDEST DUP3 DUP2 MSTORE DUP1 SWAP3 PUSH2 0x3182 PUSH1 0x1F NOT SWAP2 PUSH2 0x3143 JUMP JUMPDEST ADD SWAP1 PUSH1 0x20 CALLDATASIZE SWAP2 ADD CALLDATACOPY JUMP JUMPDEST PUSH1 0x40 MLOAD SWAP1 PUSH2 0x3199 DUP3 PUSH2 0x2C3F JUMP JUMPDEST PUSH1 0x0 PUSH2 0x1E0 DUP4 DUP3 DUP2 MSTORE PUSH1 0x60 PUSH1 0x20 DUP3 ADD MSTORE PUSH1 0x60 PUSH1 0x40 DUP3 ADD MSTORE PUSH1 0x60 DUP1 DUP3 ADD MSTORE DUP3 PUSH1 0x80 DUP3 ADD MSTORE DUP3 PUSH1 0xA0 DUP3 ADD MSTORE DUP3 PUSH1 0xC0 DUP3 ADD MSTORE DUP3 PUSH1 0xE0 DUP3 ADD MSTORE PUSH1 0x60 PUSH2 0x100 DUP3 ADD MSTORE DUP3 PUSH2 0x120 DUP3 ADD MSTORE DUP3 PUSH2 0x140 DUP3 ADD MSTORE DUP3 PUSH2 0x160 DUP3 ADD MSTORE DUP3 PUSH2 0x180 DUP3 ADD MSTORE DUP3 PUSH2 0x1A0 DUP3 ADD MSTORE DUP3 PUSH2 0x1C0 DUP3 ADD MSTORE ADD MSTORE JUMP JUMPDEST SWAP1 PUSH2 0x320E DUP3 PUSH2 0x3143 JUMP JUMPDEST PUSH2 0x321B PUSH1 0x40 MLOAD SWAP2 DUP3 PUSH2 0x2C5B JUMP JUMPDEST DUP3 DUP2 MSTORE DUP1 SWAP3 PUSH2 0x322C PUSH1 0x1F NOT SWAP2 PUSH2 0x3143 JUMP JUMPDEST ADD SWAP1 PUSH1 0x0 JUMPDEST DUP3 DUP2 LT PUSH2 0x323D JUMPI POP POP POP JUMP JUMPDEST PUSH1 0x20 SWAP1 PUSH2 0x3248 PUSH2 0x318C JUMP JUMPDEST DUP3 DUP3 DUP6 ADD ADD MSTORE ADD PUSH2 0x3231 JUMP JUMPDEST DUP1 MLOAD DUP3 LT ISZERO PUSH2 0x2BD3 JUMPI PUSH1 0x20 SWAP2 PUSH1 0x5 SHL ADD ADD SWAP1 JUMP JUMPDEST SWAP1 PUSH1 0x40 MLOAD PUSH2 0x3275 DUP2 PUSH2 0x2C3F JUMP JUMPDEST DUP3 SLOAD PUSH1 0x1 PUSH1 0x1 PUSH1 0xA0 SHL SUB AND DUP2 MSTORE SWAP2 DUP3 SWAP1 PUSH2 0x1E0 SWAP1 PUSH1 0xA SWAP1 PUSH2 0x3298 PUSH1 0x1 DUP3 ADD PUSH2 0x2C7C JUMP JUMPDEST PUSH1 0x20 DUP6 ADD MSTORE PUSH2 0x32A9 PUSH1 0x2 DUP3 ADD PUSH2 0x2C7C JUMP JUMPDEST PUSH1 0x40 DUP6 ADD MSTORE PUSH2 0x32BA PUSH1 0x3 DUP3 ADD PUSH2 0x2C7C JUMP JUMPDEST PUSH1 0x60 DUP6 ADD MSTORE PUSH1 0x4 DUP2 ADD SLOAD PUSH1 0x1 PUSH1 0x1 PUSH1 0x40 SHL SUB DUP2 AND PUSH1 0x80 DUP7 ADD MSTORE PUSH1 0x1 PUSH1 0x1 PUSH1 0x40 SHL SUB DUP2 PUSH1 0x40 SHR AND PUSH1 0xA0 DUP7 ADD MSTORE PUSH1 0x1 PUSH1 0x1 PUSH1 0x40 SHL SUB DUP2 PUSH1 0x80 SHR AND PUSH1 0xC0 DUP7 ADD MSTORE PUSH1 0xC0 SHR PUSH1 0xE0 DUP6 ADD MSTORE PUSH2 0x330B PUSH1 0x5 DUP3 ADD PUSH2 0x2C7C JUMP JUMPDEST PUSH2 0x100 DUP6 ADD MSTORE PUSH1 0xFF PUSH1 0x6 DUP3 ADD SLOAD AND ISZERO ISZERO PUSH2 0x120 DUP6 ADD MSTORE PUSH1 0x7 DUP2 ADD SLOAD PUSH2 0x140 DUP6 ADD MSTORE PUSH1 0x8 DUP2 ADD SLOAD PUSH2 0x160 DUP6 ADD MSTORE PUSH1 0x9 DUP2 ADD SLOAD PUSH2 0x180 DUP6 ADD MSTORE ADD SLOAD PUSH1 0xFF DUP2 AND ISZERO ISZERO PUSH2 0x1A0 DUP5 ADD MSTORE PUSH1 0xFF DUP2 PUSH1 0x8 SHR AND ISZERO ISZERO PUSH2 0x1C0 DUP5 ADD MSTORE PUSH1 0x1 DUP1 PUSH1 0xA0 SHL SUB SWAP1 PUSH1 0x10 SHR AND SWAP2 ADD MSTORE JUMP JUMPDEST SWAP1 DUP2 SLOAD PUSH2 0x337C DUP2 PUSH2 0x3143 JUMP JUMPDEST SWAP3 PUSH2 0x338A PUSH1 0x40 MLOAD SWAP5 DUP6 PUSH2 0x2C5B JUMP JUMPDEST DUP2 DUP5 MSTORE PUSH1 0x20 DUP5 ADD SWAP1 PUSH1 0x0 MSTORE PUSH1 0x20 PUSH1 0x0 KECCAK256 PUSH1 0x0 SWAP2 JUMPDEST DUP4 DUP4 LT PUSH2 0x33AB JUMPI POP POP POP POP JUMP JUMPDEST PUSH1 0xB PUSH1 0x20 PUSH1 0x1 SWAP3 PUSH2 0x33BB DUP6 PUSH2 0x3268 JUMP JUMPDEST DUP2 MSTORE ADD SWAP3 ADD SWAP3 ADD SWAP2 SWAP1 PUSH2 0x339E JUMP JUMPDEST ISZERO PUSH2 0x33D0 JUMPI JUMP JUMPDEST PUSH1 0x40 MLOAD PUSH3 0x461BCD PUSH1 0xE5 SHL DUP2 MSTORE PUSH1 0x20 PUSH1 0x4 DUP3 ADD MSTORE PUSH1 0xF PUSH1 0x24 DUP3 ADD MSTORE PUSH15 0x2737BA1032BB32B73A1037BBB732B9 PUSH1 0x89 SHL PUSH1 0x44 DUP3 ADD MSTORE PUSH1 0x64 SWAP1 REVERT JUMPDEST ISZERO PUSH2 0x340E JUMPI JUMP JUMPDEST PUSH1 0x40 MLOAD PUSH3 0x461BCD PUSH1 0xE5 SHL DUP2 MSTORE PUSH1 0x20 PUSH1 0x4 DUP3 ADD MSTORE PUSH1 0x10 PUSH1 0x24 DUP3 ADD MSTORE PUSH16 0x125B9D985B1A5908195D995B9D081251 PUSH1 0x82 SHL PUSH1 0x44 DUP3 ADD MSTORE PUSH1 0x64 SWAP1 REVERT JUMPDEST ISZERO PUSH2 0x344D JUMPI JUMP JUMPDEST PUSH1 0x40 MLOAD PUSH3 0x461BCD PUSH1 0xE5 SHL DUP2 MSTORE PUSH1 0x20 PUSH1 0x4 DUP3 ADD MSTORE PUSH1 0x17 PUSH1 0x24 DUP3 ADD MSTORE PUSH32 0x4576656E7420686173206E6F7420656E64656420796574000000000000000000 PUSH1 0x44 DUP3 ADD MSTORE PUSH1 0x64 SWAP1 REVERT JUMPDEST ISZERO PUSH2 0x3499 JUMPI JUMP JUMPDEST PUSH1 0x40 MLOAD PUSH3 0x461BCD PUSH1 0xE5 SHL DUP2 MSTORE PUSH1 0x20 PUSH1 0x4 DUP3 ADD MSTORE PUSH1 0x16 PUSH1 0x24 DUP3 ADD MSTORE PUSH22 0x119D5B991CC8185B1C9958591E481C995B19585CD959 PUSH1 0x52 SHL PUSH1 0x44 DUP3 ADD MSTORE PUSH1 0x64 SWAP1 REVERT JUMPDEST PUSH1 0x1 PUSH1 0x1 PUSH1 0x40 SHL SUB DUP2 GT PUSH2 0xA34 JUMPI PUSH1 0x1F ADD PUSH1 0x1F NOT AND PUSH1 0x20 ADD SWAP1 JUMP JUMPDEST RETURNDATASIZE ISZERO PUSH2 0x351D JUMPI RETURNDATASIZE SWAP1 PUSH2 0x3503 DUP3 PUSH2 0x34D7 JUMP JUMPDEST SWAP2 PUSH2 0x3511 PUSH1 0x40 MLOAD SWAP4 DUP5 PUSH2 0x2C5B JUMP JUMPDEST DUP3 MSTORE RETURNDATASIZE PUSH1 0x0 PUSH1 0x20 DUP5 ADD RETURNDATACOPY JUMP JUMPDEST PUSH1 0x60 SWAP1 JUMP JUMPDEST ISZERO PUSH2 0x3529 JUMPI JUMP JUMPDEST PUSH1 0x40 MLOAD PUSH3 0x461BCD PUSH1 0xE5 SHL DUP2 MSTORE PUSH1 0x20 PUSH1 0x4 DUP3 ADD MSTORE PUSH1 0xD PUSH1 0x24 DUP3 ADD MSTORE PUSH13 0x115D995B9D08195E1C1A5C9959 PUSH1 0x9A SHL PUSH1 0x44 DUP3 ADD MSTORE PUSH1 0x64 SWAP1 REVERT JUMPDEST ISZERO PUSH2 0x3565 JUMPI JUMP JUMPDEST PUSH1 0x40 MLOAD PUSH3 0x461BCD PUSH1 0xE5 SHL DUP2 MSTORE PUSH1 0x20 PUSH1 0x4 DUP3 ADD MSTORE PUSH1 0xE PUSH1 0x24 DUP3 ADD MSTORE PUSH14 0x4576656E7420696E616374697665 PUSH1 0x90 SHL PUSH1 0x44 DUP3 ADD MSTORE PUSH1 0x64 SWAP1 REVERT JUMPDEST ISZERO PUSH2 0x35A2 JUMPI JUMP JUMPDEST PUSH1 0x40 MLOAD PUSH3 0x461BCD PUSH1 0xE5 SHL DUP2 MSTORE PUSH1 0x20 PUSH1 0x4 DUP3 ADD MSTORE PUSH1 0x11 PUSH1 0x24 DUP3 ADD MSTORE PUSH17 0x105B1C9958591E481C1D5C98DA185CD959 PUSH1 0x7A SHL PUSH1 0x44 DUP3 ADD MSTORE PUSH1 0x64 SWAP1 REVERT JUMPDEST ISZERO PUSH2 0x35E2 JUMPI JUMP JUMPDEST PUSH1 0x40 MLOAD PUSH3 0x461BCD PUSH1 0xE5 SHL DUP2 MSTORE PUSH1 0x20 PUSH1 0x4 DUP3 ADD MSTORE PUSH1 0x11 PUSH1 0x24 DUP3 ADD MSTORE PUSH17 0x4576656E74206174206361706163697479 PUSH1 0x78 SHL PUSH1 0x44 DUP3 ADD MSTORE PUSH1 0x64 SWAP1 REVERT JUMPDEST SWAP2 SWAP1 DUP3 ADD DUP1 SWAP3 GT PUSH2 0x95D JUMPI JUMP JUMPDEST SWAP1 DUP2 PUSH1 0x20 SWAP2 SUB SLT PUSH2 0x11DF JUMPI MLOAD DUP1 ISZERO ISZERO DUP2 SUB PUSH2 0x11DF JUMPI SWAP1 JUMP JUMPDEST DUP1 SLOAD DUP3 LT ISZERO PUSH2 0x2BD3 JUMPI PUSH1 0x0 MSTORE PUSH1 0x20 PUSH1 0x0 KECCAK256 ADD SWAP1 PUSH1 0x0 SWAP1 JUMP JUMPDEST SWAP1 DUP2 SLOAD SWAP2 PUSH1 0x1 PUSH1 0x40 SHL DUP4 LT ISZERO PUSH2 0xA34 JUMPI DUP3 PUSH2 0x1CB2 SWAP2 PUSH1 0x1 PUSH2 0x2CB5 SWAP6 ADD DUP2 SSTORE PUSH2 0x3640 JUMP JUMPDEST DUP1 SLOAD DUP1 ISZERO PUSH2 0x36A8 JUMPI PUSH1 0x0 NOT ADD SWAP1 PUSH2 0x3692 DUP3 DUP3 PUSH2 0x3640 JUMP JUMPDEST DUP2 SLOAD SWAP1 PUSH1 0x1 DUP1 PUSH1 0xA0 SHL SUB SWAP1 PUSH1 0x3 SHL SHL NOT AND SWAP1 SSTORE SSTORE JUMP JUMPDEST PUSH4 0x4E487B71 PUSH1 0xE0 SHL PUSH1 0x0 MSTORE PUSH1 0x31 PUSH1 0x4 MSTORE PUSH1 0x24 PUSH1 0x0 REVERT JUMPDEST SWAP1 PUSH1 0x40 MLOAD SWAP2 DUP3 DUP2 SLOAD SWAP2 DUP3 DUP3 MSTORE PUSH1 0x20 DUP3 ADD SWAP1 PUSH1 0x0 MSTORE PUSH1 0x20 PUSH1 0x0 KECCAK256 SWAP3 PUSH1 0x0 JUMPDEST DUP2 DUP2 LT PUSH2 0x36F0 JUMPI POP POP PUSH2 0x2CB5 SWAP3 POP SUB DUP4 PUSH2 0x2C5B JUMP JUMPDEST DUP5 SLOAD PUSH1 0x1 PUSH1 0x1 PUSH1 0xA0 SHL SUB AND DUP4 MSTORE PUSH1 0x1 SWAP5 DUP6 ADD SWAP5 DUP8 SWAP5 POP PUSH1 0x20 SWAP1 SWAP4 ADD SWAP3 ADD PUSH2 0x36DB JUMP JUMPDEST SWAP3 SWAP2 SWAP3 PUSH2 0x371E DUP3 PUSH2 0x34D7 JUMP JUMPDEST SWAP2 PUSH2 0x372C PUSH1 0x40 MLOAD SWAP4 DUP5 PUSH2 0x2C5B JUMP JUMPDEST DUP3 SWAP5 DUP2 DUP5 MSTORE DUP2 DUP4 ADD GT PUSH2 0x11DF JUMPI DUP3 DUP2 PUSH1 0x20 SWAP4 DUP5 PUSH1 0x0 SWAP7 ADD CALLDATACOPY ADD ADD MSTORE JUMP JUMPDEST PUSH1 0x2 PUSH1 0x0 SLOAD EQ PUSH2 0x375A JUMPI PUSH1 0x2 PUSH1 0x0 SSTORE JUMP JUMPDEST PUSH4 0x3EE5AEB5 PUSH1 0xE0 SHL PUSH1 0x0 MSTORE PUSH1 0x4 PUSH1 0x0 REVERT JUMPDEST PUSH1 0x40 MLOAD PUSH4 0xA9059CBB PUSH1 0xE0 SHL PUSH1 0x20 DUP1 DUP4 ADD SWAP2 DUP3 MSTORE PUSH1 0x1 PUSH1 0x1 PUSH1 0xA0 SHL SUB SWAP5 SWAP1 SWAP5 AND PUSH1 0x24 DUP4 ADD MSTORE PUSH1 0x44 DUP1 DUP4 ADD SWAP6 SWAP1 SWAP6 MSTORE SWAP4 DUP2 MSTORE SWAP1 SWAP3 PUSH1 0x0 SWAP2 PUSH2 0x37AB PUSH1 0x64 DUP3 PUSH2 0x2C5B JUMP JUMPDEST MLOAD SWAP1 DUP3 DUP6 GAS CALL ISZERO PUSH2 0x1402 JUMPI PUSH1 0x0 MLOAD RETURNDATASIZE PUSH2 0x37F4 JUMPI POP PUSH1 0x1 PUSH1 0x1 PUSH1 0xA0 SHL SUB DUP2 AND EXTCODESIZE ISZERO JUMPDEST PUSH2 0x37D3 JUMPI POP JUMP JUMPDEST PUSH4 0x5274AFE7 PUSH1 0xE0 SHL PUSH1 0x0 SWAP1 DUP2 MSTORE PUSH1 0x1 PUSH1 0x1 PUSH1 0xA0 SHL SUB SWAP2 SWAP1 SWAP2 AND PUSH1 0x4 MSTORE PUSH1 0x24 SWAP1 REVERT JUMPDEST PUSH1 0x1 EQ ISZERO PUSH2 0x37CC JUMP JUMPDEST ISZERO PUSH2 0x3804 JUMPI JUMP JUMPDEST PUSH1 0x40 MLOAD PUSH3 0x461BCD PUSH1 0xE5 SHL DUP2 MSTORE PUSH1 0x20 PUSH1 0x4 DUP3 ADD MSTORE PUSH1 0xF PUSH1 0x24 DUP3 ADD MSTORE PUSH15 0x151C985B9CD9995C8819985A5B1959 PUSH1 0x8A SHL PUSH1 0x44 DUP3 ADD MSTORE PUSH1 0x64 SWAP1 REVERT INVALID POP 0x4E 0xF6 0xDA 0xBC LOG2 DUP13 EQ MSTORE PUSH17 0x4D54BD8E25708D87E0C27D852ECEEA53A0 0xC0 0xD8 SWAP9 PUSH8 0x58A2646970667358 0x22 SLT KECCAK256 MSTORE 0xB8 BLOCKHASH 0x1F 0x4C SWAP9 ORIGIN 0xD2 0xCC ADD PUSH23 0xDDFC7F7D9CE7078768C5EEC678F157DCBC06A0A82C6473 PUSH16 0x6C634300081C00330000000000000000 "
        },
        "methodIdentifiers": {
          "Base()": "5ea102b0",
          "MAX_ATTENDEES()": "617148e5",
          "MAX_DETAILS_LENGTH()": "50d9c62d",
          "MAX_LOCATION_LENGTH()": "abf45ec8",
          "MAX_NAME_LENGTH()": "86074985",
          "MAX_TICKET_PRICE()": "b5e41287",
          "MAX_URL_LENGTH()": "cb71146e",
          "MIN_EVENT_DURATION()": "1ac78969",
          "REFUND_BUFFER()": "7b426cbf",
          "baseFundsHeld(uint256)": "44134a45",
          "buyTicket(uint256)": "67dd74ca",
          "cancelEvent(uint256)": "3f69babd",
          "createEvent(string,string,string,uint64,uint64,uint64,uint64,string,uint256,uint256,address)": "f57c7ad8",
          "events(uint256)": "0b791430",
          "getActiveEventsByCreator()": "ccfd6d3c",
          "getAllEvents()": "c27a500d",
          "getAttendees(uint256)": "e0c14377",
          "getEventById(uint256)": "b98079bc",
          "getEventLength()": "5c98dfa1",
          "getEventsByCreator(address)": "20020581",
          "getUserEvents()": "0f977561",
          "hasPurchasedTicket(uint256,address)": "439fd35f",
          "onTokenTransfer(address,uint256,bytes)": "a4c0ed36",
          "paused()": "5c975abb",
          "releaseFunds(uint256)": "4d68282f",
          "releaseFunds1(uint256)": "d166360c",
          "requestRefund(uint256)": "a4b2409e",
          "requestRefund1(uint256)": "0ec7c3ff",
          "supportedTokens(address)": "68c4ac26",
          "ubiPool()": "a06f7da7"
        }
      }
    }
  }
}